Archive member included to satisfy reference by file (symbol)

f:/developsoft/rt-threadstudio/repo/extract/toolchain_support_packages/risc-v/risc-v-gcc/10.1.0/bin/../lib/gcc/riscv64-unknown-elf/10.1.0/../../../../riscv64-unknown-elf/lib/rv32imac/ilp32\libc.a(lib_a-assert.o)
                              ./libraries/hpm_sdk/soc/HPM6750/hpm_l1c_drv.o (__assert_func)
f:/developsoft/rt-threadstudio/repo/extract/toolchain_support_packages/risc-v/risc-v-gcc/10.1.0/bin/../lib/gcc/riscv64-unknown-elf/10.1.0/../../../../riscv64-unknown-elf/lib/rv32imac/ilp32\libc.a(lib_a-atoi.o)
                              ./rt-thread/components/drivers/rtc/rtc.o (atoi)
f:/developsoft/rt-threadstudio/repo/extract/toolchain_support_packages/risc-v/risc-v-gcc/10.1.0/bin/../lib/gcc/riscv64-unknown-elf/10.1.0/../../../../riscv64-unknown-elf/lib/rv32imac/ilp32\libc.a(lib_a-fclose.o)
                              ./rt-thread/components/libc/compilers/gcc/newlib/stdio.o (fclose)
f:/developsoft/rt-threadstudio/repo/extract/toolchain_support_packages/risc-v/risc-v-gcc/10.1.0/bin/../lib/gcc/riscv64-unknown-elf/10.1.0/../../../../riscv64-unknown-elf/lib/rv32imac/ilp32\libc.a(lib_a-fflush.o)
                              f:/developsoft/rt-threadstudio/repo/extract/toolchain_support_packages/risc-v/risc-v-gcc/10.1.0/bin/../lib/gcc/riscv64-unknown-elf/10.1.0/../../../../riscv64-unknown-elf/lib/rv32imac/ilp32\libc.a(lib_a-fclose.o) (__sflush_r)
f:/developsoft/rt-threadstudio/repo/extract/toolchain_support_packages/risc-v/risc-v-gcc/10.1.0/bin/../lib/gcc/riscv64-unknown-elf/10.1.0/../../../../riscv64-unknown-elf/lib/rv32imac/ilp32\libc.a(lib_a-fileno.o)
                              ./rt-thread/components/libc/compilers/gcc/newlib/stdio.o (fileno)
f:/developsoft/rt-threadstudio/repo/extract/toolchain_support_packages/risc-v/risc-v-gcc/10.1.0/bin/../lib/gcc/riscv64-unknown-elf/10.1.0/../../../../riscv64-unknown-elf/lib/rv32imac/ilp32\libc.a(lib_a-findfp.o)
                              f:/developsoft/rt-threadstudio/repo/extract/toolchain_support_packages/risc-v/risc-v-gcc/10.1.0/bin/../lib/gcc/riscv64-unknown-elf/10.1.0/../../../../riscv64-unknown-elf/lib/rv32imac/ilp32\libc.a(lib_a-fclose.o) (__sinit)
f:/developsoft/rt-threadstudio/repo/extract/toolchain_support_packages/risc-v/risc-v-gcc/10.1.0/bin/../lib/gcc/riscv64-unknown-elf/10.1.0/../../../../riscv64-unknown-elf/lib/rv32imac/ilp32\libc.a(lib_a-fiprintf.o)
                              f:/developsoft/rt-threadstudio/repo/extract/toolchain_support_packages/risc-v/risc-v-gcc/10.1.0/bin/../lib/gcc/riscv64-unknown-elf/10.1.0/../../../../riscv64-unknown-elf/lib/rv32imac/ilp32\libc.a(lib_a-assert.o) (fiprintf)
f:/developsoft/rt-threadstudio/repo/extract/toolchain_support_packages/risc-v/risc-v-gcc/10.1.0/bin/../lib/gcc/riscv64-unknown-elf/10.1.0/../../../../riscv64-unknown-elf/lib/rv32imac/ilp32\libc.a(lib_a-fopen.o)
                              ./rt-thread/components/libc/compilers/gcc/newlib/stdio.o (fopen)
f:/developsoft/rt-threadstudio/repo/extract/toolchain_support_packages/risc-v/risc-v-gcc/10.1.0/bin/../lib/gcc/riscv64-unknown-elf/10.1.0/../../../../riscv64-unknown-elf/lib/rv32imac/ilp32\libc.a(lib_a-fseek.o)
                              f:/developsoft/rt-threadstudio/repo/extract/toolchain_support_packages/risc-v/risc-v-gcc/10.1.0/bin/../lib/gcc/riscv64-unknown-elf/10.1.0/../../../../riscv64-unknown-elf/lib/rv32imac/ilp32\libc.a(lib_a-fopen.o) (_fseek_r)
f:/developsoft/rt-threadstudio/repo/extract/toolchain_support_packages/risc-v/risc-v-gcc/10.1.0/bin/../lib/gcc/riscv64-unknown-elf/10.1.0/../../../../riscv64-unknown-elf/lib/rv32imac/ilp32\libc.a(lib_a-fseeko.o)
                              f:/developsoft/rt-threadstudio/repo/extract/toolchain_support_packages/risc-v/risc-v-gcc/10.1.0/bin/../lib/gcc/riscv64-unknown-elf/10.1.0/../../../../riscv64-unknown-elf/lib/rv32imac/ilp32\libc.a(lib_a-fseek.o) (_fseeko_r)
f:/developsoft/rt-threadstudio/repo/extract/toolchain_support_packages/risc-v/risc-v-gcc/10.1.0/bin/../lib/gcc/riscv64-unknown-elf/10.1.0/../../../../riscv64-unknown-elf/lib/rv32imac/ilp32\libc.a(lib_a-ftello.o)
                              f:/developsoft/rt-threadstudio/repo/extract/toolchain_support_packages/risc-v/risc-v-gcc/10.1.0/bin/../lib/gcc/riscv64-unknown-elf/10.1.0/../../../../riscv64-unknown-elf/lib/rv32imac/ilp32\libc.a(lib_a-fseeko.o) (_ftello_r)
f:/developsoft/rt-threadstudio/repo/extract/toolchain_support_packages/risc-v/risc-v-gcc/10.1.0/bin/../lib/gcc/riscv64-unknown-elf/10.1.0/../../../../riscv64-unknown-elf/lib/rv32imac/ilp32\libc.a(lib_a-fwalk.o)
                              f:/developsoft/rt-threadstudio/repo/extract/toolchain_support_packages/risc-v/risc-v-gcc/10.1.0/bin/../lib/gcc/riscv64-unknown-elf/10.1.0/../../../../riscv64-unknown-elf/lib/rv32imac/ilp32\libc.a(lib_a-findfp.o) (_fwalk)
f:/developsoft/rt-threadstudio/repo/extract/toolchain_support_packages/risc-v/risc-v-gcc/10.1.0/bin/../lib/gcc/riscv64-unknown-elf/10.1.0/../../../../riscv64-unknown-elf/lib/rv32imac/ilp32\libc.a(lib_a-impure.o)
                              ./rt-thread/components/libc/compilers/gcc/newlib/stdio.o (_global_impure_ptr)
f:/developsoft/rt-threadstudio/repo/extract/toolchain_support_packages/risc-v/risc-v-gcc/10.1.0/bin/../lib/gcc/riscv64-unknown-elf/10.1.0/../../../../riscv64-unknown-elf/lib/rv32imac/ilp32\libc.a(lib_a-makebuf.o)
                              f:/developsoft/rt-threadstudio/repo/extract/toolchain_support_packages/risc-v/risc-v-gcc/10.1.0/bin/../lib/gcc/riscv64-unknown-elf/10.1.0/../../../../riscv64-unknown-elf/lib/rv32imac/ilp32\libc.a(lib_a-fseeko.o) (__smakebuf_r)
f:/developsoft/rt-threadstudio/repo/extract/toolchain_support_packages/risc-v/risc-v-gcc/10.1.0/bin/../lib/gcc/riscv64-unknown-elf/10.1.0/../../../../riscv64-unknown-elf/lib/rv32imac/ilp32\libc.a(lib_a-memcmp.o)
                              ./rt-thread/components/finsh/shell.o (memcmp)
f:/developsoft/rt-threadstudio/repo/extract/toolchain_support_packages/risc-v/risc-v-gcc/10.1.0/bin/../lib/gcc/riscv64-unknown-elf/10.1.0/../../../../riscv64-unknown-elf/lib/rv32imac/ilp32\libc.a(lib_a-memcpy.o)
                              ./rt-thread/components/finsh/shell.o (memcpy)
f:/developsoft/rt-threadstudio/repo/extract/toolchain_support_packages/risc-v/risc-v-gcc/10.1.0/bin/../lib/gcc/riscv64-unknown-elf/10.1.0/../../../../riscv64-unknown-elf/lib/rv32imac/ilp32\libc.a(lib_a-memset.o)
                              ./rt-thread/components/finsh/msh.o (memset)
f:/developsoft/rt-threadstudio/repo/extract/toolchain_support_packages/risc-v/risc-v-gcc/10.1.0/bin/../lib/gcc/riscv64-unknown-elf/10.1.0/../../../../riscv64-unknown-elf/lib/rv32imac/ilp32\libc.a(lib_a-printf.o)
                              ./board/board.o (printf)
f:/developsoft/rt-threadstudio/repo/extract/toolchain_support_packages/risc-v/risc-v-gcc/10.1.0/bin/../lib/gcc/riscv64-unknown-elf/10.1.0/../../../../riscv64-unknown-elf/lib/rv32imac/ilp32\libc.a(lib_a-puts.o)
                              ./board/board.o (puts)
f:/developsoft/rt-threadstudio/repo/extract/toolchain_support_packages/risc-v/risc-v-gcc/10.1.0/bin/../lib/gcc/riscv64-unknown-elf/10.1.0/../../../../riscv64-unknown-elf/lib/rv32imac/ilp32\libc.a(lib_a-refill.o)
                              f:/developsoft/rt-threadstudio/repo/extract/toolchain_support_packages/risc-v/risc-v-gcc/10.1.0/bin/../lib/gcc/riscv64-unknown-elf/10.1.0/../../../../riscv64-unknown-elf/lib/rv32imac/ilp32\libc.a(lib_a-fseeko.o) (__srefill_r)
f:/developsoft/rt-threadstudio/repo/extract/toolchain_support_packages/risc-v/risc-v-gcc/10.1.0/bin/../lib/gcc/riscv64-unknown-elf/10.1.0/../../../../riscv64-unknown-elf/lib/rv32imac/ilp32\libc.a(lib_a-setvbuf.o)
                              ./rt-thread/components/libc/compilers/gcc/newlib/stdio.o (setvbuf)
f:/developsoft/rt-threadstudio/repo/extract/toolchain_support_packages/risc-v/risc-v-gcc/10.1.0/bin/../lib/gcc/riscv64-unknown-elf/10.1.0/../../../../riscv64-unknown-elf/lib/rv32imac/ilp32\libc.a(lib_a-snprintf.o)
                              ./rt-thread/components/libc/compilers/gcc/newlib/stdio.o (snprintf)
f:/developsoft/rt-threadstudio/repo/extract/toolchain_support_packages/risc-v/risc-v-gcc/10.1.0/bin/../lib/gcc/riscv64-unknown-elf/10.1.0/../../../../riscv64-unknown-elf/lib/rv32imac/ilp32\libc.a(lib_a-stdio.o)
                              f:/developsoft/rt-threadstudio/repo/extract/toolchain_support_packages/risc-v/risc-v-gcc/10.1.0/bin/../lib/gcc/riscv64-unknown-elf/10.1.0/../../../../riscv64-unknown-elf/lib/rv32imac/ilp32\libc.a(lib_a-findfp.o) (__sread)
f:/developsoft/rt-threadstudio/repo/extract/toolchain_support_packages/risc-v/risc-v-gcc/10.1.0/bin/../lib/gcc/riscv64-unknown-elf/10.1.0/../../../../riscv64-unknown-elf/lib/rv32imac/ilp32\libc.a(lib_a-strcpy.o)
                              ./rt-thread/components/finsh/shell.o (strcpy)
f:/developsoft/rt-threadstudio/repo/extract/toolchain_support_packages/risc-v/risc-v-gcc/10.1.0/bin/../lib/gcc/riscv64-unknown-elf/10.1.0/../../../../riscv64-unknown-elf/lib/rv32imac/ilp32\libc.a(lib_a-strlen.o)
                              ./rt-thread/components/finsh/msh.o (strlen)
f:/developsoft/rt-threadstudio/repo/extract/toolchain_support_packages/risc-v/risc-v-gcc/10.1.0/bin/../lib/gcc/riscv64-unknown-elf/10.1.0/../../../../riscv64-unknown-elf/lib/rv32imac/ilp32\libc.a(lib_a-strncmp.o)
                              ./rt-thread/components/finsh/cmd.o (strncmp)
f:/developsoft/rt-threadstudio/repo/extract/toolchain_support_packages/risc-v/risc-v-gcc/10.1.0/bin/../lib/gcc/riscv64-unknown-elf/10.1.0/../../../../riscv64-unknown-elf/lib/rv32imac/ilp32\libc.a(lib_a-strncpy.o)
                              ./rt-thread/components/finsh/shell.o (strncpy)
f:/developsoft/rt-threadstudio/repo/extract/toolchain_support_packages/risc-v/risc-v-gcc/10.1.0/bin/../lib/gcc/riscv64-unknown-elf/10.1.0/../../../../riscv64-unknown-elf/lib/rv32imac/ilp32\libc.a(lib_a-strtol.o)
                              f:/developsoft/rt-threadstudio/repo/extract/toolchain_support_packages/risc-v/risc-v-gcc/10.1.0/bin/../lib/gcc/riscv64-unknown-elf/10.1.0/../../../../riscv64-unknown-elf/lib/rv32imac/ilp32\libc.a(lib_a-atoi.o) (_strtol_r)
f:/developsoft/rt-threadstudio/repo/extract/toolchain_support_packages/risc-v/risc-v-gcc/10.1.0/bin/../lib/gcc/riscv64-unknown-elf/10.1.0/../../../../riscv64-unknown-elf/lib/rv32imac/ilp32\libc.a(lib_a-svfprintf.o)
                              f:/developsoft/rt-threadstudio/repo/extract/toolchain_support_packages/risc-v/risc-v-gcc/10.1.0/bin/../lib/gcc/riscv64-unknown-elf/10.1.0/../../../../riscv64-unknown-elf/lib/rv32imac/ilp32\libc.a(lib_a-snprintf.o) (_svfprintf_r)
f:/developsoft/rt-threadstudio/repo/extract/toolchain_support_packages/risc-v/risc-v-gcc/10.1.0/bin/../lib/gcc/riscv64-unknown-elf/10.1.0/../../../../riscv64-unknown-elf/lib/rv32imac/ilp32\libc.a(lib_a-vfiprintf.o)
                              f:/developsoft/rt-threadstudio/repo/extract/toolchain_support_packages/risc-v/risc-v-gcc/10.1.0/bin/../lib/gcc/riscv64-unknown-elf/10.1.0/../../../../riscv64-unknown-elf/lib/rv32imac/ilp32\libc.a(lib_a-fiprintf.o) (_vfiprintf_r)
f:/developsoft/rt-threadstudio/repo/extract/toolchain_support_packages/risc-v/risc-v-gcc/10.1.0/bin/../lib/gcc/riscv64-unknown-elf/10.1.0/../../../../riscv64-unknown-elf/lib/rv32imac/ilp32\libc.a(lib_a-vfprintf.o)
                              f:/developsoft/rt-threadstudio/repo/extract/toolchain_support_packages/risc-v/risc-v-gcc/10.1.0/bin/../lib/gcc/riscv64-unknown-elf/10.1.0/../../../../riscv64-unknown-elf/lib/rv32imac/ilp32\libc.a(lib_a-printf.o) (_vfprintf_r)
f:/developsoft/rt-threadstudio/repo/extract/toolchain_support_packages/risc-v/risc-v-gcc/10.1.0/bin/../lib/gcc/riscv64-unknown-elf/10.1.0/../../../../riscv64-unknown-elf/lib/rv32imac/ilp32\libc.a(lib_a-wsetup.o)
                              f:/developsoft/rt-threadstudio/repo/extract/toolchain_support_packages/risc-v/risc-v-gcc/10.1.0/bin/../lib/gcc/riscv64-unknown-elf/10.1.0/../../../../riscv64-unknown-elf/lib/rv32imac/ilp32\libc.a(lib_a-vfiprintf.o) (__swsetup_r)
f:/developsoft/rt-threadstudio/repo/extract/toolchain_support_packages/risc-v/risc-v-gcc/10.1.0/bin/../lib/gcc/riscv64-unknown-elf/10.1.0/../../../../riscv64-unknown-elf/lib/rv32imac/ilp32\libc.a(lib_a-abort.o)
                              f:/developsoft/rt-threadstudio/repo/extract/toolchain_support_packages/risc-v/risc-v-gcc/10.1.0/bin/../lib/gcc/riscv64-unknown-elf/10.1.0/../../../../riscv64-unknown-elf/lib/rv32imac/ilp32\libc.a(lib_a-assert.o) (abort)
f:/developsoft/rt-threadstudio/repo/extract/toolchain_support_packages/risc-v/risc-v-gcc/10.1.0/bin/../lib/gcc/riscv64-unknown-elf/10.1.0/../../../../riscv64-unknown-elf/lib/rv32imac/ilp32\libc.a(lib_a-ctype_.o)
                              f:/developsoft/rt-threadstudio/repo/extract/toolchain_support_packages/risc-v/risc-v-gcc/10.1.0/bin/../lib/gcc/riscv64-unknown-elf/10.1.0/../../../../riscv64-unknown-elf/lib/rv32imac/ilp32\libc.a(lib_a-strtol.o) (_ctype_)
f:/developsoft/rt-threadstudio/repo/extract/toolchain_support_packages/risc-v/risc-v-gcc/10.1.0/bin/../lib/gcc/riscv64-unknown-elf/10.1.0/../../../../riscv64-unknown-elf/lib/rv32imac/ilp32\libc.a(lib_a-flags.o)
                              f:/developsoft/rt-threadstudio/repo/extract/toolchain_support_packages/risc-v/risc-v-gcc/10.1.0/bin/../lib/gcc/riscv64-unknown-elf/10.1.0/../../../../riscv64-unknown-elf/lib/rv32imac/ilp32\libc.a(lib_a-fopen.o) (__sflags)
f:/developsoft/rt-threadstudio/repo/extract/toolchain_support_packages/risc-v/risc-v-gcc/10.1.0/bin/../lib/gcc/riscv64-unknown-elf/10.1.0/../../../../riscv64-unknown-elf/lib/rv32imac/ilp32\libc.a(lib_a-fputwc.o)
                              f:/developsoft/rt-threadstudio/repo/extract/toolchain_support_packages/risc-v/risc-v-gcc/10.1.0/bin/../lib/gcc/riscv64-unknown-elf/10.1.0/../../../../riscv64-unknown-elf/lib/rv32imac/ilp32\libc.a(lib_a-vfiprintf.o) (_fputwc_r)
f:/developsoft/rt-threadstudio/repo/extract/toolchain_support_packages/risc-v/risc-v-gcc/10.1.0/bin/../lib/gcc/riscv64-unknown-elf/10.1.0/../../../../riscv64-unknown-elf/lib/rv32imac/ilp32\libc.a(lib_a-fvwrite.o)
                              f:/developsoft/rt-threadstudio/repo/extract/toolchain_support_packages/risc-v/risc-v-gcc/10.1.0/bin/../lib/gcc/riscv64-unknown-elf/10.1.0/../../../../riscv64-unknown-elf/lib/rv32imac/ilp32\libc.a(lib_a-puts.o) (__sfvwrite_r)
f:/developsoft/rt-threadstudio/repo/extract/toolchain_support_packages/risc-v/risc-v-gcc/10.1.0/bin/../lib/gcc/riscv64-unknown-elf/10.1.0/../../../../riscv64-unknown-elf/lib/rv32imac/ilp32\libc.a(lib_a-ldtoa.o)
                              f:/developsoft/rt-threadstudio/repo/extract/toolchain_support_packages/risc-v/risc-v-gcc/10.1.0/bin/../lib/gcc/riscv64-unknown-elf/10.1.0/../../../../riscv64-unknown-elf/lib/rv32imac/ilp32\libc.a(lib_a-svfprintf.o) (_ldtoa_r)
f:/developsoft/rt-threadstudio/repo/extract/toolchain_support_packages/risc-v/risc-v-gcc/10.1.0/bin/../lib/gcc/riscv64-unknown-elf/10.1.0/../../../../riscv64-unknown-elf/lib/rv32imac/ilp32\libc.a(lib_a-localeconv.o)
                              f:/developsoft/rt-threadstudio/repo/extract/toolchain_support_packages/risc-v/risc-v-gcc/10.1.0/bin/../lib/gcc/riscv64-unknown-elf/10.1.0/../../../../riscv64-unknown-elf/lib/rv32imac/ilp32\libc.a(lib_a-svfprintf.o) (_localeconv_r)
f:/developsoft/rt-threadstudio/repo/extract/toolchain_support_packages/risc-v/risc-v-gcc/10.1.0/bin/../lib/gcc/riscv64-unknown-elf/10.1.0/../../../../riscv64-unknown-elf/lib/rv32imac/ilp32\libc.a(lib_a-locale.o)
                              f:/developsoft/rt-threadstudio/repo/extract/toolchain_support_packages/risc-v/risc-v-gcc/10.1.0/bin/../lib/gcc/riscv64-unknown-elf/10.1.0/../../../../riscv64-unknown-elf/lib/rv32imac/ilp32\libc.a(lib_a-fputwc.o) (__locale_mb_cur_max)
f:/developsoft/rt-threadstudio/repo/extract/toolchain_support_packages/risc-v/risc-v-gcc/10.1.0/bin/../lib/gcc/riscv64-unknown-elf/10.1.0/../../../../riscv64-unknown-elf/lib/rv32imac/ilp32\libc.a(lib_a-malloc.o)
                              f:/developsoft/rt-threadstudio/repo/extract/toolchain_support_packages/risc-v/risc-v-gcc/10.1.0/bin/../lib/gcc/riscv64-unknown-elf/10.1.0/../../../../riscv64-unknown-elf/lib/rv32imac/ilp32\libc.a(lib_a-setvbuf.o) (malloc)
f:/developsoft/rt-threadstudio/repo/extract/toolchain_support_packages/risc-v/risc-v-gcc/10.1.0/bin/../lib/gcc/riscv64-unknown-elf/10.1.0/../../../../riscv64-unknown-elf/lib/rv32imac/ilp32\libc.a(lib_a-mbtowc_r.o)
                              f:/developsoft/rt-threadstudio/repo/extract/toolchain_support_packages/risc-v/risc-v-gcc/10.1.0/bin/../lib/gcc/riscv64-unknown-elf/10.1.0/../../../../riscv64-unknown-elf/lib/rv32imac/ilp32\libc.a(lib_a-locale.o) (__ascii_mbtowc)
f:/developsoft/rt-threadstudio/repo/extract/toolchain_support_packages/risc-v/risc-v-gcc/10.1.0/bin/../lib/gcc/riscv64-unknown-elf/10.1.0/../../../../riscv64-unknown-elf/lib/rv32imac/ilp32\libc.a(lib_a-memchr.o)
                              f:/developsoft/rt-threadstudio/repo/extract/toolchain_support_packages/risc-v/risc-v-gcc/10.1.0/bin/../lib/gcc/riscv64-unknown-elf/10.1.0/../../../../riscv64-unknown-elf/lib/rv32imac/ilp32\libc.a(lib_a-svfprintf.o) (memchr)
f:/developsoft/rt-threadstudio/repo/extract/toolchain_support_packages/risc-v/risc-v-gcc/10.1.0/bin/../lib/gcc/riscv64-unknown-elf/10.1.0/../../../../riscv64-unknown-elf/lib/rv32imac/ilp32\libc.a(lib_a-memmove-stub.o)
                              f:/developsoft/rt-threadstudio/repo/extract/toolchain_support_packages/risc-v/risc-v-gcc/10.1.0/bin/../lib/gcc/riscv64-unknown-elf/10.1.0/../../../../riscv64-unknown-elf/lib/rv32imac/ilp32\libc.a(lib_a-fvwrite.o) (memmove)
f:/developsoft/rt-threadstudio/repo/extract/toolchain_support_packages/risc-v/risc-v-gcc/10.1.0/bin/../lib/gcc/riscv64-unknown-elf/10.1.0/../../../../riscv64-unknown-elf/lib/rv32imac/ilp32\libc.a(lib_a-mprec.o)
                              f:/developsoft/rt-threadstudio/repo/extract/toolchain_support_packages/risc-v/risc-v-gcc/10.1.0/bin/../lib/gcc/riscv64-unknown-elf/10.1.0/../../../../riscv64-unknown-elf/lib/rv32imac/ilp32\libc.a(lib_a-ldtoa.o) (_Balloc)
f:/developsoft/rt-threadstudio/repo/extract/toolchain_support_packages/risc-v/risc-v-gcc/10.1.0/bin/../lib/gcc/riscv64-unknown-elf/10.1.0/../../../../riscv64-unknown-elf/lib/rv32imac/ilp32\libc.a(lib_a-s_frexp.o)
                              f:/developsoft/rt-threadstudio/repo/extract/toolchain_support_packages/risc-v/risc-v-gcc/10.1.0/bin/../lib/gcc/riscv64-unknown-elf/10.1.0/../../../../riscv64-unknown-elf/lib/rv32imac/ilp32\libc.a(lib_a-svfprintf.o) (frexp)
f:/developsoft/rt-threadstudio/repo/extract/toolchain_support_packages/risc-v/risc-v-gcc/10.1.0/bin/../lib/gcc/riscv64-unknown-elf/10.1.0/../../../../riscv64-unknown-elf/lib/rv32imac/ilp32\libc.a(lib_a-signal.o)
                              f:/developsoft/rt-threadstudio/repo/extract/toolchain_support_packages/risc-v/risc-v-gcc/10.1.0/bin/../lib/gcc/riscv64-unknown-elf/10.1.0/../../../../riscv64-unknown-elf/lib/rv32imac/ilp32\libc.a(lib_a-abort.o) (raise)
f:/developsoft/rt-threadstudio/repo/extract/toolchain_support_packages/risc-v/risc-v-gcc/10.1.0/bin/../lib/gcc/riscv64-unknown-elf/10.1.0/../../../../riscv64-unknown-elf/lib/rv32imac/ilp32\libc.a(lib_a-sprintf.o)
                              f:/developsoft/rt-threadstudio/repo/extract/toolchain_support_packages/risc-v/risc-v-gcc/10.1.0/bin/../lib/gcc/riscv64-unknown-elf/10.1.0/../../../../riscv64-unknown-elf/lib/rv32imac/ilp32\libc.a(lib_a-ldtoa.o) (sprintf)
f:/developsoft/rt-threadstudio/repo/extract/toolchain_support_packages/risc-v/risc-v-gcc/10.1.0/bin/../lib/gcc/riscv64-unknown-elf/10.1.0/../../../../riscv64-unknown-elf/lib/rv32imac/ilp32\libc.a(lib_a-strcmp.o)
                              f:/developsoft/rt-threadstudio/repo/extract/toolchain_support_packages/risc-v/risc-v-gcc/10.1.0/bin/../lib/gcc/riscv64-unknown-elf/10.1.0/../../../../riscv64-unknown-elf/lib/rv32imac/ilp32\libc.a(lib_a-locale.o) (strcmp)
f:/developsoft/rt-threadstudio/repo/extract/toolchain_support_packages/risc-v/risc-v-gcc/10.1.0/bin/../lib/gcc/riscv64-unknown-elf/10.1.0/../../../../riscv64-unknown-elf/lib/rv32imac/ilp32\libc.a(lib_a-svfiprintf.o)
                              f:/developsoft/rt-threadstudio/repo/extract/toolchain_support_packages/risc-v/risc-v-gcc/10.1.0/bin/../lib/gcc/riscv64-unknown-elf/10.1.0/../../../../riscv64-unknown-elf/lib/rv32imac/ilp32\libc.a(lib_a-svfprintf.o) (__ssprint_r)
f:/developsoft/rt-threadstudio/repo/extract/toolchain_support_packages/risc-v/risc-v-gcc/10.1.0/bin/../lib/gcc/riscv64-unknown-elf/10.1.0/../../../../riscv64-unknown-elf/lib/rv32imac/ilp32\libc.a(lib_a-wbuf.o)
                              f:/developsoft/rt-threadstudio/repo/extract/toolchain_support_packages/risc-v/risc-v-gcc/10.1.0/bin/../lib/gcc/riscv64-unknown-elf/10.1.0/../../../../riscv64-unknown-elf/lib/rv32imac/ilp32\libc.a(lib_a-fputwc.o) (__swbuf_r)
f:/developsoft/rt-threadstudio/repo/extract/toolchain_support_packages/risc-v/risc-v-gcc/10.1.0/bin/../lib/gcc/riscv64-unknown-elf/10.1.0/../../../../riscv64-unknown-elf/lib/rv32imac/ilp32\libc.a(lib_a-wcrtomb.o)
                              f:/developsoft/rt-threadstudio/repo/extract/toolchain_support_packages/risc-v/risc-v-gcc/10.1.0/bin/../lib/gcc/riscv64-unknown-elf/10.1.0/../../../../riscv64-unknown-elf/lib/rv32imac/ilp32\libc.a(lib_a-fputwc.o) (_wcrtomb_r)
f:/developsoft/rt-threadstudio/repo/extract/toolchain_support_packages/risc-v/risc-v-gcc/10.1.0/bin/../lib/gcc/riscv64-unknown-elf/10.1.0/../../../../riscv64-unknown-elf/lib/rv32imac/ilp32\libc.a(lib_a-wctomb_r.o)
                              f:/developsoft/rt-threadstudio/repo/extract/toolchain_support_packages/risc-v/risc-v-gcc/10.1.0/bin/../lib/gcc/riscv64-unknown-elf/10.1.0/../../../../riscv64-unknown-elf/lib/rv32imac/ilp32\libc.a(lib_a-locale.o) (__ascii_wctomb)
f:/developsoft/rt-threadstudio/repo/extract/toolchain_support_packages/risc-v/risc-v-gcc/10.1.0/bin/../lib/gcc/riscv64-unknown-elf/10.1.0/rv32imac/ilp32\libgcc.a(_divdi3.o)
                              ./rt-thread/components/libc/compilers/common/time.o (__divdi3)
f:/developsoft/rt-threadstudio/repo/extract/toolchain_support_packages/risc-v/risc-v-gcc/10.1.0/bin/../lib/gcc/riscv64-unknown-elf/10.1.0/rv32imac/ilp32\libgcc.a(_moddi3.o)
                              ./rt-thread/components/libc/compilers/common/time.o (__moddi3)
f:/developsoft/rt-threadstudio/repo/extract/toolchain_support_packages/risc-v/risc-v-gcc/10.1.0/bin/../lib/gcc/riscv64-unknown-elf/10.1.0/rv32imac/ilp32\libgcc.a(_udivdi3.o)
                              ./rt-thread/src/kservice.o (__udivdi3)
f:/developsoft/rt-threadstudio/repo/extract/toolchain_support_packages/risc-v/risc-v-gcc/10.1.0/bin/../lib/gcc/riscv64-unknown-elf/10.1.0/rv32imac/ilp32\libgcc.a(_umoddi3.o)
                              ./rt-thread/src/kservice.o (__umoddi3)
f:/developsoft/rt-threadstudio/repo/extract/toolchain_support_packages/risc-v/risc-v-gcc/10.1.0/bin/../lib/gcc/riscv64-unknown-elf/10.1.0/rv32imac/ilp32\libgcc.a(adddf3.o)
                              ./libraries/hpm_sdk/drivers/src/hpm_pllctl_drv.o (__adddf3)
f:/developsoft/rt-threadstudio/repo/extract/toolchain_support_packages/risc-v/risc-v-gcc/10.1.0/bin/../lib/gcc/riscv64-unknown-elf/10.1.0/rv32imac/ilp32\libgcc.a(divdf3.o)
                              ./libraries/hpm_sdk/drivers/src/hpm_pllctl_drv.o (__divdf3)
f:/developsoft/rt-threadstudio/repo/extract/toolchain_support_packages/risc-v/risc-v-gcc/10.1.0/bin/../lib/gcc/riscv64-unknown-elf/10.1.0/rv32imac/ilp32\libgcc.a(muldf3.o)
                              ./libraries/hpm_sdk/drivers/src/hpm_pllctl_drv.o (__muldf3)
f:/developsoft/rt-threadstudio/repo/extract/toolchain_support_packages/risc-v/risc-v-gcc/10.1.0/bin/../lib/gcc/riscv64-unknown-elf/10.1.0/rv32imac/ilp32\libgcc.a(subdf3.o)
                              ./libraries/hpm_sdk/drivers/src/hpm_pllctl_drv.o (__subdf3)
f:/developsoft/rt-threadstudio/repo/extract/toolchain_support_packages/risc-v/risc-v-gcc/10.1.0/bin/../lib/gcc/riscv64-unknown-elf/10.1.0/rv32imac/ilp32\libgcc.a(fixunsdfsi.o)
                              ./libraries/hpm_sdk/drivers/src/hpm_pllctl_drv.o (__fixunsdfsi)
f:/developsoft/rt-threadstudio/repo/extract/toolchain_support_packages/risc-v/risc-v-gcc/10.1.0/bin/../lib/gcc/riscv64-unknown-elf/10.1.0/rv32imac/ilp32\libgcc.a(floatunsidf.o)
                              ./libraries/hpm_sdk/drivers/src/hpm_pllctl_drv.o (__floatunsidf)
f:/developsoft/rt-threadstudio/repo/extract/toolchain_support_packages/risc-v/risc-v-gcc/10.1.0/bin/../lib/gcc/riscv64-unknown-elf/10.1.0/rv32imac/ilp32\libgcc.a(eqtf2.o)
                              f:/developsoft/rt-threadstudio/repo/extract/toolchain_support_packages/risc-v/risc-v-gcc/10.1.0/bin/../lib/gcc/riscv64-unknown-elf/10.1.0/../../../../riscv64-unknown-elf/lib/rv32imac/ilp32\libc.a(lib_a-svfprintf.o) (__eqtf2)
f:/developsoft/rt-threadstudio/repo/extract/toolchain_support_packages/risc-v/risc-v-gcc/10.1.0/bin/../lib/gcc/riscv64-unknown-elf/10.1.0/rv32imac/ilp32\libgcc.a(getf2.o)
                              f:/developsoft/rt-threadstudio/repo/extract/toolchain_support_packages/risc-v/risc-v-gcc/10.1.0/bin/../lib/gcc/riscv64-unknown-elf/10.1.0/../../../../riscv64-unknown-elf/lib/rv32imac/ilp32\libc.a(lib_a-svfprintf.o) (__gttf2)
f:/developsoft/rt-threadstudio/repo/extract/toolchain_support_packages/risc-v/risc-v-gcc/10.1.0/bin/../lib/gcc/riscv64-unknown-elf/10.1.0/rv32imac/ilp32\libgcc.a(letf2.o)
                              f:/developsoft/rt-threadstudio/repo/extract/toolchain_support_packages/risc-v/risc-v-gcc/10.1.0/bin/../lib/gcc/riscv64-unknown-elf/10.1.0/../../../../riscv64-unknown-elf/lib/rv32imac/ilp32\libc.a(lib_a-svfprintf.o) (__lttf2)
f:/developsoft/rt-threadstudio/repo/extract/toolchain_support_packages/risc-v/risc-v-gcc/10.1.0/bin/../lib/gcc/riscv64-unknown-elf/10.1.0/rv32imac/ilp32\libgcc.a(multf3.o)
                              f:/developsoft/rt-threadstudio/repo/extract/toolchain_support_packages/risc-v/risc-v-gcc/10.1.0/bin/../lib/gcc/riscv64-unknown-elf/10.1.0/../../../../riscv64-unknown-elf/lib/rv32imac/ilp32\libc.a(lib_a-svfprintf.o) (__multf3)
f:/developsoft/rt-threadstudio/repo/extract/toolchain_support_packages/risc-v/risc-v-gcc/10.1.0/bin/../lib/gcc/riscv64-unknown-elf/10.1.0/rv32imac/ilp32\libgcc.a(subtf3.o)
                              f:/developsoft/rt-threadstudio/repo/extract/toolchain_support_packages/risc-v/risc-v-gcc/10.1.0/bin/../lib/gcc/riscv64-unknown-elf/10.1.0/../../../../riscv64-unknown-elf/lib/rv32imac/ilp32\libc.a(lib_a-svfprintf.o) (__subtf3)
f:/developsoft/rt-threadstudio/repo/extract/toolchain_support_packages/risc-v/risc-v-gcc/10.1.0/bin/../lib/gcc/riscv64-unknown-elf/10.1.0/rv32imac/ilp32\libgcc.a(fixtfsi.o)
                              f:/developsoft/rt-threadstudio/repo/extract/toolchain_support_packages/risc-v/risc-v-gcc/10.1.0/bin/../lib/gcc/riscv64-unknown-elf/10.1.0/../../../../riscv64-unknown-elf/lib/rv32imac/ilp32\libc.a(lib_a-svfprintf.o) (__fixtfsi)
f:/developsoft/rt-threadstudio/repo/extract/toolchain_support_packages/risc-v/risc-v-gcc/10.1.0/bin/../lib/gcc/riscv64-unknown-elf/10.1.0/rv32imac/ilp32\libgcc.a(floatsitf.o)
                              f:/developsoft/rt-threadstudio/repo/extract/toolchain_support_packages/risc-v/risc-v-gcc/10.1.0/bin/../lib/gcc/riscv64-unknown-elf/10.1.0/../../../../riscv64-unknown-elf/lib/rv32imac/ilp32\libc.a(lib_a-svfprintf.o) (__floatsitf)
f:/developsoft/rt-threadstudio/repo/extract/toolchain_support_packages/risc-v/risc-v-gcc/10.1.0/bin/../lib/gcc/riscv64-unknown-elf/10.1.0/rv32imac/ilp32\libgcc.a(extenddftf2.o)
                              f:/developsoft/rt-threadstudio/repo/extract/toolchain_support_packages/risc-v/risc-v-gcc/10.1.0/bin/../lib/gcc/riscv64-unknown-elf/10.1.0/../../../../riscv64-unknown-elf/lib/rv32imac/ilp32\libc.a(lib_a-svfprintf.o) (__extenddftf2)
f:/developsoft/rt-threadstudio/repo/extract/toolchain_support_packages/risc-v/risc-v-gcc/10.1.0/bin/../lib/gcc/riscv64-unknown-elf/10.1.0/rv32imac/ilp32\libgcc.a(trunctfdf2.o)
                              f:/developsoft/rt-threadstudio/repo/extract/toolchain_support_packages/risc-v/risc-v-gcc/10.1.0/bin/../lib/gcc/riscv64-unknown-elf/10.1.0/../../../../riscv64-unknown-elf/lib/rv32imac/ilp32\libc.a(lib_a-svfprintf.o) (__trunctfdf2)
f:/developsoft/rt-threadstudio/repo/extract/toolchain_support_packages/risc-v/risc-v-gcc/10.1.0/bin/../lib/gcc/riscv64-unknown-elf/10.1.0/rv32imac/ilp32\libgcc.a(_clz.o)
                              f:/developsoft/rt-threadstudio/repo/extract/toolchain_support_packages/risc-v/risc-v-gcc/10.1.0/bin/../lib/gcc/riscv64-unknown-elf/10.1.0/rv32imac/ilp32\libgcc.a(_divdi3.o) (__clz_tab)
f:/developsoft/rt-threadstudio/repo/extract/toolchain_support_packages/risc-v/risc-v-gcc/10.1.0/bin/../lib/gcc/riscv64-unknown-elf/10.1.0/rv32imac/ilp32\libgcc.a(_clzsi2.o)
                              f:/developsoft/rt-threadstudio/repo/extract/toolchain_support_packages/risc-v/risc-v-gcc/10.1.0/bin/../lib/gcc/riscv64-unknown-elf/10.1.0/rv32imac/ilp32\libgcc.a(adddf3.o) (__clzsi2)

Discarded input sections

 .text          0x0000000000000000        0x0 ./startup/start.o
 .data          0x0000000000000000        0x0 ./startup/start.o
 .bss           0x0000000000000000        0x0 ./startup/start.o
 .group         0x0000000000000000        0xc ./startup/startup.o
 .group         0x0000000000000000        0xc ./startup/startup.o
 .group         0x0000000000000000        0xc ./startup/startup.o
 .group         0x0000000000000000        0xc ./startup/startup.o
 .group         0x0000000000000000        0xc ./startup/startup.o
 .group         0x0000000000000000        0xc ./startup/startup.o
 .group         0x0000000000000000        0xc ./startup/startup.o
 .group         0x0000000000000000        0xc ./startup/startup.o
 .group         0x0000000000000000        0xc ./startup/startup.o
 .group         0x0000000000000000        0xc ./startup/startup.o
 .group         0x0000000000000000        0xc ./startup/startup.o
 .group         0x0000000000000000        0xc ./startup/startup.o
 .group         0x0000000000000000        0xc ./startup/startup.o
 .group         0x0000000000000000        0xc ./startup/startup.o
 .group         0x0000000000000000        0xc ./startup/startup.o
Memory Configuration

Name             Origin             Length             Attributes
XPI0             0x0000000080000000 0x0000000001000000 xr
ILM              0x0000000000000000 0x0000000000040000 xw
DLM              0x0000000000080000 0x0000000000040000 w
AXI_SRAM         0x0000000001080000 0x0000000000180000 xw
SDRAM            0x0000000040000000 0x0000000000c00000 xw
SDRAM_NONCACHEABLE 0x0000000040c00000 0x0000000000400000 xw
*default*        0x0000000000000000 0xffffffffffffffff

Linker script and memory map

LOAD ./startup/start.o
LOAD ./startup/startup.o
LOAD ./startup/trap.o
LOAD ./rt-thread/src/clock.o
LOAD ./rt-thread/src/components.o
LOAD ./rt-thread/src/device.o
LOAD ./rt-thread/src/idle.o
LOAD ./rt-thread/src/ipc.o
LOAD ./rt-thread/src/irq.o
LOAD ./rt-thread/src/kservice.o
LOAD ./rt-thread/src/mem.o
LOAD ./rt-thread/src/mempool.o
LOAD ./rt-thread/src/object.o
LOAD ./rt-thread/src/scheduler.o
LOAD ./rt-thread/src/thread.o
LOAD ./rt-thread/src/timer.o
LOAD ./rt-thread/libcpu/risc-v/d45/trap_entry.o
LOAD ./rt-thread/libcpu/risc-v/common/context_gcc.o
LOAD ./rt-thread/libcpu/risc-v/common/cpuport.o
LOAD ./rt-thread/components/libc/compilers/gcc/newlib/libc.o
LOAD ./rt-thread/components/libc/compilers/gcc/newlib/stdio.o
LOAD ./rt-thread/components/libc/compilers/gcc/newlib/syscalls.o
LOAD ./rt-thread/components/libc/compilers/common/stdlib.o
LOAD ./rt-thread/components/libc/compilers/common/time.o
LOAD ./rt-thread/components/finsh/cmd.o
LOAD ./rt-thread/components/finsh/msh.o
LOAD ./rt-thread/components/finsh/shell.o
LOAD ./rt-thread/components/drivers/src/completion.o
LOAD ./rt-thread/components/drivers/src/dataqueue.o
LOAD ./rt-thread/components/drivers/src/pipe.o
LOAD ./rt-thread/components/drivers/src/ringblk_buf.o
LOAD ./rt-thread/components/drivers/src/ringbuffer.o
LOAD ./rt-thread/components/drivers/src/waitqueue.o
LOAD ./rt-thread/components/drivers/src/workqueue.o
LOAD ./rt-thread/components/drivers/spi/spi_core.o
LOAD ./rt-thread/components/drivers/spi/spi_dev.o
LOAD ./rt-thread/components/drivers/serial/serial.o
LOAD ./rt-thread/components/drivers/rtc/rtc.o
LOAD ./rt-thread/components/drivers/misc/pin.o
LOAD ./libraries/hpm_sdk/soc/HPM6750/boot/hpm_bootheader.o
LOAD ./libraries/hpm_sdk/soc/HPM6750/hpm_clock_drv.o
LOAD ./libraries/hpm_sdk/soc/HPM6750/hpm_l1c_drv.o
LOAD ./libraries/hpm_sdk/soc/HPM6750/hpm_sysctl_drv.o
LOAD ./libraries/hpm_sdk/soc/HPM6750/system.o
LOAD ./libraries/hpm_sdk/drivers/src/hpm_dma_drv.o
LOAD ./libraries/hpm_sdk/drivers/src/hpm_dram_drv.o
LOAD ./libraries/hpm_sdk/drivers/src/hpm_gpio_drv.o
LOAD ./libraries/hpm_sdk/drivers/src/hpm_pllctl_drv.o
LOAD ./libraries/hpm_sdk/drivers/src/hpm_pmp_drv.o
LOAD ./libraries/hpm_sdk/drivers/src/hpm_rtc_drv.o
LOAD ./libraries/hpm_sdk/drivers/src/hpm_spi_drv.o
LOAD ./libraries/hpm_sdk/drivers/src/hpm_uart_drv.o
LOAD ./libraries/hpm_sdk/components/debug_console/hpm_debug_console.o
LOAD ./libraries/drivers/drv_gpio.o
LOAD ./libraries/drivers/drv_rtc.o
LOAD ./libraries/drivers/drv_spi.o
LOAD ./libraries/drivers/drv_uart.o
LOAD ./board/board.o
LOAD ./board/eth_phy_port.o
LOAD ./board/fal_flash_port.o
LOAD ./board/pinmux.o
LOAD ./board/rtt_board.o
LOAD ./board/rw007_port.o
LOAD ./applications/main.o
LOAD f:/developsoft/rt-threadstudio/repo/extract/toolchain_support_packages/risc-v/risc-v-gcc/10.1.0/bin/../lib/gcc/riscv64-unknown-elf/10.1.0/../../../../riscv64-unknown-elf/lib/rv32imac/ilp32\libc.a
LOAD f:/developsoft/rt-threadstudio/repo/extract/toolchain_support_packages/risc-v/risc-v-gcc/10.1.0/bin/../lib/gcc/riscv64-unknown-elf/10.1.0/../../../../riscv64-unknown-elf/lib/rv32imac/ilp32\libm.a
LOAD f:/developsoft/rt-threadstudio/repo/extract/toolchain_support_packages/risc-v/risc-v-gcc/10.1.0/bin/../lib/gcc/riscv64-unknown-elf/10.1.0/../../../../riscv64-unknown-elf/lib/rv32imac/ilp32\libm.a
LOAD f:/developsoft/rt-threadstudio/repo/extract/toolchain_support_packages/risc-v/risc-v-gcc/10.1.0/bin/../lib/gcc/riscv64-unknown-elf/10.1.0/../../../../riscv64-unknown-elf/lib/rv32imac/ilp32\libc.a
LOAD f:/developsoft/rt-threadstudio/repo/extract/toolchain_support_packages/risc-v/risc-v-gcc/10.1.0/bin/../lib/gcc/riscv64-unknown-elf/10.1.0/rv32imac/ilp32\libgcc.a
START GROUP
LOAD f:/developsoft/rt-threadstudio/repo/extract/toolchain_support_packages/risc-v/risc-v-gcc/10.1.0/bin/../lib/gcc/riscv64-unknown-elf/10.1.0/../../../../riscv64-unknown-elf/lib/rv32imac/ilp32\libc.a
END GROUP
LOAD f:/developsoft/rt-threadstudio/repo/extract/toolchain_support_packages/risc-v/risc-v-gcc/10.1.0/bin/../lib/gcc/riscv64-unknown-elf/10.1.0/rv32imac/ilp32\libgcc.a
START GROUP
LOAD f:/developsoft/rt-threadstudio/repo/extract/toolchain_support_packages/risc-v/risc-v-gcc/10.1.0/bin/../lib/gcc/riscv64-unknown-elf/10.1.0/rv32imac/ilp32\libgcc.a
LOAD f:/developsoft/rt-threadstudio/repo/extract/toolchain_support_packages/risc-v/risc-v-gcc/10.1.0/bin/../lib/gcc/riscv64-unknown-elf/10.1.0/../../../../riscv64-unknown-elf/lib/rv32imac/ilp32\libc.a
LOAD f:/developsoft/rt-threadstudio/repo/extract/toolchain_support_packages/risc-v/risc-v-gcc/10.1.0/bin/../lib/gcc/riscv64-unknown-elf/10.1.0/../../../../riscv64-unknown-elf/lib/rv32imac/ilp32\libnosys.a
END GROUP
                0x0000000000004000                STACK_SIZE = DEFINED (_stack_size)?_stack_size:0x4000
                0x0000000000100000                HEAP_SIZE = DEFINED (_heap_size)?_heap_size:0x100000
                0x0000000001000000                FLASH_SIZE = DEFINED (_flash_size)?_flash_size:0x1000000
                0x0000000001000000                SDRAM_SIZE = DEFINED (_sdram_size)?_sdram_size:0x1000000
                0x0000000000400000                NONCACHEABLE_SIZE = DEFINED (_noncacheable_size)?_noncacheable_size:0x400000
                0x0000000080000400                __nor_cfg_option_load_addr__ = (ORIGIN (XPI0) + 0x400)
                0x0000000080001000                __boot_header_load_addr__ = (ORIGIN (XPI0) + 0x1000)
                0x0000000080003000                __app_load_addr__ = (ORIGIN (XPI0) + 0x3000)
                0x0000000000000090                __boot_header_length__ = (__boot_header_end__ - __boot_header_start__)
                0x0000000000002000                __app_offset__ = (__app_load_addr__ - __boot_header_load_addr__)

.nor_cfg_option
                0x0000000080000400       0x10
 *(.nor_cfg_option)
 .nor_cfg_option
                0x0000000080000400       0x10 ./board/board.o
                0x0000000080000400                option

.boot_header    0x0000000080001000       0x90
                0x0000000080001000                __boot_header_start__ = .
 *(.boot_header)
 .boot_header   0x0000000080001000       0x10 ./libraries/hpm_sdk/soc/HPM6750/boot/hpm_bootheader.o
                0x0000000080001000                header
 *(.fw_info_table)
 .fw_info_table
                0x0000000080001010       0x80 ./libraries/hpm_sdk/soc/HPM6750/boot/hpm_bootheader.o
                0x0000000080001010                fw_info
 *(.dc_info)
                0x0000000080001090                __boot_header_end__ = .

.start          0x0000000080003000       0x36
                0x0000000080003000                . = ALIGN (0x8)
 *(.start)
 .start         0x0000000080003000       0x36 ./startup/start.o
                0x0000000080003000                _start
                0x0000000080003032                nmi_handler
                0x0000000080003034                default_isr_109
                0x0000000080003034                default_isr_17
                0x0000000080003034                default_isr_112
                0x0000000080003034                default_isr_61
                0x0000000080003034                default_isr_93
                0x0000000080003034                default_isr_127
                0x0000000080003034                default_isr_35
                0x0000000080003034                default_isr_41
                0x0000000080003034                default_isr_97
                0x0000000080003034                default_isr_66
                0x0000000080003034                default_isr_23
                0x0000000080003034                default_isr_90
                0x0000000080003034                default_isr_124
                0x0000000080003034                default_isr_68
                0x0000000080003034                default_isr_25
                0x0000000080003034                default_isr_76
                0x0000000080003034                default_isr_96
                0x0000000080003034                default_isr_53
                0x0000000080003034                default_isr_27
                0x0000000080003034                default_isr_117
                0x0000000080003034                default_isr_101
                0x0000000080003034                default_isr_71
                0x0000000080003034                default_isr_120
                0x0000000080003034                default_isr_123
                0x0000000080003034                default_isr_38
                0x0000000080003034                default_isr_73
                0x0000000080003034                default_isr_63
                0x0000000080003034                default_isr_20
                0x0000000080003034                default_isr_13
                0x0000000080003034                default_isr_125
                0x0000000080003034                default_isr_40
                0x0000000080003034                default_isr_58
                0x0000000080003034                default_isr_113
                0x0000000080003034                default_isr_85
                0x0000000080003034                default_isr_10
                0x0000000080003034                default_isr_55
                0x0000000080003034                default_isr_46
                0x0000000080003034                default_isr_75
                0x0000000080003034                default_isr_30
                0x0000000080003034                default_isr_86
                0x0000000080003034                default_isr_48
                0x0000000080003034                default_isr_78
                0x0000000080003034                default_isr_33
                0x0000000080003034                default_isr_100
                0x0000000080003034                default_isr_16
                0x0000000080003034                default_isr_105
                0x0000000080003034                default_isr_99
                0x0000000080003034                default_isr_28
                0x0000000080003034                default_isr_62
                0x0000000080003034                default_isr_91
                0x0000000080003034                default_isr_121
                0x0000000080003034                default_isr_83
                0x0000000080003034                default_isr_98
                0x0000000080003034                default_isr_52
                0x0000000080003034                default_isr_50
                0x0000000080003034                default_isr_69
                0x0000000080003034                default_isr_26
                0x0000000080003034                default_isr_108
                0x0000000080003034                default_isr_88
                0x0000000080003034                default_isr_118
                0x0000000080003034                default_isr_81
                0x0000000080003034                default_isr_77
                0x0000000080003034                default_isr_32
                0x0000000080003034                default_isr_70
                0x0000000080003034                default_isr_43
                0x0000000080003034                default_isr_11
                0x0000000080003034                default_isr_110
                0x0000000080003034                default_isr_56
                0x0000000080003034                default_irq_handler
                0x0000000080003034                default_isr_116
                0x0000000080003034                default_isr_119
                0x0000000080003034                default_isr_107
                0x0000000080003034                default_isr_49
                0x0000000080003034                default_isr_111
                0x0000000080003034                default_isr_84
                0x0000000080003034                default_isr_106
                0x0000000080003034                default_isr_72
                0x0000000080003034                default_isr_103
                0x0000000080003034                default_isr_74
                0x0000000080003034                default_isr_47
                0x0000000080003034                default_isr_122
                0x0000000080003034                default_isr_115
                0x0000000080003034                default_isr_18
                0x0000000080003034                default_isr_87
                0x0000000080003034                default_isr_65
                0x0000000080003034                default_isr_22
                0x0000000080003034                default_isr_42
                0x0000000080003034                default_isr_94
                0x0000000080003034                default_isr_79
                0x0000000080003034                default_isr_34
                0x0000000080003034                default_isr_36
                0x0000000080003034                default_isr_67
                0x0000000080003034                default_isr_24
                0x0000000080003034                default_isr_95
                0x0000000080003034                default_isr_19
                0x0000000080003034                default_isr_29
                0x0000000080003034                default_isr_114
                0x0000000080003034                default_isr_15
                0x0000000080003034                default_isr_51
                0x0000000080003034                default_isr_92
                0x0000000080003034                default_isr_126
                0x0000000080003034                default_isr_80
                0x0000000080003034                default_isr_37
                0x0000000080003034                default_isr_102
                0x0000000080003034                default_isr_39
                0x0000000080003034                default_isr_82
                0x0000000080003034                default_isr_89
                0x0000000080003034                default_isr_12
                0x0000000080003034                default_isr_44
                0x0000000080003034                default_isr_57
                0x0000000080003034                default_isr_64
                0x0000000080003034                default_isr_21
                0x0000000080003034                default_isr_14
                0x0000000080003034                default_isr_59
                0x0000000080003034                default_isr_54
                0x0000000080003034                default_isr_45
                0x0000000080003034                default_isr_104
                0x0000000080003036                __vector_load_addr__ = (ADDR (.start) + SIZEOF (.start))

.vectors        0x0000000001080000      0x808 load address 0x0000000080003036
                0x0000000001080000                . = ALIGN (0x8)
                0x0000000001080000                __vector_ram_start__ = .
 *(.vector_table)
 .vector_table  0x0000000001080000      0x200 ./startup/start.o
                0x0000000001080000                __vector_table
 *(.isr_vector)
 .isr_vector    0x0000000001080200      0x27a ./startup/trap.o
                0x0000000001080200                exception_handler
                0x00000000010802f4                trap_entry
 *fill*         0x000000000108047a        0x2 
 .isr_vector    0x000000000108047c       0xe6 ./rt-thread/libcpu/risc-v/d45/trap_entry.o
                0x000000000108047c                irq_handler_trap
 .isr_vector    0x0000000001080562      0x1d4 ./libraries/drivers/drv_gpio.o
                0x0000000001080562                gpioa_isr
                0x0000000001080582                default_isr_1
                0x0000000001080596                gpiob_isr
                0x00000000010805b6                default_isr_2
                0x00000000010805ca                gpioc_isr
                0x00000000010805ea                default_isr_3
                0x00000000010805fe                gpiod_isr
                0x000000000108061e                default_isr_4
                0x0000000001080632                gpioe_isr
                0x0000000001080652                default_isr_5
                0x0000000001080666                gpiof_isr
                0x0000000001080686                default_isr_6
                0x000000000108069a                gpiox_isr
                0x00000000010806ba                default_isr_7
                0x00000000010806ce                gpioy_isr
                0x00000000010806ee                default_isr_8
                0x0000000001080702                gpioz_isr
                0x0000000001080722                default_isr_9
 .isr_vector    0x0000000001080736       0x36 ./libraries/drivers/drv_uart.o
                0x0000000001080736                uart0_isr
                0x0000000001080758                default_isr_31
 .isr_vector    0x000000000108076c       0x50 ./board/board.o
                0x000000000108076c                board_timer_isr
                0x00000000010807a8                default_isr_60
 .isr_vector    0x00000000010807bc       0x4c ./board/rtt_board.o
                0x00000000010807bc                mchtmr_isr
                0x0000000001080808                . = ALIGN (0x8)
 *fill*         0x0000000001080808        0x0 
                0x0000000001080808                __vector_ram_end__ = .

.fast           0x0000000001080808     0x74d0 load address 0x000000008001ea6c
                0x0000000001080808                . = ALIGN (0x8)
                0x0000000001080808                __ramfunc_start__ = .
 *(.fast)
 *context_gcc.o(.text* .rodata*)
 .text          0x0000000001080808       0xc4 ./rt-thread/libcpu/risc-v/common/context_gcc.o
                0x0000000001080808                rt_hw_interrupt_disable
                0x000000000108080e                rt_hw_interrupt_enable
                0x0000000001080814                rt_hw_context_switch_to
                0x0000000001080820                rt_hw_context_switch
                0x0000000001080876                rt_hw_context_switch_exit
 *cpuport.o(.text .text* .rodata .rodata*)
 .text          0x00000000010808cc        0x0 ./rt-thread/libcpu/risc-v/common/cpuport.o
 .text.rt_hw_stack_init
                0x00000000010808cc       0xa4 ./rt-thread/libcpu/risc-v/common/cpuport.o
                0x00000000010808cc                rt_hw_stack_init
 .text.rt_hw_context_switch_interrupt
                0x0000000001080970       0x42 ./rt-thread/libcpu/risc-v/common/cpuport.o
                0x0000000001080970                rt_hw_context_switch_interrupt
 *fill*         0x00000000010809b2        0x2 
 .rodata        0x00000000010809b4        0xd ./rt-thread/libcpu/risc-v/common/cpuport.o
 *fill*         0x00000000010809c1        0x1 
 .text.rt_hw_cpu_shutdown
                0x00000000010809c2       0x2e ./rt-thread/libcpu/risc-v/common/cpuport.o
                0x00000000010809c2                rt_hw_cpu_shutdown
 *irq.o(.text .text* .rodata .rodata*)
 .text          0x00000000010809f0        0x0 ./rt-thread/src/irq.o
 .text.rt_interrupt_enter_sethook
                0x00000000010809f0       0x1e ./rt-thread/src/irq.o
                0x00000000010809f0                rt_interrupt_enter_sethook
 .text.rt_interrupt_leave_sethook
                0x0000000001080a0e       0x1e ./rt-thread/src/irq.o
                0x0000000001080a0e                rt_interrupt_leave_sethook
 .text.rt_interrupt_enter
                0x0000000001080a2c       0x4c ./rt-thread/src/irq.o
                0x0000000001080a2c                rt_interrupt_enter
 .text.rt_interrupt_leave
                0x0000000001080a78       0x4c ./rt-thread/src/irq.o
                0x0000000001080a78                rt_interrupt_leave
 .text.rt_interrupt_get_nest
                0x0000000001080ac4       0x2e ./rt-thread/src/irq.o
                0x0000000001080ac4                rt_interrupt_get_nest
 *clock.o(.text .text* .rodata .rodata*)
 .text          0x0000000001080af2        0x0 ./rt-thread/src/clock.o
 .text.rt_tick_get
                0x0000000001080af2       0x16 ./rt-thread/src/clock.o
                0x0000000001080af2                rt_tick_get
 .text.rt_tick_set
                0x0000000001080b08       0x2e ./rt-thread/src/clock.o
                0x0000000001080b08                rt_tick_set
 .text.rt_tick_increase
                0x0000000001080b36       0x86 ./rt-thread/src/clock.o
                0x0000000001080b36                rt_tick_increase
 .text.rt_tick_from_millisecond
                0x0000000001080bbc       0x6a ./rt-thread/src/clock.o
                0x0000000001080bbc                rt_tick_from_millisecond
 .text.rt_tick_get_millisecond
                0x0000000001080c26       0x16 ./rt-thread/src/clock.o
                0x0000000001080c26                rt_tick_get_millisecond
 *kservice.o(.text .text* .rodata .rodata*)
 .text          0x0000000001080c3c        0x0 ./rt-thread/src/kservice.o
 .text.rt_get_errno
                0x0000000001080c3c       0x40 ./rt-thread/src/kservice.o
                0x0000000001080c3c                rt_get_errno
 .text.rt_set_errno
                0x0000000001080c7c       0x4e ./rt-thread/src/kservice.o
                0x0000000001080c7c                rt_set_errno
 .text._rt_errno
                0x0000000001080cca       0x42 ./rt-thread/src/kservice.o
                0x0000000001080cca                _rt_errno
 .text.rt_memset
                0x0000000001080d0c      0x122 ./rt-thread/src/kservice.o
                0x0000000001080d0c                rt_memset
 .text.rt_memcpy
                0x0000000001080e2e      0x156 ./rt-thread/src/kservice.o
                0x0000000001080e2e                rt_memcpy
 .text.rt_memmove
                0x0000000001080f84       0xcc ./rt-thread/src/kservice.o
                0x0000000001080f84                rt_memmove
 .text.rt_memcmp
                0x0000000001081050       0x7c ./rt-thread/src/kservice.o
                0x0000000001081050                rt_memcmp
 .text.rt_strstr
                0x00000000010810cc       0x7c ./rt-thread/src/kservice.o
                0x00000000010810cc                rt_strstr
 .text.rt_strcasecmp
                0x0000000001081148       0xac ./rt-thread/src/kservice.o
                0x0000000001081148                rt_strcasecmp
 .text.rt_strncpy
                0x00000000010811f4       0x8e ./rt-thread/src/kservice.o
                0x00000000010811f4                rt_strncpy
 .text.rt_strncmp
                0x0000000001081282       0x76 ./rt-thread/src/kservice.o
                0x0000000001081282                rt_strncmp
 .text.rt_strcmp
                0x00000000010812f8       0x60 ./rt-thread/src/kservice.o
                0x00000000010812f8                rt_strcmp
 .text.rt_strlen
                0x0000000001081358       0x3c ./rt-thread/src/kservice.o
                0x0000000001081358                rt_strlen
 .text.rt_strnlen
                0x0000000001081394       0x56 ./rt-thread/src/kservice.o
                0x0000000001081394                rt_strnlen
 .text.rt_strdup
                0x00000000010813ea       0x4c ./rt-thread/src/kservice.o
                0x00000000010813ea                rt_strdup
 *fill*         0x0000000001081436        0x2 
 .rodata        0x0000000001081438       0x9f ./rt-thread/src/kservice.o
 *fill*         0x00000000010814d7        0x1 
 .text.rt_show_version
                0x00000000010814d8       0x58 ./rt-thread/src/kservice.o
                0x00000000010814d8                rt_show_version
 .text.divide   0x0000000001081530       0x9c ./rt-thread/src/kservice.o
 .text.skip_atoi
                0x00000000010815cc       0x56 ./rt-thread/src/kservice.o
 .text.print_number
                0x0000000001081622      0x2b0 ./rt-thread/src/kservice.o
 .text.rt_vsnprintf
                0x00000000010818d2      0x716 ./rt-thread/src/kservice.o
                0x00000000010818d2                rt_vsnprintf
 *fill*         0x0000000001081fe8        0x0 
 .rodata.rt_vsnprintf
                0x0000000001081fe8       0x84 ./rt-thread/src/kservice.o
 .text.rt_snprintf
                0x000000000108206c       0x5c ./rt-thread/src/kservice.o
                0x000000000108206c                rt_snprintf
 .text.rt_vsprintf
                0x00000000010820c8       0x32 ./rt-thread/src/kservice.o
                0x00000000010820c8                rt_vsprintf
 .text.rt_sprintf
                0x00000000010820fa       0x54 ./rt-thread/src/kservice.o
                0x00000000010820fa                rt_sprintf
 .text.rt_console_get_device
                0x000000000108214e       0x16 ./rt-thread/src/kservice.o
                0x000000000108214e                rt_console_get_device
 .text.rt_console_set_device
                0x0000000001082164       0x84 ./rt-thread/src/kservice.o
                0x0000000001082164                rt_console_set_device
 .text.rt_hw_console_output
                0x00000000010821e8       0x12 ./rt-thread/src/kservice.o
 .text.rt_kputs
                0x00000000010821fa       0x5e ./rt-thread/src/kservice.o
                0x00000000010821fa                rt_kputs
 .text.rt_kprintf
                0x0000000001082258       0xaa ./rt-thread/src/kservice.o
                0x0000000001082258                rt_kprintf
 .text.rt_malloc_align
                0x0000000001082302       0xc8 ./rt-thread/src/kservice.o
                0x0000000001082302                rt_malloc_align
 .text.rt_free_align
                0x00000000010823ca       0x2a ./rt-thread/src/kservice.o
                0x00000000010823ca                rt_free_align
 *fill*         0x00000000010823f4        0x0 
 .rodata.__lowest_bit_bitmap
                0x00000000010823f4      0x100 ./rt-thread/src/kservice.o
                0x00000000010823f4                __lowest_bit_bitmap
 .text.__rt_ffs
                0x00000000010824f4       0xa8 ./rt-thread/src/kservice.o
                0x00000000010824f4                __rt_ffs
 .rodata.large_digits.2
                0x000000000108259c       0x11 ./rt-thread/src/kservice.o
 *fill*         0x00000000010825ad        0x3 
 .rodata.small_digits.1
                0x00000000010825b0       0x11 ./rt-thread/src/kservice.o
 *scheduler.o(.text .text* .rodata .rodata*)
 *fill*         0x00000000010825c1        0x1 
 .text          0x00000000010825c2        0x0 ./rt-thread/src/scheduler.o
 .text.rt_list_init
                0x00000000010825c2       0x28 ./rt-thread/src/scheduler.o
 .text.rt_list_insert_before
                0x00000000010825ea       0x42 ./rt-thread/src/scheduler.o
 .text.rt_list_remove
                0x000000000108262c       0x44 ./rt-thread/src/scheduler.o
 .text.rt_list_isempty
                0x0000000001082670       0x28 ./rt-thread/src/scheduler.o
 .text.rt_scheduler_sethook
                0x0000000001082698       0x1e ./rt-thread/src/scheduler.o
                0x0000000001082698                rt_scheduler_sethook
 .text.rt_scheduler_switch_sethook
                0x00000000010826b6       0x1e ./rt-thread/src/scheduler.o
                0x00000000010826b6                rt_scheduler_switch_sethook
 .rodata        0x00000000010826d4       0x51 ./rt-thread/src/scheduler.o
 *fill*         0x0000000001082725        0x1 
 .text._rt_scheduler_stack_check
                0x0000000001082726       0xa0 ./rt-thread/src/scheduler.o
 .text._scheduler_get_highest_priority_thread
                0x00000000010827c6       0x4c ./rt-thread/src/scheduler.o
 .text.rt_system_scheduler_init
                0x0000000001082812       0x44 ./rt-thread/src/scheduler.o
                0x0000000001082812                rt_system_scheduler_init
 .text.rt_system_scheduler_start
                0x0000000001082856       0x3c ./rt-thread/src/scheduler.o
                0x0000000001082856                rt_system_scheduler_start
 .text.rt_schedule
                0x0000000001082892      0x208 ./rt-thread/src/scheduler.o
                0x0000000001082892                rt_schedule
 .text.rt_schedule_insert_thread
                0x0000000001082a9a       0xbe ./rt-thread/src/scheduler.o
                0x0000000001082a9a                rt_schedule_insert_thread
 .text.rt_schedule_remove_thread
                0x0000000001082b58       0x6a ./rt-thread/src/scheduler.o
                0x0000000001082b58                rt_schedule_remove_thread
 .text.rt_enter_critical
                0x0000000001082bc2       0x3e ./rt-thread/src/scheduler.o
                0x0000000001082bc2                rt_enter_critical
 .text.rt_exit_critical
                0x0000000001082c00       0x66 ./rt-thread/src/scheduler.o
                0x0000000001082c00                rt_exit_critical
 .text.rt_critical_level
                0x0000000001082c66       0x1a ./rt-thread/src/scheduler.o
                0x0000000001082c66                rt_critical_level
 *trap.o(.text .text* .rodata .rodata*)
 .text          0x0000000001082c80        0x0 ./startup/trap.o
 .text.mchtmr_isr
                0x0000000001082c80        0xe ./startup/trap.o
 .text.mswi_isr
                0x0000000001082c8e        0xe ./startup/trap.o
                0x0000000001082c8e                mswi_isr
 .text.syscall_handler
                0x0000000001082c9c       0x22 ./startup/trap.o
                0x0000000001082c9c                syscall_handler
 *fill*         0x0000000001082cbe        0x2 
 .rodata        0x0000000001082cc0      0x214 ./startup/trap.o
 *idle.o(.text .text* .rodata .rodata*)
 .text          0x0000000001082ed4        0x0 ./rt-thread/src/idle.o
 .text.rt_list_insert_after
                0x0000000001082ed4       0x42 ./rt-thread/src/idle.o
 .text.rt_list_remove
                0x0000000001082f16       0x44 ./rt-thread/src/idle.o
 .text.rt_thread_idle_sethook
                0x0000000001082f5a       0x7a ./rt-thread/src/idle.o
                0x0000000001082f5a                rt_thread_idle_sethook
 .text.rt_thread_idle_delhook
                0x0000000001082fd4       0x7e ./rt-thread/src/idle.o
                0x0000000001082fd4                rt_thread_idle_delhook
 .text.rt_thread_defunct_enqueue
                0x0000000001083052       0x24 ./rt-thread/src/idle.o
                0x0000000001083052                rt_thread_defunct_enqueue
 .text.rt_thread_defunct_dequeue
                0x0000000001083076       0x46 ./rt-thread/src/idle.o
                0x0000000001083076                rt_thread_defunct_dequeue
 .text.rt_defunct_execute
                0x00000000010830bc       0x9a ./rt-thread/src/idle.o
 .text.rt_thread_idle_entry
                0x0000000001083156       0x4c ./rt-thread/src/idle.o
 *fill*         0x00000000010831a2        0x2 
 .rodata        0x00000000010831a4        0x8 ./rt-thread/src/idle.o
 .text.rt_thread_idle_init
                0x00000000010831ac       0x9a ./rt-thread/src/idle.o
                0x00000000010831ac                rt_thread_idle_init
 .text.rt_thread_idle_gethandler
                0x0000000001083246       0x22 ./rt-thread/src/idle.o
                0x0000000001083246                rt_thread_idle_gethandler
 *ipc.o(.text .text* .rodata .rodata*)
 .text          0x0000000001083268        0x0 ./rt-thread/src/ipc.o
 .text.rt_list_init
                0x0000000001083268       0x28 ./rt-thread/src/ipc.o
 .text.rt_list_insert_before
                0x0000000001083290       0x42 ./rt-thread/src/ipc.o
 .text.rt_list_isempty
                0x00000000010832d2       0x28 ./rt-thread/src/ipc.o
 .text._ipc_object_init
                0x00000000010832fa       0x22 ./rt-thread/src/ipc.o
 .text._ipc_list_suspend
                0x000000000108331c       0xba ./rt-thread/src/ipc.o
 .text._ipc_list_resume
                0x00000000010833d6       0x2c ./rt-thread/src/ipc.o
 .text._ipc_list_resume_all
                0x0000000001083402       0x54 ./rt-thread/src/ipc.o
 .text.rt_sem_init
                0x0000000001083456       0x5c ./rt-thread/src/ipc.o
                0x0000000001083456                rt_sem_init
 .text.rt_sem_detach
                0x00000000010834b2       0x2c ./rt-thread/src/ipc.o
                0x00000000010834b2                rt_sem_detach
 .text.rt_sem_create
                0x00000000010834de       0x64 ./rt-thread/src/ipc.o
                0x00000000010834de                rt_sem_create
 .text.rt_sem_delete
                0x0000000001083542       0x2c ./rt-thread/src/ipc.o
                0x0000000001083542                rt_sem_delete
 .text.rt_sem_take
                0x000000000108356e      0x104 ./rt-thread/src/ipc.o
                0x000000000108356e                rt_sem_take
 .text.rt_sem_trytake
                0x0000000001083672       0x20 ./rt-thread/src/ipc.o
                0x0000000001083672                rt_sem_trytake
 .text.rt_sem_release
                0x0000000001083692       0xa2 ./rt-thread/src/ipc.o
                0x0000000001083692                rt_sem_release
 .text.rt_sem_control
                0x0000000001083734       0x6a ./rt-thread/src/ipc.o
                0x0000000001083734                rt_sem_control
 .text.rt_mutex_init
                0x000000000108379e       0x68 ./rt-thread/src/ipc.o
                0x000000000108379e                rt_mutex_init
 .text.rt_mutex_detach
                0x0000000001083806       0x2c ./rt-thread/src/ipc.o
                0x0000000001083806                rt_mutex_detach
 .text.rt_mutex_create
                0x0000000001083832       0x72 ./rt-thread/src/ipc.o
                0x0000000001083832                rt_mutex_create
 .text.rt_mutex_delete
                0x00000000010838a4       0x2c ./rt-thread/src/ipc.o
                0x00000000010838a4                rt_mutex_delete
 .text.rt_mutex_take
                0x00000000010838d0      0x1cc ./rt-thread/src/ipc.o
                0x00000000010838d0                rt_mutex_take
 .text.rt_mutex_trytake
                0x0000000001083a9c       0x20 ./rt-thread/src/ipc.o
                0x0000000001083a9c                rt_mutex_trytake
 .text.rt_mutex_release
                0x0000000001083abc      0x18a ./rt-thread/src/ipc.o
                0x0000000001083abc                rt_mutex_release
 .text.rt_mutex_control
                0x0000000001083c46       0x1c ./rt-thread/src/ipc.o
                0x0000000001083c46                rt_mutex_control
 .text.rt_event_init
                0x0000000001083c62       0x50 ./rt-thread/src/ipc.o
                0x0000000001083c62                rt_event_init
 .text.rt_event_detach
                0x0000000001083cb2       0x2e ./rt-thread/src/ipc.o
                0x0000000001083cb2                rt_event_detach
 .text.rt_event_create
                0x0000000001083ce0       0x58 ./rt-thread/src/ipc.o
                0x0000000001083ce0                rt_event_create
 .text.rt_event_delete
                0x0000000001083d38       0x2e ./rt-thread/src/ipc.o
                0x0000000001083d38                rt_event_delete
 .text.rt_event_send
                0x0000000001083d66      0x156 ./rt-thread/src/ipc.o
                0x0000000001083d66                rt_event_send
 .text.rt_event_recv
                0x0000000001083ebc      0x1d4 ./rt-thread/src/ipc.o
                0x0000000001083ebc                rt_event_recv
 .text.rt_event_control
                0x0000000001084090       0x5a ./rt-thread/src/ipc.o
                0x0000000001084090                rt_event_control
 .text.rt_mb_init
                0x00000000010840ea       0x92 ./rt-thread/src/ipc.o
                0x00000000010840ea                rt_mb_init
 .text.rt_mb_detach
                0x000000000108417c       0x3c ./rt-thread/src/ipc.o
                0x000000000108417c                rt_mb_detach
 .text.rt_mb_create
                0x00000000010841b8       0xba ./rt-thread/src/ipc.o
                0x00000000010841b8                rt_mb_create
 .text.rt_mb_delete
                0x0000000001084272       0x48 ./rt-thread/src/ipc.o
                0x0000000001084272                rt_mb_delete
 .text.rt_mb_send_wait
                0x00000000010842ba      0x208 ./rt-thread/src/ipc.o
                0x00000000010842ba                rt_mb_send_wait
 .text.rt_mb_send
                0x00000000010844c2       0x28 ./rt-thread/src/ipc.o
                0x00000000010844c2                rt_mb_send
 .text.rt_mb_urgent
                0x00000000010844ea      0x102 ./rt-thread/src/ipc.o
                0x00000000010844ea                rt_mb_urgent
 .text.rt_mb_recv
                0x00000000010845ec      0x226 ./rt-thread/src/ipc.o
                0x00000000010845ec                rt_mb_recv
 .text.rt_mb_control
                0x0000000001084812       0x78 ./rt-thread/src/ipc.o
                0x0000000001084812                rt_mb_control
 .text.rt_mq_init
                0x000000000108488a      0x10c ./rt-thread/src/ipc.o
                0x000000000108488a                rt_mq_init
 .text.rt_mq_detach
                0x0000000001084996       0x3c ./rt-thread/src/ipc.o
                0x0000000001084996                rt_mq_detach
 .text.rt_mq_create
                0x00000000010849d2      0x134 ./rt-thread/src/ipc.o
                0x00000000010849d2                rt_mq_create
 .text.rt_mq_delete
                0x0000000001084b06       0x48 ./rt-thread/src/ipc.o
                0x0000000001084b06                rt_mq_delete
 .text.rt_mq_send_wait
                0x0000000001084b4e      0x238 ./rt-thread/src/ipc.o
                0x0000000001084b4e                rt_mq_send_wait
 .text.rt_mq_send
                0x0000000001084d86       0x30 ./rt-thread/src/ipc.o
                0x0000000001084d86                rt_mq_send
 .text.rt_mq_urgent
                0x0000000001084db6      0x13a ./rt-thread/src/ipc.o
                0x0000000001084db6                rt_mq_urgent
 .text.rt_mq_recv
                0x0000000001084ef0      0x254 ./rt-thread/src/ipc.o
                0x0000000001084ef0                rt_mq_recv
 .text.rt_mq_control
                0x0000000001085144       0xb4 ./rt-thread/src/ipc.o
                0x0000000001085144                rt_mq_control
 *thread.o(.text .text* .rodata .rodata*)
 .text          0x00000000010851f8        0x0 ./rt-thread/src/thread.o
 .text.rt_list_init
                0x00000000010851f8       0x28 ./rt-thread/src/thread.o
 .text.rt_list_remove
                0x0000000001085220       0x44 ./rt-thread/src/thread.o
 .text.rt_thread_suspend_sethook
                0x0000000001085264       0x1e ./rt-thread/src/thread.o
                0x0000000001085264                rt_thread_suspend_sethook
 .text.rt_thread_resume_sethook
                0x0000000001085282       0x1e ./rt-thread/src/thread.o
                0x0000000001085282                rt_thread_resume_sethook
 .text.rt_thread_inited_sethook
                0x00000000010852a0       0x1e ./rt-thread/src/thread.o
                0x00000000010852a0                rt_thread_inited_sethook
 .text._thread_cleanup_execute
                0x00000000010852be       0x3a ./rt-thread/src/thread.o
 .text._thread_exit
                0x00000000010852f8       0x74 ./rt-thread/src/thread.o
 .text._thread_init
                0x000000000108536c      0x13e ./rt-thread/src/thread.o
 .text.rt_thread_init
                0x00000000010854aa       0x68 ./rt-thread/src/thread.o
                0x00000000010854aa                rt_thread_init
 .text.rt_thread_self
                0x0000000001085512       0x16 ./rt-thread/src/thread.o
                0x0000000001085512                rt_thread_self
 .text.rt_thread_startup
                0x0000000001085528       0x5a ./rt-thread/src/thread.o
                0x0000000001085528                rt_thread_startup
 .text.rt_thread_detach
                0x0000000001085582       0x94 ./rt-thread/src/thread.o
                0x0000000001085582                rt_thread_detach
 .text.rt_thread_create
                0x0000000001085616       0x8c ./rt-thread/src/thread.o
                0x0000000001085616                rt_thread_create
 .text.rt_thread_delete
                0x00000000010856a2       0x7a ./rt-thread/src/thread.o
                0x00000000010856a2                rt_thread_delete
 .text.rt_thread_yield
                0x000000000108571c       0x54 ./rt-thread/src/thread.o
                0x000000000108571c                rt_thread_yield
 .text.rt_thread_sleep
                0x0000000001085770       0x72 ./rt-thread/src/thread.o
                0x0000000001085770                rt_thread_sleep
 .text.rt_thread_delay
                0x00000000010857e2       0x1e ./rt-thread/src/thread.o
                0x00000000010857e2                rt_thread_delay
 .text.rt_thread_delay_until
                0x0000000001085800       0xca ./rt-thread/src/thread.o
                0x0000000001085800                rt_thread_delay_until
 .text.rt_thread_mdelay
                0x00000000010858ca       0x2c ./rt-thread/src/thread.o
                0x00000000010858ca                rt_thread_mdelay
 .text.rt_thread_control
                0x00000000010858f6      0x10c ./rt-thread/src/thread.o
                0x00000000010858f6                rt_thread_control
 .text.rt_thread_suspend
                0x0000000001085a02       0x98 ./rt-thread/src/thread.o
                0x0000000001085a02                rt_thread_suspend
 .text.rt_thread_resume
                0x0000000001085a9a       0x78 ./rt-thread/src/thread.o
                0x0000000001085a9a                rt_thread_resume
 .text.rt_thread_timeout
                0x0000000001085b12       0x4e ./rt-thread/src/thread.o
                0x0000000001085b12                rt_thread_timeout
 .text.rt_thread_find
                0x0000000001085b60       0x20 ./rt-thread/src/thread.o
                0x0000000001085b60                rt_thread_find
 *object.o(.text .text* .rodata .rodata*)
 .text          0x0000000001085b80        0x0 ./rt-thread/src/object.o
 .text.rt_list_insert_after
                0x0000000001085b80       0x42 ./rt-thread/src/object.o
 .text.rt_list_remove
                0x0000000001085bc2       0x44 ./rt-thread/src/object.o
 .text.rt_object_attach_sethook
                0x0000000001085c06       0x1e ./rt-thread/src/object.o
                0x0000000001085c06                rt_object_attach_sethook
 .text.rt_object_detach_sethook
                0x0000000001085c24       0x1e ./rt-thread/src/object.o
                0x0000000001085c24                rt_object_detach_sethook
 .text.rt_object_trytake_sethook
                0x0000000001085c42       0x1e ./rt-thread/src/object.o
                0x0000000001085c42                rt_object_trytake_sethook
 .text.rt_object_take_sethook
                0x0000000001085c60       0x1e ./rt-thread/src/object.o
                0x0000000001085c60                rt_object_take_sethook
 .text.rt_object_put_sethook
                0x0000000001085c7e       0x1e ./rt-thread/src/object.o
                0x0000000001085c7e                rt_object_put_sethook
 .text.rt_object_get_information
                0x0000000001085c9c       0x54 ./rt-thread/src/object.o
                0x0000000001085c9c                rt_object_get_information
 .text.rt_object_get_length
                0x0000000001085cf0       0x7c ./rt-thread/src/object.o
                0x0000000001085cf0                rt_object_get_length
 .text.rt_object_get_pointers
                0x0000000001085d6c       0xbe ./rt-thread/src/object.o
                0x0000000001085d6c                rt_object_get_pointers
 .text.rt_object_init
                0x0000000001085e2a       0xca ./rt-thread/src/object.o
                0x0000000001085e2a                rt_object_init
 .text.rt_object_detach
                0x0000000001085ef4       0x52 ./rt-thread/src/object.o
                0x0000000001085ef4                rt_object_detach
 .text.rt_object_allocate
                0x0000000001085f46       0xbc ./rt-thread/src/object.o
                0x0000000001085f46                rt_object_allocate
 .text.rt_object_delete
                0x0000000001086002       0x5a ./rt-thread/src/object.o
                0x0000000001086002                rt_object_delete
 .text.rt_object_is_systemobject
                0x000000000108605c       0x28 ./rt-thread/src/object.o
                0x000000000108605c                rt_object_is_systemobject
 .text.rt_object_get_type
                0x0000000001086084       0x22 ./rt-thread/src/object.o
                0x0000000001086084                rt_object_get_type
 .text.rt_object_find
                0x00000000010860a6       0x9c ./rt-thread/src/object.o
                0x00000000010860a6                rt_object_find
 *timer.o(.text .text* .rodata .rodata*)
 .text          0x0000000001086142        0x0 ./rt-thread/src/timer.o
 .text.rt_list_init
                0x0000000001086142       0x28 ./rt-thread/src/timer.o
 .text.rt_list_insert_after
                0x000000000108616a       0x42 ./rt-thread/src/timer.o
 .text.rt_list_remove
                0x00000000010861ac       0x44 ./rt-thread/src/timer.o
 .text.rt_list_isempty
                0x00000000010861f0       0x28 ./rt-thread/src/timer.o
 .text.rt_timer_enter_sethook
                0x0000000001086218       0x1e ./rt-thread/src/timer.o
                0x0000000001086218                rt_timer_enter_sethook
 .text.rt_timer_exit_sethook
                0x0000000001086236       0x1e ./rt-thread/src/timer.o
                0x0000000001086236                rt_timer_exit_sethook
 .text._timer_init
                0x0000000001086254       0xa0 ./rt-thread/src/timer.o
 .text._timer_list_next_timeout
                0x00000000010862f4       0x52 ./rt-thread/src/timer.o
 .text._timer_remove
                0x0000000001086346       0x46 ./rt-thread/src/timer.o
 .text.rt_timer_init
                0x000000000108638c       0x54 ./rt-thread/src/timer.o
                0x000000000108638c                rt_timer_init
 .text.rt_timer_detach
                0x00000000010863e0       0x50 ./rt-thread/src/timer.o
                0x00000000010863e0                rt_timer_detach
 .text.rt_timer_create
                0x0000000001086430       0x5e ./rt-thread/src/timer.o
                0x0000000001086430                rt_timer_create
 .text.rt_timer_delete
                0x000000000108648e       0x50 ./rt-thread/src/timer.o
                0x000000000108648e                rt_timer_delete
 .text.rt_timer_start
                0x00000000010864de      0x27a ./rt-thread/src/timer.o
                0x00000000010864de                rt_timer_start
 .text.rt_timer_stop
                0x0000000001086758       0x70 ./rt-thread/src/timer.o
                0x0000000001086758                rt_timer_stop
 .text.rt_timer_control
                0x00000000010867c8       0xbc ./rt-thread/src/timer.o
                0x00000000010867c8                rt_timer_control
 *fill*         0x0000000001086884        0x0 
 .rodata.rt_timer_control
                0x0000000001086884       0x14 ./rt-thread/src/timer.o
 .text.rt_timer_check
                0x0000000001086898      0x14c ./rt-thread/src/timer.o
                0x0000000001086898                rt_timer_check
 .text.rt_timer_next_timeout_tick
                0x00000000010869e4       0x20 ./rt-thread/src/timer.o
                0x00000000010869e4                rt_timer_next_timeout_tick
 .text.rt_soft_timer_check
                0x0000000001086a04      0x15a ./rt-thread/src/timer.o
                0x0000000001086a04                rt_soft_timer_check
 .text._timer_thread_entry
                0x0000000001086b5e       0x74 ./rt-thread/src/timer.o
 .text.rt_system_timer_init
                0x0000000001086bd2       0x42 ./rt-thread/src/timer.o
                0x0000000001086bd2                rt_system_timer_init
 .rodata        0x0000000001086c14        0x6 ./rt-thread/src/timer.o
 .text.rt_system_timer_thread_init
                0x0000000001086c1a       0x7a ./rt-thread/src/timer.o
                0x0000000001086c1a                rt_system_timer_thread_init
 *mem.o(.text .text* .rodata .rodata*)
 .text          0x0000000001086c94        0x0 ./rt-thread/src/mem.o
 .text.rt_malloc_sethook
                0x0000000001086c94       0x1e ./rt-thread/src/mem.o
                0x0000000001086c94                rt_malloc_sethook
 .text.rt_free_sethook
                0x0000000001086cb2       0x1e ./rt-thread/src/mem.o
                0x0000000001086cb2                rt_free_sethook
 .text.plug_holes
                0x0000000001086cd0      0x10e ./rt-thread/src/mem.o
 *fill*         0x0000000001086dde        0x2 
 .rodata        0x0000000001086de0       0xd6 ./rt-thread/src/mem.o
 .text.rt_system_heap_init
                0x0000000001086eb6      0x14a ./rt-thread/src/mem.o
                0x0000000001086eb6                rt_system_heap_init
 .text.rt_malloc
                0x0000000001087000      0x2bc ./rt-thread/src/mem.o
                0x0000000001087000                rt_malloc
 .text.rt_realloc
                0x00000000010872bc      0x212 ./rt-thread/src/mem.o
                0x00000000010872bc                rt_realloc
 .text.rt_calloc
                0x00000000010874ce       0x52 ./rt-thread/src/mem.o
                0x00000000010874ce                rt_calloc
 .text.rt_free  0x0000000001087520      0x134 ./rt-thread/src/mem.o
                0x0000000001087520                rt_free
 .text.rt_memory_info
                0x0000000001087654       0x56 ./rt-thread/src/mem.o
                0x0000000001087654                rt_memory_info
 .text.list_mem
                0x00000000010876aa       0x54 ./rt-thread/src/mem.o
                0x00000000010876aa                list_mem
 *mempool.o(.text .text* .rodata .rodata*)
 .text          0x00000000010876fe        0x0 ./rt-thread/src/mempool.o
 .text.rt_list_init
                0x00000000010876fe       0x28 ./rt-thread/src/mempool.o
 .text.rt_list_insert_after
                0x0000000001087726       0x42 ./rt-thread/src/mempool.o
 .text.rt_list_isempty
                0x0000000001087768       0x28 ./rt-thread/src/mempool.o
 .text.rt_mp_alloc_sethook
                0x0000000001087790       0x1e ./rt-thread/src/mempool.o
                0x0000000001087790                rt_mp_alloc_sethook
 .text.rt_mp_free_sethook
                0x00000000010877ae       0x1e ./rt-thread/src/mempool.o
                0x00000000010877ae                rt_mp_free_sethook
 .text.rt_mp_init
                0x00000000010877cc       0xfe ./rt-thread/src/mempool.o
                0x00000000010877cc                rt_mp_init
 .text.rt_mp_detach
                0x00000000010878ca       0x66 ./rt-thread/src/mempool.o
                0x00000000010878ca                rt_mp_detach
 .text.rt_mp_create
                0x0000000001087930      0x124 ./rt-thread/src/mempool.o
                0x0000000001087930                rt_mp_create
 .text.rt_mp_delete
                0x0000000001087a54       0x72 ./rt-thread/src/mempool.o
                0x0000000001087a54                rt_mp_delete
 .text.rt_mp_alloc
                0x0000000001087ac6      0x150 ./rt-thread/src/mempool.o
                0x0000000001087ac6                rt_mp_alloc
 .text.rt_mp_free
                0x0000000001087c16       0xbe ./rt-thread/src/mempool.o
                0x0000000001087c16                rt_mp_free
                0x0000000001087cd8                . = ALIGN (0x8)
 *fill*         0x0000000001087cd4        0x4 
                0x0000000001087cd8                __ramfunc_end__ = .

.text           0x000000008000383e    0x1ab1e
                0x0000000080003840                . = ALIGN (0x8)
 *fill*         0x000000008000383e        0x2 
 *(.text)
 .text          0x0000000080003840       0x4a f:/developsoft/rt-threadstudio/repo/extract/toolchain_support_packages/risc-v/risc-v-gcc/10.1.0/bin/../lib/gcc/riscv64-unknown-elf/10.1.0/../../../../riscv64-unknown-elf/lib/rv32imac/ilp32\libc.a(lib_a-assert.o)
                0x0000000080003840                __assert_func
                0x0000000080003880                __assert
 .text          0x000000008000388a       0x10 f:/developsoft/rt-threadstudio/repo/extract/toolchain_support_packages/risc-v/risc-v-gcc/10.1.0/bin/../lib/gcc/riscv64-unknown-elf/10.1.0/../../../../riscv64-unknown-elf/lib/rv32imac/ilp32\libc.a(lib_a-atoi.o)
                0x000000008000388a                atoi
                0x0000000080003892                _atoi_r
 .text          0x000000008000389a       0xf6 f:/developsoft/rt-threadstudio/repo/extract/toolchain_support_packages/risc-v/risc-v-gcc/10.1.0/bin/../lib/gcc/riscv64-unknown-elf/10.1.0/../../../../riscv64-unknown-elf/lib/rv32imac/ilp32\libc.a(lib_a-fclose.o)
                0x0000000080003914                _fclose_r
                0x0000000080003950                fclose
 .text          0x0000000080003990      0x218 f:/developsoft/rt-threadstudio/repo/extract/toolchain_support_packages/risc-v/risc-v-gcc/10.1.0/bin/../lib/gcc/riscv64-unknown-elf/10.1.0/../../../../riscv64-unknown-elf/lib/rv32imac/ilp32\libc.a(lib_a-fflush.o)
                0x0000000080003990                __sflush_r
                0x0000000080003b26                _fflush_r
                0x0000000080003b5a                fflush
 .text          0x0000000080003ba8      0x29e f:/developsoft/rt-threadstudio/repo/extract/toolchain_support_packages/risc-v/risc-v-gcc/10.1.0/bin/../lib/gcc/riscv64-unknown-elf/10.1.0/../../../../riscv64-unknown-elf/lib/rv32imac/ilp32\libc.a(lib_a-findfp.o)
                0x0000000080003bac                _cleanup_r
                0x0000000080003ce8                __sfmoreglue
                0x0000000080003d2e                __sfp
                0x0000000080003e08                _cleanup
                0x0000000080003e1a                __sinit
                0x0000000080003e22                __sfp_lock_acquire
                0x0000000080003e24                __sfp_lock_release
                0x0000000080003e26                __sinit_lock_acquire
                0x0000000080003e28                __sinit_lock_release
                0x0000000080003e2a                __fp_lock_all
                0x0000000080003e38                __fp_unlock_all
 .text          0x0000000080003e46       0x4c f:/developsoft/rt-threadstudio/repo/extract/toolchain_support_packages/risc-v/risc-v-gcc/10.1.0/bin/../lib/gcc/riscv64-unknown-elf/10.1.0/../../../../riscv64-unknown-elf/lib/rv32imac/ilp32\libc.a(lib_a-fiprintf.o)
                0x0000000080003e46                _fiprintf_r
                0x0000000080003e66                fiprintf
 .text          0x0000000080003e92       0xe0 f:/developsoft/rt-threadstudio/repo/extract/toolchain_support_packages/risc-v/risc-v-gcc/10.1.0/bin/../lib/gcc/riscv64-unknown-elf/10.1.0/../../../../riscv64-unknown-elf/lib/rv32imac/ilp32\libc.a(lib_a-fwalk.o)
                0x0000000080003e92                _fwalk
                0x0000000080003efe                _fwalk_reent
 .text          0x0000000080003f72      0x192 f:/developsoft/rt-threadstudio/repo/extract/toolchain_support_packages/risc-v/risc-v-gcc/10.1.0/bin/../lib/gcc/riscv64-unknown-elf/10.1.0/../../../../riscv64-unknown-elf/lib/rv32imac/ilp32\libc.a(lib_a-makebuf.o)
                0x0000000080003f72                __smakebuf_r
                0x0000000080004082                __swhatbuf_r
 .text          0x0000000080004104       0x52 f:/developsoft/rt-threadstudio/repo/extract/toolchain_support_packages/risc-v/risc-v-gcc/10.1.0/bin/../lib/gcc/riscv64-unknown-elf/10.1.0/../../../../riscv64-unknown-elf/lib/rv32imac/ilp32\libc.a(lib_a-memcmp.o)
                0x0000000080004104                memcmp
 .text          0x0000000080004156       0xde f:/developsoft/rt-threadstudio/repo/extract/toolchain_support_packages/risc-v/risc-v-gcc/10.1.0/bin/../lib/gcc/riscv64-unknown-elf/10.1.0/../../../../riscv64-unknown-elf/lib/rv32imac/ilp32\libc.a(lib_a-memcpy.o)
                0x0000000080004156                memcpy
 .text          0x0000000080004234       0xa8 f:/developsoft/rt-threadstudio/repo/extract/toolchain_support_packages/risc-v/risc-v-gcc/10.1.0/bin/../lib/gcc/riscv64-unknown-elf/10.1.0/../../../../riscv64-unknown-elf/lib/rv32imac/ilp32\libc.a(lib_a-memset.o)
                0x0000000080004234                memset
 .text          0x00000000800042dc       0x4e f:/developsoft/rt-threadstudio/repo/extract/toolchain_support_packages/risc-v/risc-v-gcc/10.1.0/bin/../lib/gcc/riscv64-unknown-elf/10.1.0/../../../../riscv64-unknown-elf/lib/rv32imac/ilp32\libc.a(lib_a-printf.o)
                0x00000000800042dc                _printf_r
                0x00000000800042fe                printf
 .text          0x000000008000432a       0xda f:/developsoft/rt-threadstudio/repo/extract/toolchain_support_packages/risc-v/risc-v-gcc/10.1.0/bin/../lib/gcc/riscv64-unknown-elf/10.1.0/../../../../riscv64-unknown-elf/lib/rv32imac/ilp32\libc.a(lib_a-stdio.o)
                0x000000008000432a                __sread
                0x0000000080004362                __seofread
                0x0000000080004366                __swrite
                0x00000000800043ba                __sseek
                0x00000000800043fc                __sclose
 .text          0x0000000080004404       0x78 f:/developsoft/rt-threadstudio/repo/extract/toolchain_support_packages/risc-v/risc-v-gcc/10.1.0/bin/../lib/gcc/riscv64-unknown-elf/10.1.0/../../../../riscv64-unknown-elf/lib/rv32imac/ilp32\libc.a(lib_a-strcpy.o)
                0x0000000080004404                strcpy
 .text          0x000000008000447c       0x62 f:/developsoft/rt-threadstudio/repo/extract/toolchain_support_packages/risc-v/risc-v-gcc/10.1.0/bin/../lib/gcc/riscv64-unknown-elf/10.1.0/../../../../riscv64-unknown-elf/lib/rv32imac/ilp32\libc.a(lib_a-strlen.o)
                0x000000008000447c                strlen
 .text          0x00000000800044de       0x94 f:/developsoft/rt-threadstudio/repo/extract/toolchain_support_packages/risc-v/risc-v-gcc/10.1.0/bin/../lib/gcc/riscv64-unknown-elf/10.1.0/../../../../riscv64-unknown-elf/lib/rv32imac/ilp32\libc.a(lib_a-strncmp.o)
                0x00000000800044de                strncmp
 .text          0x0000000080004572       0x7a f:/developsoft/rt-threadstudio/repo/extract/toolchain_support_packages/risc-v/risc-v-gcc/10.1.0/bin/../lib/gcc/riscv64-unknown-elf/10.1.0/../../../../riscv64-unknown-elf/lib/rv32imac/ilp32\libc.a(lib_a-strncpy.o)
                0x0000000080004572                strncpy
 .text          0x00000000800045ec      0x1d2 f:/developsoft/rt-threadstudio/repo/extract/toolchain_support_packages/risc-v/risc-v-gcc/10.1.0/bin/../lib/gcc/riscv64-unknown-elf/10.1.0/../../../../riscv64-unknown-elf/lib/rv32imac/ilp32\libc.a(lib_a-strtol.o)
                0x000000008000473a                _strtol_r
                0x000000008000475e                strtol_l
                0x000000008000478e                strtol
 .text          0x00000000800047be     0x1cbc f:/developsoft/rt-threadstudio/repo/extract/toolchain_support_packages/risc-v/risc-v-gcc/10.1.0/bin/../lib/gcc/riscv64-unknown-elf/10.1.0/../../../../riscv64-unknown-elf/lib/rv32imac/ilp32\libc.a(lib_a-svfprintf.o)
                0x00000000800047be                _svfprintf_r
 .text          0x000000008000647a      0xe58 f:/developsoft/rt-threadstudio/repo/extract/toolchain_support_packages/risc-v/risc-v-gcc/10.1.0/bin/../lib/gcc/riscv64-unknown-elf/10.1.0/../../../../riscv64-unknown-elf/lib/rv32imac/ilp32\libc.a(lib_a-vfiprintf.o)
                0x0000000080006512                __sprint_r
                0x0000000080006520                _vfiprintf_r
                0x000000008000722e                vfiprintf
 .text          0x00000000800072d2     0x1d90 f:/developsoft/rt-threadstudio/repo/extract/toolchain_support_packages/risc-v/risc-v-gcc/10.1.0/bin/../lib/gcc/riscv64-unknown-elf/10.1.0/../../../../riscv64-unknown-elf/lib/rv32imac/ilp32\libc.a(lib_a-vfprintf.o)
                0x00000000800072d2                _vfprintf_r
                0x0000000080008fbe                vfprintf
 .text          0x0000000080009062       0xf8 f:/developsoft/rt-threadstudio/repo/extract/toolchain_support_packages/risc-v/risc-v-gcc/10.1.0/bin/../lib/gcc/riscv64-unknown-elf/10.1.0/../../../../riscv64-unknown-elf/lib/rv32imac/ilp32\libc.a(lib_a-wsetup.o)
                0x0000000080009062                __swsetup_r
 .text          0x000000008000915a       0x10 f:/developsoft/rt-threadstudio/repo/extract/toolchain_support_packages/risc-v/risc-v-gcc/10.1.0/bin/../lib/gcc/riscv64-unknown-elf/10.1.0/../../../../riscv64-unknown-elf/lib/rv32imac/ilp32\libc.a(lib_a-abort.o)
                0x000000008000915a                abort
 .text          0x000000008000916a      0x12c f:/developsoft/rt-threadstudio/repo/extract/toolchain_support_packages/risc-v/risc-v-gcc/10.1.0/bin/../lib/gcc/riscv64-unknown-elf/10.1.0/../../../../riscv64-unknown-elf/lib/rv32imac/ilp32\libc.a(lib_a-fputwc.o)
                0x000000008000916a                __fputwc
                0x000000008000922e                _fputwc_r
                0x000000008000924c                fputwc
 .text          0x0000000080009296      0x32c f:/developsoft/rt-threadstudio/repo/extract/toolchain_support_packages/risc-v/risc-v-gcc/10.1.0/bin/../lib/gcc/riscv64-unknown-elf/10.1.0/../../../../riscv64-unknown-elf/lib/rv32imac/ilp32\libc.a(lib_a-fvwrite.o)
                0x0000000080009296                __sfvwrite_r
 .text          0x00000000800095c2     0x2080 f:/developsoft/rt-threadstudio/repo/extract/toolchain_support_packages/risc-v/risc-v-gcc/10.1.0/bin/../lib/gcc/riscv64-unknown-elf/10.1.0/../../../../riscv64-unknown-elf/lib/rv32imac/ilp32\libc.a(lib_a-ldtoa.o)
                0x000000008000a7c8                _ldtoa_r
                0x000000008000b5f8                _ldcheck
 .text          0x000000008000b642       0x12 f:/developsoft/rt-threadstudio/repo/extract/toolchain_support_packages/risc-v/risc-v-gcc/10.1.0/bin/../lib/gcc/riscv64-unknown-elf/10.1.0/../../../../riscv64-unknown-elf/lib/rv32imac/ilp32\libc.a(lib_a-localeconv.o)
                0x000000008000b642                __localeconv_l
                0x000000008000b648                _localeconv_r
                0x000000008000b64e                localeconv
 .text          0x000000008000b654       0xae f:/developsoft/rt-threadstudio/repo/extract/toolchain_support_packages/risc-v/risc-v-gcc/10.1.0/bin/../lib/gcc/riscv64-unknown-elf/10.1.0/../../../../riscv64-unknown-elf/lib/rv32imac/ilp32\libc.a(lib_a-locale.o)
                0x000000008000b654                _setlocale_r
                0x000000008000b6a8                __locale_mb_cur_max
                0x000000008000b6ae                setlocale
 .text          0x000000008000b702       0x46 f:/developsoft/rt-threadstudio/repo/extract/toolchain_support_packages/risc-v/risc-v-gcc/10.1.0/bin/../lib/gcc/riscv64-unknown-elf/10.1.0/../../../../riscv64-unknown-elf/lib/rv32imac/ilp32\libc.a(lib_a-mbtowc_r.o)
                0x000000008000b702                _mbtowc_r
                0x000000008000b708                __ascii_mbtowc
 .text          0x000000008000b748       0x94 f:/developsoft/rt-threadstudio/repo/extract/toolchain_support_packages/risc-v/risc-v-gcc/10.1.0/bin/../lib/gcc/riscv64-unknown-elf/10.1.0/../../../../riscv64-unknown-elf/lib/rv32imac/ilp32\libc.a(lib_a-memchr.o)
                0x000000008000b748                memchr
 .text          0x000000008000b7dc       0xd0 f:/developsoft/rt-threadstudio/repo/extract/toolchain_support_packages/risc-v/risc-v-gcc/10.1.0/bin/../lib/gcc/riscv64-unknown-elf/10.1.0/../../../../riscv64-unknown-elf/lib/rv32imac/ilp32\libc.a(lib_a-memmove-stub.o)
                0x000000008000b7dc                memmove
 .text          0x000000008000b8ac      0xc0a f:/developsoft/rt-threadstudio/repo/extract/toolchain_support_packages/risc-v/risc-v-gcc/10.1.0/bin/../lib/gcc/riscv64-unknown-elf/10.1.0/../../../../riscv64-unknown-elf/lib/rv32imac/ilp32\libc.a(lib_a-mprec.o)
                0x000000008000b8ac                _Balloc
                0x000000008000b912                _Bfree
                0x000000008000b924                __multadd
                0x000000008000ba0a                __s2b
                0x000000008000bacc                __hi0bits
                0x000000008000bb14                __lo0bits
                0x000000008000bb9e                __i2b
                0x000000008000bc0a                __multiply
                0x000000008000bda6                __pow5mult
                0x000000008000be7c                __lshift
                0x000000008000bf8c                __mcmp
                0x000000008000bfcc                __mdiff
                0x000000008000c162                __ulp
                0x000000008000c1a8                __b2d
                0x000000008000c270                __d2b
                0x000000008000c35e                __ratio
                0x000000008000c3ba                _mprec_log10
                0x000000008000c428                __copybits
                0x000000008000c46e                __any_on
 .text          0x000000008000c4b6       0x7c f:/developsoft/rt-threadstudio/repo/extract/toolchain_support_packages/risc-v/risc-v-gcc/10.1.0/bin/../lib/gcc/riscv64-unknown-elf/10.1.0/../../../../riscv64-unknown-elf/lib/rv32imac/ilp32\libc.a(lib_a-s_frexp.o)
                0x000000008000c4b6                frexp
 .text          0x000000008000c532      0x356 f:/developsoft/rt-threadstudio/repo/extract/toolchain_support_packages/risc-v/risc-v-gcc/10.1.0/bin/../lib/gcc/riscv64-unknown-elf/10.1.0/../../../../riscv64-unknown-elf/lib/rv32imac/ilp32\libc.a(lib_a-signal.o)
                0x000000008000c532                _init_signal_r
                0x000000008000c56e                _signal_r
                0x000000008000c5d2                _raise_r
                0x000000008000c650                __sigtramp_r
                0x000000008000c6d8                raise
                0x000000008000c756                signal
                0x000000008000c7c2                _init_signal
                0x000000008000c800                __sigtramp
 .text          0x000000008000c888       0x8c f:/developsoft/rt-threadstudio/repo/extract/toolchain_support_packages/risc-v/risc-v-gcc/10.1.0/bin/../lib/gcc/riscv64-unknown-elf/10.1.0/../../../../riscv64-unknown-elf/lib/rv32imac/ilp32\libc.a(lib_a-sprintf.o)
                0x000000008000c888                _sprintf_r
                0x000000008000c8ca                sprintf
 .text          0x000000008000c914      0x11e f:/developsoft/rt-threadstudio/repo/extract/toolchain_support_packages/risc-v/risc-v-gcc/10.1.0/bin/../lib/gcc/riscv64-unknown-elf/10.1.0/../../../../riscv64-unknown-elf/lib/rv32imac/ilp32\libc.a(lib_a-strcmp.o)
                0x000000008000c914                strcmp
 .text          0x000000008000ca32      0xd0c f:/developsoft/rt-threadstudio/repo/extract/toolchain_support_packages/risc-v/risc-v-gcc/10.1.0/bin/../lib/gcc/riscv64-unknown-elf/10.1.0/../../../../riscv64-unknown-elf/lib/rv32imac/ilp32\libc.a(lib_a-svfiprintf.o)
                0x000000008000ca32                __ssprint_r
                0x000000008000cb5e                _svfiprintf_r
 .text          0x000000008000d73e      0x104 f:/developsoft/rt-threadstudio/repo/extract/toolchain_support_packages/risc-v/risc-v-gcc/10.1.0/bin/../lib/gcc/riscv64-unknown-elf/10.1.0/../../../../riscv64-unknown-elf/lib/rv32imac/ilp32\libc.a(lib_a-wbuf.o)
                0x000000008000d73e                __swbuf_r
                0x000000008000d836                __swbuf
 .text          0x000000008000d842       0x96 f:/developsoft/rt-threadstudio/repo/extract/toolchain_support_packages/risc-v/risc-v-gcc/10.1.0/bin/../lib/gcc/riscv64-unknown-elf/10.1.0/../../../../riscv64-unknown-elf/lib/rv32imac/ilp32\libc.a(lib_a-wcrtomb.o)
                0x000000008000d842                _wcrtomb_r
                0x000000008000d886                wcrtomb
 .text          0x000000008000d8d8       0x26 f:/developsoft/rt-threadstudio/repo/extract/toolchain_support_packages/risc-v/risc-v-gcc/10.1.0/bin/../lib/gcc/riscv64-unknown-elf/10.1.0/../../../../riscv64-unknown-elf/lib/rv32imac/ilp32\libc.a(lib_a-wctomb_r.o)
                0x000000008000d8d8                _wctomb_r
                0x000000008000d8de                __ascii_wctomb
 .text          0x000000008000d8fe      0x3a8 f:/developsoft/rt-threadstudio/repo/extract/toolchain_support_packages/risc-v/risc-v-gcc/10.1.0/bin/../lib/gcc/riscv64-unknown-elf/10.1.0/rv32imac/ilp32\libgcc.a(_divdi3.o)
                0x000000008000d8fe                __divdi3
 .text          0x000000008000dca6      0x384 f:/developsoft/rt-threadstudio/repo/extract/toolchain_support_packages/risc-v/risc-v-gcc/10.1.0/bin/../lib/gcc/riscv64-unknown-elf/10.1.0/rv32imac/ilp32\libgcc.a(_moddi3.o)
                0x000000008000dca6                __moddi3
 .text          0x000000008000e02a      0x360 f:/developsoft/rt-threadstudio/repo/extract/toolchain_support_packages/risc-v/risc-v-gcc/10.1.0/bin/../lib/gcc/riscv64-unknown-elf/10.1.0/rv32imac/ilp32\libgcc.a(_udivdi3.o)
                0x000000008000e02a                __udivdi3
 .text          0x000000008000e38a      0x33e f:/developsoft/rt-threadstudio/repo/extract/toolchain_support_packages/risc-v/risc-v-gcc/10.1.0/bin/../lib/gcc/riscv64-unknown-elf/10.1.0/rv32imac/ilp32\libgcc.a(_umoddi3.o)
                0x000000008000e38a                __umoddi3
 .text          0x000000008000e6c8      0x60a f:/developsoft/rt-threadstudio/repo/extract/toolchain_support_packages/risc-v/risc-v-gcc/10.1.0/bin/../lib/gcc/riscv64-unknown-elf/10.1.0/rv32imac/ilp32\libgcc.a(adddf3.o)
                0x000000008000e6c8                __adddf3
 .text          0x000000008000ecd2      0x53e f:/developsoft/rt-threadstudio/repo/extract/toolchain_support_packages/risc-v/risc-v-gcc/10.1.0/bin/../lib/gcc/riscv64-unknown-elf/10.1.0/rv32imac/ilp32\libgcc.a(divdf3.o)
                0x000000008000ecd2                __divdf3
 .text          0x000000008000f210      0x440 f:/developsoft/rt-threadstudio/repo/extract/toolchain_support_packages/risc-v/risc-v-gcc/10.1.0/bin/../lib/gcc/riscv64-unknown-elf/10.1.0/rv32imac/ilp32\libgcc.a(muldf3.o)
                0x000000008000f210                __muldf3
 .text          0x000000008000f650       0x60 f:/developsoft/rt-threadstudio/repo/extract/toolchain_support_packages/risc-v/risc-v-gcc/10.1.0/bin/../lib/gcc/riscv64-unknown-elf/10.1.0/rv32imac/ilp32\libgcc.a(fixunsdfsi.o)
                0x000000008000f650                __fixunsdfsi
 .text          0x000000008000f6b0       0x50 f:/developsoft/rt-threadstudio/repo/extract/toolchain_support_packages/risc-v/risc-v-gcc/10.1.0/bin/../lib/gcc/riscv64-unknown-elf/10.1.0/rv32imac/ilp32\libgcc.a(floatunsidf.o)
                0x000000008000f6b0                __floatunsidf
 .text          0x000000008000f700       0xa6 f:/developsoft/rt-threadstudio/repo/extract/toolchain_support_packages/risc-v/risc-v-gcc/10.1.0/bin/../lib/gcc/riscv64-unknown-elf/10.1.0/rv32imac/ilp32\libgcc.a(eqtf2.o)
                0x000000008000f700                __netf2
                0x000000008000f700                __eqtf2
 .text          0x000000008000f7a6       0xf4 f:/developsoft/rt-threadstudio/repo/extract/toolchain_support_packages/risc-v/risc-v-gcc/10.1.0/bin/../lib/gcc/riscv64-unknown-elf/10.1.0/rv32imac/ilp32\libgcc.a(getf2.o)
                0x000000008000f7a6                __gttf2
                0x000000008000f7a6                __getf2
 .text          0x000000008000f89a       0xf4 f:/developsoft/rt-threadstudio/repo/extract/toolchain_support_packages/risc-v/risc-v-gcc/10.1.0/bin/../lib/gcc/riscv64-unknown-elf/10.1.0/rv32imac/ilp32\libgcc.a(letf2.o)
                0x000000008000f89a                __lttf2
                0x000000008000f89a                __letf2
 .text          0x000000008000f98e      0xb0e f:/developsoft/rt-threadstudio/repo/extract/toolchain_support_packages/risc-v/risc-v-gcc/10.1.0/bin/../lib/gcc/riscv64-unknown-elf/10.1.0/rv32imac/ilp32\libgcc.a(multf3.o)
                0x000000008000f98e                __multf3
 .text          0x000000008001049c      0xe5e f:/developsoft/rt-threadstudio/repo/extract/toolchain_support_packages/risc-v/risc-v-gcc/10.1.0/bin/../lib/gcc/riscv64-unknown-elf/10.1.0/rv32imac/ilp32\libgcc.a(subtf3.o)
                0x000000008001049c                __subtf3
 .text          0x00000000800112fa       0xbc f:/developsoft/rt-threadstudio/repo/extract/toolchain_support_packages/risc-v/risc-v-gcc/10.1.0/bin/../lib/gcc/riscv64-unknown-elf/10.1.0/rv32imac/ilp32\libgcc.a(fixtfsi.o)
                0x00000000800112fa                __fixtfsi
 .text          0x00000000800113b6       0xd0 f:/developsoft/rt-threadstudio/repo/extract/toolchain_support_packages/risc-v/risc-v-gcc/10.1.0/bin/../lib/gcc/riscv64-unknown-elf/10.1.0/rv32imac/ilp32\libgcc.a(floatsitf.o)
                0x00000000800113b6                __floatsitf
 .text          0x0000000080011486      0x150 f:/developsoft/rt-threadstudio/repo/extract/toolchain_support_packages/risc-v/risc-v-gcc/10.1.0/bin/../lib/gcc/riscv64-unknown-elf/10.1.0/rv32imac/ilp32\libgcc.a(extenddftf2.o)
                0x0000000080011486                __extenddftf2
 .text          0x00000000800115d6      0x23c f:/developsoft/rt-threadstudio/repo/extract/toolchain_support_packages/risc-v/risc-v-gcc/10.1.0/bin/../lib/gcc/riscv64-unknown-elf/10.1.0/rv32imac/ilp32\libgcc.a(trunctfdf2.o)
                0x00000000800115d6                __trunctfdf2
 .text          0x0000000080011812       0x3c f:/developsoft/rt-threadstudio/repo/extract/toolchain_support_packages/risc-v/risc-v-gcc/10.1.0/bin/../lib/gcc/riscv64-unknown-elf/10.1.0/rv32imac/ilp32\libgcc.a(_clzsi2.o)
                0x0000000080011812                __clzsi2
 *(.text*)
 .text.system_init
                0x000000008001184e       0x52 ./startup/startup.o
                0x000000008001184e                system_init
 .text.c_startup
                0x00000000800118a0      0x238 ./startup/startup.o
                0x00000000800118a0                c_startup
 .text.reset_handler
                0x0000000080011ad8       0x1e ./startup/startup.o
                0x0000000080011ad8                reset_handler
 .text._init    0x0000000080011af6        0xe ./startup/startup.o
                0x0000000080011af6                _init
 .text.rti_start
                0x0000000080011b04       0x10 ./rt-thread/src/components.o
 .text.rti_board_start
                0x0000000080011b14       0x10 ./rt-thread/src/components.o
 .text.rti_board_end
                0x0000000080011b24       0x10 ./rt-thread/src/components.o
 .text.rti_end  0x0000000080011b34       0x10 ./rt-thread/src/components.o
 .text.rt_components_init
                0x0000000080011b44       0x44 ./rt-thread/src/components.o
                0x0000000080011b44                rt_components_init
 .text.entry    0x0000000080011b88       0x16 ./rt-thread/src/components.o
                0x0000000080011b88                entry
 .text.main_thread_entry
                0x0000000080011b9e       0x1e ./rt-thread/src/components.o
                0x0000000080011b9e                main_thread_entry
 .text.rt_application_init
                0x0000000080011bbc       0x46 ./rt-thread/src/components.o
                0x0000000080011bbc                rt_application_init
 .text.rtthread_startup
                0x0000000080011c02       0x54 ./rt-thread/src/components.o
                0x0000000080011c02                rtthread_startup
 .text.rt_device_register
                0x0000000080011c56       0x6a ./rt-thread/src/device.o
                0x0000000080011c56                rt_device_register
 .text.rt_device_find
                0x0000000080011cc0       0x26 ./rt-thread/src/device.o
                0x0000000080011cc0                rt_device_find
 .text.rt_device_open
                0x0000000080011ce6      0x11e ./rt-thread/src/device.o
                0x0000000080011ce6                rt_device_open
 .text.rt_device_close
                0x0000000080011e04       0x80 ./rt-thread/src/device.o
                0x0000000080011e04                rt_device_close
 .text.rt_device_read
                0x0000000080011e84       0x6a ./rt-thread/src/device.o
                0x0000000080011e84                rt_device_read
 .text.rt_device_write
                0x0000000080011eee       0x6a ./rt-thread/src/device.o
                0x0000000080011eee                rt_device_write
 .text.rt_device_control
                0x0000000080011f58       0x40 ./rt-thread/src/device.o
                0x0000000080011f58                rt_device_control
 .text.rt_device_set_rx_indicate
                0x0000000080011f98       0x22 ./rt-thread/src/device.o
                0x0000000080011f98                rt_device_set_rx_indicate
 .text.libc_system_init
                0x0000000080011fba       0x10 ./rt-thread/components/libc/compilers/gcc/newlib/libc.o
                0x0000000080011fba                libc_system_init
 .text._malloc_r
                0x0000000080011fca       0x3c ./rt-thread/components/libc/compilers/gcc/newlib/syscalls.o
                0x0000000080011fca                _malloc_r
 .text._realloc_r
                0x0000000080012006       0x44 ./rt-thread/components/libc/compilers/gcc/newlib/syscalls.o
                0x0000000080012006                _realloc_r
 .text._calloc_r
                0x000000008001204a       0x44 ./rt-thread/components/libc/compilers/gcc/newlib/syscalls.o
                0x000000008001204a                _calloc_r
 .text._free_r  0x000000008001208e       0x26 ./rt-thread/components/libc/compilers/gcc/newlib/syscalls.o
                0x000000008001208e                _free_r
 .text.__libc_init_array
                0x00000000800120b4        0xe ./rt-thread/components/libc/compilers/gcc/newlib/syscalls.o
                0x00000000800120b4                __libc_init_array
 .text.__errno  0x00000000800120c2       0x1c ./rt-thread/components/libc/compilers/gcc/newlib/syscalls.o
                0x00000000800120c2                __errno
 .text._getpid_r
                0x00000000800120de       0x14 ./rt-thread/components/libc/compilers/gcc/newlib/syscalls.o
                0x00000000800120de                _getpid_r
 .text._close_r
                0x00000000800120f2       0x22 ./rt-thread/components/libc/compilers/gcc/newlib/syscalls.o
                0x00000000800120f2                _close_r
 .text._fstat_r
                0x0000000080012114       0x26 ./rt-thread/components/libc/compilers/gcc/newlib/syscalls.o
                0x0000000080012114                _fstat_r
 .text._isatty_r
                0x000000008001213a       0x2e ./rt-thread/components/libc/compilers/gcc/newlib/syscalls.o
                0x000000008001213a                _isatty_r
 .text._kill_r  0x0000000080012168       0x26 ./rt-thread/components/libc/compilers/gcc/newlib/syscalls.o
                0x0000000080012168                _kill_r
 .text._lseek_r
                0x000000008001218e       0x2a ./rt-thread/components/libc/compilers/gcc/newlib/syscalls.o
                0x000000008001218e                _lseek_r
 .text._read_r  0x00000000800121b8       0x2a ./rt-thread/components/libc/compilers/gcc/newlib/syscalls.o
                0x00000000800121b8                _read_r
 .text._write_r
                0x00000000800121e2       0x56 ./rt-thread/components/libc/compilers/gcc/newlib/syscalls.o
                0x00000000800121e2                _write_r
 .text._exit    0x0000000080012238       0x14 ./rt-thread/components/libc/compilers/gcc/newlib/syscalls.o
                0x0000000080012238                _exit
 .text.__rt_libc_exit
                0x000000008001224c       0x38 ./rt-thread/components/libc/compilers/common/stdlib.o
                0x000000008001224c                __rt_libc_exit
 .text.__isleap
                0x0000000080012284       0x3c ./rt-thread/components/libc/compilers/common/time.o
 .text.num2str  0x00000000800122c0       0x5e ./rt-thread/components/libc/compilers/common/time.o
 .text.get_timeval
                0x000000008001231e       0xd2 ./rt-thread/components/libc/compilers/common/time.o
 .text.gmtime_r
                0x00000000800123f0      0x2b8 ./rt-thread/components/libc/compilers/common/time.o
                0x00000000800123f0                gmtime_r
 .text.localtime_r
                0x00000000800126a8       0x78 ./rt-thread/components/libc/compilers/common/time.o
                0x00000000800126a8                localtime_r
 .text.localtime
                0x0000000080012720       0x28 ./rt-thread/components/libc/compilers/common/time.o
                0x0000000080012720                localtime
 .text.mktime   0x0000000080012748       0x72 ./rt-thread/components/libc/compilers/common/time.o
                0x0000000080012748                mktime
 .text.asctime_r
                0x00000000800127ba      0x2ac ./rt-thread/components/libc/compilers/common/time.o
                0x00000000800127ba                asctime_r
 .text.asctime  0x0000000080012a66       0x28 ./rt-thread/components/libc/compilers/common/time.o
                0x0000000080012a66                asctime
 .text.ctime    0x0000000080012a8e       0x28 ./rt-thread/components/libc/compilers/common/time.o
                0x0000000080012a8e                ctime
 .text.time     0x0000000080012ab6       0x54 ./rt-thread/components/libc/compilers/common/time.o
                0x0000000080012ab6                time
 .text.timegm   0x0000000080012b0a      0x584 ./rt-thread/components/libc/compilers/common/time.o
                0x0000000080012b0a                timegm
 .text.tz_get   0x000000008001308e       0x16 ./rt-thread/components/libc/compilers/common/time.o
                0x000000008001308e                tz_get
 .text.tz_is_dst
                0x00000000800130a4       0x10 ./rt-thread/components/libc/compilers/common/time.o
                0x00000000800130a4                tz_is_dst
 .text.rt_list_isempty
                0x00000000800130b4       0x28 ./rt-thread/components/finsh/cmd.o
 .text.rt_list_len
                0x00000000800130dc       0x46 ./rt-thread/components/finsh/cmd.o
 .text.hello    0x0000000080013122       0x24 ./rt-thread/components/finsh/cmd.o
                0x0000000080013122                hello
 .text.clear    0x0000000080013146       0x24 ./rt-thread/components/finsh/cmd.o
 .text.version  0x000000008001316a       0x1c ./rt-thread/components/finsh/cmd.o
                0x000000008001316a                version
 .text.object_split
                0x0000000080013186       0x38 ./rt-thread/components/finsh/cmd.o
 .text.list_find_init
                0x00000000800131be       0x72 ./rt-thread/components/finsh/cmd.o
 .text.list_get_next
                0x0000000080013230      0x120 ./rt-thread/components/finsh/cmd.o
 .text.list_thread
                0x0000000080013350      0x25e ./rt-thread/components/finsh/cmd.o
                0x0000000080013350                list_thread
 .text.show_wait_queue
                0x00000000800135ae       0x7a ./rt-thread/components/finsh/cmd.o
 .text.list_sem
                0x0000000080013628      0x1a4 ./rt-thread/components/finsh/cmd.o
                0x0000000080013628                list_sem
 .text.list_event
                0x00000000800137cc      0x18e ./rt-thread/components/finsh/cmd.o
                0x00000000800137cc                list_event
 .text.list_mutex
                0x000000008001395a      0x150 ./rt-thread/components/finsh/cmd.o
                0x000000008001395a                list_mutex
 .text.list_mailbox
                0x0000000080013aaa      0x1c4 ./rt-thread/components/finsh/cmd.o
                0x0000000080013aaa                list_mailbox
 .text.list_msgqueue
                0x0000000080013c6e      0x1a4 ./rt-thread/components/finsh/cmd.o
                0x0000000080013c6e                list_msgqueue
 .text.list_mempool
                0x0000000080013e12      0x1c6 ./rt-thread/components/finsh/cmd.o
                0x0000000080013e12                list_mempool
 .text.list_timer
                0x0000000080013fd8      0x170 ./rt-thread/components/finsh/cmd.o
                0x0000000080013fd8                list_timer
 .text.list_device
                0x0000000080014148      0x14c ./rt-thread/components/finsh/cmd.o
                0x0000000080014148                list_device
 .text.list     0x0000000080014294       0x8a ./rt-thread/components/finsh/cmd.o
                0x0000000080014294                list
 .text.msh_help
                0x000000008001431e       0x84 ./rt-thread/components/finsh/msh.o
                0x000000008001431e                msh_help
 .text.cmd_ps   0x00000000800143a2       0x20 ./rt-thread/components/finsh/msh.o
                0x00000000800143a2                cmd_ps
 .text.cmd_free
                0x00000000800143c2       0x24 ./rt-thread/components/finsh/msh.o
                0x00000000800143c2                cmd_free
 .text.msh_split
                0x00000000800143e6      0x240 ./rt-thread/components/finsh/msh.o
 .text.msh_get_cmd
                0x0000000080014626       0x82 ./rt-thread/components/finsh/msh.o
 .text._msh_exec_cmd
                0x00000000800146a8       0xd4 ./rt-thread/components/finsh/msh.o
 .text.msh_exec
                0x000000008001477c       0xc6 ./rt-thread/components/finsh/msh.o
                0x000000008001477c                msh_exec
 .text.str_common
                0x0000000080014842       0x68 ./rt-thread/components/finsh/msh.o
 .text.msh_auto_complete
                0x00000000800148aa       0xf0 ./rt-thread/components/finsh/msh.o
                0x00000000800148aa                msh_auto_complete
 .text.finsh_get_prompt
                0x000000008001499a       0xae ./rt-thread/components/finsh/shell.o
                0x000000008001499a                finsh_get_prompt
 .text.finsh_set_prompt_mode
                0x0000000080014a48       0x3a ./rt-thread/components/finsh/shell.o
                0x0000000080014a48                finsh_set_prompt_mode
 .text.finsh_getchar
                0x0000000080014a82       0x62 ./rt-thread/components/finsh/shell.o
                0x0000000080014a82                finsh_getchar
 .text.finsh_rx_ind
                0x0000000080014ae4       0x2e ./rt-thread/components/finsh/shell.o
 .text.finsh_set_device
                0x0000000080014b12       0xf0 ./rt-thread/components/finsh/shell.o
                0x0000000080014b12                finsh_set_device
 .text.shell_auto_complete
                0x0000000080014c02       0x4a ./rt-thread/components/finsh/shell.o
 .text.shell_handle_history
                0x0000000080014c4c       0x4a ./rt-thread/components/finsh/shell.o
 .text.shell_push_history
                0x0000000080014c96      0x1f2 ./rt-thread/components/finsh/shell.o
 .text.finsh_thread_entry
                0x0000000080014e88      0x824 ./rt-thread/components/finsh/shell.o
                0x0000000080014e88                finsh_thread_entry
 .text.finsh_system_function_init
                0x00000000800156ac       0x2e ./rt-thread/components/finsh/shell.o
                0x00000000800156ac                finsh_system_function_init
 .text.finsh_system_init
                0x00000000800156da       0xc4 ./rt-thread/components/finsh/shell.o
                0x00000000800156da                finsh_system_init
 .text.rt_list_init
                0x000000008001579e       0x28 ./rt-thread/components/drivers/src/completion.o
 .text.rt_list_insert_before
                0x00000000800157c6       0x42 ./rt-thread/components/drivers/src/completion.o
 .text.rt_list_isempty
                0x0000000080015808       0x28 ./rt-thread/components/drivers/src/completion.o
 .text.rt_completion_init
                0x0000000080015830       0x42 ./rt-thread/components/drivers/src/completion.o
                0x0000000080015830                rt_completion_init
 .text.rt_completion_wait
                0x0000000080015872       0xf0 ./rt-thread/components/drivers/src/completion.o
                0x0000000080015872                rt_completion_wait
 .text.rt_completion_done
                0x0000000080015962       0x82 ./rt-thread/components/drivers/src/completion.o
                0x0000000080015962                rt_completion_done
 .text.rt_spi_bus_register
                0x00000000800159e4       0x6e ./rt-thread/components/drivers/spi/spi_core.o
                0x00000000800159e4                rt_spi_bus_register
 .text.rt_spi_transfer
                0x0000000080015a52      0x11c ./rt-thread/components/drivers/spi/spi_core.o
                0x0000000080015a52                rt_spi_transfer
 .text._spi_bus_device_read
                0x0000000080015b6e       0x42 ./rt-thread/components/drivers/spi/spi_dev.o
 .text._spi_bus_device_write
                0x0000000080015bb0       0x42 ./rt-thread/components/drivers/spi/spi_dev.o
 .text._spi_bus_device_control
                0x0000000080015bf2       0x1e ./rt-thread/components/drivers/spi/spi_dev.o
 .text.rt_spi_bus_device_init
                0x0000000080015c10       0x7c ./rt-thread/components/drivers/spi/spi_dev.o
                0x0000000080015c10                rt_spi_bus_device_init
 .text._serial_poll_rx
                0x0000000080015c8c       0x9a ./rt-thread/components/drivers/serial/serial.o
 .text._serial_poll_tx
                0x0000000080015d26       0x96 ./rt-thread/components/drivers/serial/serial.o
 .text._serial_int_rx
                0x0000000080015dbc      0x110 ./rt-thread/components/drivers/serial/serial.o
 .text._serial_int_tx
                0x0000000080015ecc       0xc8 ./rt-thread/components/drivers/serial/serial.o
 .text._serial_check_buffer_size
                0x0000000080015f94       0x22 ./rt-thread/components/drivers/serial/serial.o
 .text.rt_serial_init
                0x0000000080015fb6       0x5c ./rt-thread/components/drivers/serial/serial.o
 .text.rt_serial_open
                0x0000000080016012      0x268 ./rt-thread/components/drivers/serial/serial.o
 .text.rt_serial_close
                0x000000008001627a      0x110 ./rt-thread/components/drivers/serial/serial.o
 .text.rt_serial_read
                0x000000008001638a       0x6c ./rt-thread/components/drivers/serial/serial.o
 .text.rt_serial_write
                0x00000000800163f6       0x6c ./rt-thread/components/drivers/serial/serial.o
 .text.rt_serial_control
                0x0000000080016462      0x118 ./rt-thread/components/drivers/serial/serial.o
 .text.rt_hw_serial_register
                0x000000008001657a       0xbe ./rt-thread/components/drivers/serial/serial.o
                0x000000008001657a                rt_hw_serial_register
 .text.rt_hw_serial_isr
                0x0000000080016638      0x1d4 ./rt-thread/components/drivers/serial/serial.o
                0x0000000080016638                rt_hw_serial_isr
 .text.set_date
                0x000000008001680c       0xae ./rt-thread/components/drivers/rtc/rtc.o
                0x000000008001680c                set_date
 .text.set_time
                0x00000000800168ba       0xa8 ./rt-thread/components/drivers/rtc/rtc.o
                0x00000000800168ba                set_time
 .text.date     0x0000000080016962      0x1ee ./rt-thread/components/drivers/rtc/rtc.o
 .text._pin_read
                0x0000000080016b50       0x72 ./rt-thread/components/drivers/misc/pin.o
 .text._pin_write
                0x0000000080016bc2       0x6e ./rt-thread/components/drivers/misc/pin.o
 .text._pin_control
                0x0000000080016c30       0x5e ./rt-thread/components/drivers/misc/pin.o
 .text.rt_device_pin_register
                0x0000000080016c8e       0xcc ./rt-thread/components/drivers/misc/pin.o
                0x0000000080016c8e                rt_device_pin_register
 .text.pllctl_get_div
                0x0000000080016d5a       0x76 ./libraries/hpm_sdk/soc/HPM6750/hpm_clock_drv.o
 .text.clock_get_frequency
                0x0000000080016dd0       0xe8 ./libraries/hpm_sdk/soc/HPM6750/hpm_clock_drv.o
                0x0000000080016dd0                clock_get_frequency
 .text.get_frequency_for_source
                0x0000000080016eb8      0x130 ./libraries/hpm_sdk/soc/HPM6750/hpm_clock_drv.o
 .text.get_frequency_for_ip_in_common_group
                0x0000000080016fe8       0x8a ./libraries/hpm_sdk/soc/HPM6750/hpm_clock_drv.o
 .text.get_frequency_for_i2s_or_adc
                0x0000000080017072       0xf0 ./libraries/hpm_sdk/soc/HPM6750/hpm_clock_drv.o
 .text.get_frequency_for_wdg
                0x0000000080017162       0x44 ./libraries/hpm_sdk/soc/HPM6750/hpm_clock_drv.o
 .text.clock_set_source_divider
                0x00000000800171a6      0x1a0 ./libraries/hpm_sdk/soc/HPM6750/hpm_clock_drv.o
                0x00000000800171a6                clock_set_source_divider
 .text.clock_add_to_group
                0x0000000080017346       0x6a ./libraries/hpm_sdk/soc/HPM6750/hpm_clock_drv.o
                0x0000000080017346                clock_add_to_group
 .text.clock_connect_group_to_cpu
                0x00000000800173b0       0x3c ./libraries/hpm_sdk/soc/HPM6750/hpm_clock_drv.o
                0x00000000800173b0                clock_connect_group_to_cpu
 .text.l1c_dc_enable
                0x00000000800173ec       0x40 ./libraries/hpm_sdk/soc/HPM6750/hpm_l1c_drv.o
                0x00000000800173ec                l1c_dc_enable
 .text.l1c_ic_enable
                0x000000008001742c       0x38 ./libraries/hpm_sdk/soc/HPM6750/hpm_l1c_drv.o
                0x000000008001742c                l1c_ic_enable
 .text.sysctl_clock_target_is_busy
                0x0000000080017464       0x36 ./libraries/hpm_sdk/soc/HPM6750/hpm_sysctl_drv.o
 .text.sysctl_enable_group_resource
                0x000000008001749a       0xf8 ./libraries/hpm_sdk/soc/HPM6750/hpm_sysctl_drv.o
                0x000000008001749a                sysctl_enable_group_resource
 .text.sysctl_add_resource_to_cpu0
                0x0000000080017592       0x2c ./libraries/hpm_sdk/soc/HPM6750/hpm_sysctl_drv.o
                0x0000000080017592                sysctl_add_resource_to_cpu0
 .text.sysctl_config_clock
                0x00000000800175be       0xa2 ./libraries/hpm_sdk/soc/HPM6750/hpm_sysctl_drv.o
                0x00000000800175be                sysctl_config_clock
 .text.dram_enable
                0x0000000080017660       0x22 ./libraries/hpm_sdk/drivers/src/hpm_dram_drv.o
 .text.dram_disable
                0x0000000080017682       0x30 ./libraries/hpm_sdk/drivers/src/hpm_dram_drv.o
 .text.dram_sw_reset
                0x00000000800176b2       0x28 ./libraries/hpm_sdk/drivers/src/hpm_dram_drv.o
 .text.dram_config_delay_cell
                0x00000000800176da       0x56 ./libraries/hpm_sdk/drivers/src/hpm_dram_drv.o
 .text.dram_ip_cmd_done
                0x0000000080017730       0x7c ./libraries/hpm_sdk/drivers/src/hpm_dram_drv.o
 .text.dram_make_cmd
                0x00000000800177ac       0x1c ./libraries/hpm_sdk/drivers/src/hpm_dram_drv.o
 .text.dram_is_write_cmd
                0x00000000800177c8       0x1c ./libraries/hpm_sdk/drivers/src/hpm_dram_drv.o
 .text.dram_issue_ip_cmd
                0x00000000800177e4       0xa6 ./libraries/hpm_sdk/drivers/src/hpm_dram_drv.o
                0x00000000800177e4                dram_issue_ip_cmd
 .text.dram_default_config
                0x000000008001788a       0xb4 ./libraries/hpm_sdk/drivers/src/hpm_dram_drv.o
                0x000000008001788a                dram_default_config
 .text.dram_init
                0x000000008001793e      0x17c ./libraries/hpm_sdk/drivers/src/hpm_dram_drv.o
                0x000000008001793e                dram_init
 .text.dram_convert_actual_size_to_memory_size
                0x0000000080017aba       0x68 ./libraries/hpm_sdk/drivers/src/hpm_dram_drv.o
 .text.dram_convert_burst_len
                0x0000000080017b22       0x66 ./libraries/hpm_sdk/drivers/src/hpm_dram_drv.o
 .text.ns2cycle
                0x0000000080017b88       0x46 ./libraries/hpm_sdk/drivers/src/hpm_dram_drv.o
 .text.dram_config_sdram
                0x0000000080017bce      0x48e ./libraries/hpm_sdk/drivers/src/hpm_dram_drv.o
                0x0000000080017bce                dram_config_sdram
 .text.gpio_config_pin_interrupt
                0x000000008001805c      0x106 ./libraries/hpm_sdk/drivers/src/hpm_gpio_drv.o
                0x000000008001805c                gpio_config_pin_interrupt
 .text.pllctl_pll_powerdown
                0x0000000080018162       0x58 ./libraries/hpm_sdk/drivers/src/hpm_pllctl_drv.o
 .text.pllctl_pll_poweron
                0x00000000800181ba       0xcc ./libraries/hpm_sdk/drivers/src/hpm_pllctl_drv.o
 .text.pllctl_init_int_pll_with_freq
                0x0000000080018286      0x29e ./libraries/hpm_sdk/drivers/src/hpm_pllctl_drv.o
                0x0000000080018286                pllctl_init_int_pll_with_freq
 .text.pllctl_get_pll_freq_in_hz
                0x0000000080018524      0x17c ./libraries/hpm_sdk/drivers/src/hpm_pllctl_drv.o
                0x0000000080018524                pllctl_get_pll_freq_in_hz
 .text.read_pmp_cfg
                0x00000000800186a0       0x9e ./libraries/hpm_sdk/drivers/src/hpm_pmp_drv.o
                0x00000000800186a0                read_pmp_cfg
 .text.read_pma_cfg
                0x000000008001873e       0x9e ./libraries/hpm_sdk/drivers/src/hpm_pmp_drv.o
                0x000000008001873e                read_pma_cfg
 .text.write_pmp_cfg
                0x00000000800187dc       0x7a ./libraries/hpm_sdk/drivers/src/hpm_pmp_drv.o
                0x00000000800187dc                write_pmp_cfg
 .text.write_pma_cfg
                0x0000000080018856       0x7a ./libraries/hpm_sdk/drivers/src/hpm_pmp_drv.o
                0x0000000080018856                write_pma_cfg
 .text.write_pmp_addr
                0x00000000800188d0       0xd8 ./libraries/hpm_sdk/drivers/src/hpm_pmp_drv.o
                0x00000000800188d0                write_pmp_addr
 .text.write_pma_addr
                0x00000000800189a8       0xd8 ./libraries/hpm_sdk/drivers/src/hpm_pmp_drv.o
                0x00000000800189a8                write_pma_addr
 .text.pmp_config
                0x0000000080018a80      0x13e ./libraries/hpm_sdk/drivers/src/hpm_pmp_drv.o
                0x0000000080018a80                pmp_config
 .text.rtc_config_time
                0x0000000080018bbe       0x26 ./libraries/hpm_sdk/drivers/src/hpm_rtc_drv.o
                0x0000000080018bbe                rtc_config_time
 .text.rtc_get_time
                0x0000000080018be4       0x2a ./libraries/hpm_sdk/drivers/src/hpm_rtc_drv.o
                0x0000000080018be4                rtc_get_time
 .text.spi_wait_for_idle_status
                0x0000000080018c0e       0x26 ./libraries/hpm_sdk/drivers/src/hpm_spi_drv.o
 .text.spi_wait_for_busy_status
                0x0000000080018c34       0x26 ./libraries/hpm_sdk/drivers/src/hpm_spi_drv.o
 .text.spi_write_command
                0x0000000080018c5a       0x56 ./libraries/hpm_sdk/drivers/src/hpm_spi_drv.o
 .text.spi_read_command
                0x0000000080018cb0       0x36 ./libraries/hpm_sdk/drivers/src/hpm_spi_drv.o
 .text.spi_write_address
                0x0000000080018ce6       0x46 ./libraries/hpm_sdk/drivers/src/hpm_spi_drv.o
 .text.spi_write_data
                0x0000000080018d2c      0x120 ./libraries/hpm_sdk/drivers/src/hpm_spi_drv.o
 .text.spi_read_data
                0x0000000080018e4c      0x136 ./libraries/hpm_sdk/drivers/src/hpm_spi_drv.o
 .text.spi_write_read_data
                0x0000000080018f82      0x248 ./libraries/hpm_sdk/drivers/src/hpm_spi_drv.o
 .text.spi_no_data
                0x00000000800191ca       0x5e ./libraries/hpm_sdk/drivers/src/hpm_spi_drv.o
 .text.spi_master_get_default_timing_config
                0x0000000080019228       0x26 ./libraries/hpm_sdk/drivers/src/hpm_spi_drv.o
                0x0000000080019228                spi_master_get_default_timing_config
 .text.spi_master_get_default_format_config
                0x000000008001924e       0x5c ./libraries/hpm_sdk/drivers/src/hpm_spi_drv.o
                0x000000008001924e                spi_master_get_default_format_config
 .text.spi_master_get_default_control_config
                0x00000000800192aa       0x56 ./libraries/hpm_sdk/drivers/src/hpm_spi_drv.o
                0x00000000800192aa                spi_master_get_default_control_config
 .text.spi_master_timing_init
                0x0000000080019300       0x8a ./libraries/hpm_sdk/drivers/src/hpm_spi_drv.o
                0x0000000080019300                spi_master_timing_init
 .text.spi_format_init
                0x000000008001938a       0x9c ./libraries/hpm_sdk/drivers/src/hpm_spi_drv.o
                0x000000008001938a                spi_format_init
 .text.spi_transfer
                0x0000000080019426      0x2d2 ./libraries/hpm_sdk/drivers/src/hpm_spi_drv.o
                0x0000000080019426                spi_transfer
 .text.uart_modem_config
                0x00000000800196f8       0x4e ./libraries/hpm_sdk/drivers/src/hpm_uart_drv.o
 .text.uart_default_config
                0x0000000080019746       0x80 ./libraries/hpm_sdk/drivers/src/hpm_uart_drv.o
                0x0000000080019746                uart_default_config
 .text.uart_init
                0x00000000800197c6      0x1f4 ./libraries/hpm_sdk/drivers/src/hpm_uart_drv.o
                0x00000000800197c6                uart_init
 .text.uart_send_byte
                0x00000000800199ba       0x64 ./libraries/hpm_sdk/drivers/src/hpm_uart_drv.o
                0x00000000800199ba                uart_send_byte
 .text.uart_receive_byte
                0x0000000080019a1e       0x68 ./libraries/hpm_sdk/drivers/src/hpm_uart_drv.o
                0x0000000080019a1e                uart_receive_byte
 .text.gpio_read_pin
                0x0000000080019a86       0x42 ./libraries/drivers/drv_gpio.o
 .text.gpio_write_pin
                0x0000000080019ac8       0x64 ./libraries/drivers/drv_gpio.o
 .text.gpio_disable_pin_output
                0x0000000080019b2c       0x3a ./libraries/drivers/drv_gpio.o
 .text.gpio_enable_pin_output
                0x0000000080019b66       0x3a ./libraries/drivers/drv_gpio.o
 .text.gpio_check_pin_interrupt_flag
                0x0000000080019ba0       0x42 ./libraries/drivers/drv_gpio.o
 .text.gpio_clear_pin_interrupt_flag
                0x0000000080019be2       0x3a ./libraries/drivers/drv_gpio.o
 .text.gpio_enable_pin_interrupt
                0x0000000080019c1c       0x3a ./libraries/drivers/drv_gpio.o
 .text.gpio_disable_pin_interrupt
                0x0000000080019c56       0x3a ./libraries/drivers/drv_gpio.o
 .text.gpio_get_port_interrupt_flags
                0x0000000080019c90       0x30 ./libraries/drivers/drv_gpio.o
 .text.hpm_get_gpi_irq_num
                0x0000000080019cc0       0x68 ./libraries/drivers/drv_gpio.o
 .text.hpm_gpio_isr
                0x0000000080019d28       0xda ./libraries/drivers/drv_gpio.o
 .text.hpm_pin_mode
                0x0000000080019e02      0x198 ./libraries/drivers/drv_gpio.o
 .text.hpm_pin_read
                0x0000000080019f9a       0x46 ./libraries/drivers/drv_gpio.o
 .text.hpm_pin_write
                0x0000000080019fe0       0x52 ./libraries/drivers/drv_gpio.o
 .text.hpm_pin_attach_irq
                0x000000008001a032       0xd4 ./libraries/drivers/drv_gpio.o
 .text.hpm_pin_detach_irq
                0x000000008001a106       0xb2 ./libraries/drivers/drv_gpio.o
 .text.hpm_pin_irq_enable
                0x000000008001a1b8      0x1be ./libraries/drivers/drv_gpio.o
 .text.rt_hw_pin_init
                0x000000008001a376       0x34 ./libraries/drivers/drv_gpio.o
                0x000000008001a376                rt_hw_pin_init
 .text.hpm_rtc_init
                0x000000008001a3aa       0x14 ./libraries/drivers/drv_rtc.o
 .text.hpm_rtc_open
                0x000000008001a3be       0x1a ./libraries/drivers/drv_rtc.o
 .text.hpm_rtc_close
                0x000000008001a3d8       0x14 ./libraries/drivers/drv_rtc.o
 .text.hpm_rtc_read
                0x000000008001a3ec       0x20 ./libraries/drivers/drv_rtc.o
 .text.hpm_rtc_write
                0x000000008001a40c       0x20 ./libraries/drivers/drv_rtc.o
 .text.hpm_rtc_control
                0x000000008001a42c       0x66 ./libraries/drivers/drv_rtc.o
 .text.get_timestamp
                0x000000008001a492       0x2c ./libraries/drivers/drv_rtc.o
 .text.set_timestamp
                0x000000008001a4be       0x2c ./libraries/drivers/drv_rtc.o
 .text.rt_hw_rtc_init
                0x000000008001a4ea       0x44 ./libraries/drivers/drv_rtc.o
                0x000000008001a4ea                rt_hw_rtc_init
 .text.hpm_spi_configure
                0x000000008001a52e      0x178 ./libraries/drivers/drv_spi.o
 .text.hpm_spi_xfer
                0x000000008001a6a6      0x1b0 ./libraries/drivers/drv_spi.o
 .text.rt_hw_spi_init
                0x000000008001a856       0xf4 ./libraries/drivers/drv_spi.o
                0x000000008001a856                rt_hw_spi_init
 .text.uart_disable_irq
                0x000000008001a94a       0x2c ./libraries/drivers/drv_uart.o
 .text.uart_enable_irq
                0x000000008001a976       0x28 ./libraries/drivers/drv_uart.o
 .text.uart_check_status
                0x000000008001a99e       0x2a ./libraries/drivers/drv_uart.o
 .text.hpm_uart_isr
                0x000000008001a9c8       0x3a ./libraries/drivers/drv_uart.o
 .text.hpm_uart_configure
                0x000000008001aa02       0xbe ./libraries/drivers/drv_uart.o
 .text.hpm_uart_control
                0x000000008001aac0      0x19a ./libraries/drivers/drv_uart.o
 .text.hpm_uart_putc
                0x000000008001ac5a       0x3a ./libraries/drivers/drv_uart.o
 .text.hpm_uart_getc
                0x000000008001ac94       0x4e ./libraries/drivers/drv_uart.o
 .text.rt_hw_uart_init
                0x000000008001ace2      0x122 ./libraries/drivers/drv_uart.o
                0x000000008001ace2                rt_hw_uart_init
 .text.sysctl_clock_set_preset
                0x000000008001ae04       0x36 ./board/board.o
 .text.gptmr_check_status
                0x000000008001ae3a       0x34 ./board/board.o
 .text.gptmr_clear_status
                0x000000008001ae6e       0x2c ./board/board.o
 .text.board_init_uart
                0x000000008001ae9a       0x1e ./board/board.o
                0x000000008001ae9a                board_init_uart
 .text.board_init_sdram_pins
                0x000000008001aeb8       0x16 ./board/board.o
                0x000000008001aeb8                board_init_sdram_pins
 .text.board_init_dram_clock
                0x000000008001aece       0x30 ./board/board.o
                0x000000008001aece                board_init_dram_clock
 .text.board_init_uart_clock
                0x000000008001aefe      0x2fc ./board/board.o
                0x000000008001aefe                board_init_uart_clock
 .text.board_init_spi_clock
                0x000000008001b1fa      0x10e ./board/board.o
                0x000000008001b1fa                board_init_spi_clock
 .text.board_init_pmp
                0x000000008001b308       0xe6 ./board/board.o
                0x000000008001b308                board_init_pmp
 .text.board_init_clock
                0x000000008001b3ee      0x4e6 ./board/board.o
                0x000000008001b3ee                board_init_clock
 .text._init_ext_ram
                0x000000008001b8d4      0x128 ./board/board.o
                0x000000008001b8d4                _init_ext_ram
 .text.init_uart_pins
                0x000000008001b9fc      0x104 ./board/pinmux.o
                0x000000008001b9fc                init_uart_pins
 .text.init_sdram_pins
                0x000000008001bb00      0x196 ./board/pinmux.o
                0x000000008001bb00                init_sdram_pins
 .text.init_spi_pins
                0x000000008001bc96       0xb6 ./board/pinmux.o
                0x000000008001bc96                init_spi_pins
 .text.gpio_write_pin
                0x000000008001bd4c       0x64 ./board/rtt_board.o
 .text.gpio_enable_pin_output
                0x000000008001bdb0       0x3a ./board/rtt_board.o
 .text.mchtmr_set_compare_value
                0x000000008001bdea       0x2a ./board/rtt_board.o
 .text.rtt_board_init
                0x000000008001be14       0x1a ./board/rtt_board.o
                0x000000008001be14                rtt_board_init
 .text.app_init_led_pins
                0x000000008001be2e       0x60 ./board/rtt_board.o
                0x000000008001be2e                app_init_led_pins
 .text.app_led_write
                0x000000008001be8e       0x80 ./board/rtt_board.o
                0x000000008001be8e                app_led_write
 .text.os_tick_config
                0x000000008001bf0e       0x46 ./board/rtt_board.o
                0x000000008001bf0e                os_tick_config
 .text.rt_hw_board_init
                0x000000008001bf54       0x4a ./board/rtt_board.o
                0x000000008001bf54                rt_hw_board_init
 .text.rt_hw_console_output
                0x000000008001bf9e       0x42 ./board/rtt_board.o
                0x000000008001bf9e                rt_hw_console_output
 .text.main     0x000000008001bfe0       0x50 ./applications/main.o
                0x000000008001bfe0                main
 .text.thread_entry
                0x000000008001c030       0x86 ./applications/main.o
                0x000000008001c030                thread_entry
 *(.rodata)
 *fill*         0x000000008001c0b6        0x2 
 .rodata        0x000000008001c0b8        0x5 ./rt-thread/src/components.o
 *fill*         0x000000008001c0bd        0x3 
 .rodata        0x000000008001c0c0       0x36 ./rt-thread/src/device.o
 *fill*         0x000000008001c0f6        0x2 
 .rodata        0x000000008001c0f8       0x30 ./rt-thread/components/libc/compilers/common/time.o
 .rodata        0x000000008001c128      0x665 ./rt-thread/components/finsh/cmd.o
 *fill*         0x000000008001c78d        0x3 
 .rodata        0x000000008001c790       0x6c ./rt-thread/components/finsh/msh.o
 .rodata        0x000000008001c7fc       0x71 ./rt-thread/components/finsh/shell.o
 *fill*         0x000000008001c86d        0x3 
 .rodata        0x000000008001c870      0x12f ./rt-thread/components/drivers/rtc/rtc.o
 *fill*         0x000000008001c99f        0x1 
 .rodata        0x000000008001c9a0       0x10 ./libraries/hpm_sdk/drivers/src/hpm_pllctl_drv.o
 .rodata        0x000000008001c9b0        0x4 ./libraries/drivers/drv_gpio.o
 .rodata        0x000000008001c9b4        0x4 ./libraries/drivers/drv_rtc.o
 .rodata        0x000000008001c9b8        0xd ./libraries/drivers/drv_spi.o
 *fill*         0x000000008001c9c5        0x3 
 .rodata        0x000000008001c9c8        0x6 ./libraries/drivers/drv_uart.o
 *fill*         0x000000008001c9ce        0x2 
 .rodata        0x000000008001c9d0      0x4cd ./board/board.o
 *fill*         0x000000008001ce9d        0x3 
 .rodata        0x000000008001cea0        0x6 ./board/rtt_board.o
 *fill*         0x000000008001cea6        0x2 
 .rodata        0x000000008001cea8        0x7 ./applications/main.o
 *fill*         0x000000008001ceaf        0x1 
 .rodata        0x000000008001ceb0      0x18c f:/developsoft/rt-threadstudio/repo/extract/toolchain_support_packages/risc-v/risc-v-gcc/10.1.0/bin/../lib/gcc/riscv64-unknown-elf/10.1.0/../../../../riscv64-unknown-elf/lib/rv32imac/ilp32\libc.a(lib_a-svfprintf.o)
 .rodata        0x000000008001d03c      0x18c f:/developsoft/rt-threadstudio/repo/extract/toolchain_support_packages/risc-v/risc-v-gcc/10.1.0/bin/../lib/gcc/riscv64-unknown-elf/10.1.0/../../../../riscv64-unknown-elf/lib/rv32imac/ilp32\libc.a(lib_a-vfiprintf.o)
 .rodata        0x000000008001d1c8      0x18c f:/developsoft/rt-threadstudio/repo/extract/toolchain_support_packages/risc-v/risc-v-gcc/10.1.0/bin/../lib/gcc/riscv64-unknown-elf/10.1.0/../../../../riscv64-unknown-elf/lib/rv32imac/ilp32\libc.a(lib_a-vfprintf.o)
 .rodata        0x000000008001d354      0x101 f:/developsoft/rt-threadstudio/repo/extract/toolchain_support_packages/risc-v/risc-v-gcc/10.1.0/bin/../lib/gcc/riscv64-unknown-elf/10.1.0/../../../../riscv64-unknown-elf/lib/rv32imac/ilp32\libc.a(lib_a-ctype_.o)
                0x000000008001d354                _ctype_
 *fill*         0x000000008001d455        0x3 
 .rodata        0x000000008001d458      0x252 f:/developsoft/rt-threadstudio/repo/extract/toolchain_support_packages/risc-v/risc-v-gcc/10.1.0/bin/../lib/gcc/riscv64-unknown-elf/10.1.0/../../../../riscv64-unknown-elf/lib/rv32imac/ilp32\libc.a(lib_a-ldtoa.o)
 *fill*         0x000000008001d6aa        0x6 
 .rodata        0x000000008001d6b0      0x128 f:/developsoft/rt-threadstudio/repo/extract/toolchain_support_packages/risc-v/risc-v-gcc/10.1.0/bin/../lib/gcc/riscv64-unknown-elf/10.1.0/../../../../riscv64-unknown-elf/lib/rv32imac/ilp32\libc.a(lib_a-mprec.o)
                0x000000008001d6c0                __mprec_tens
                0x000000008001d788                __mprec_tinytens
                0x000000008001d7b0                __mprec_bigtens
 .rodata        0x000000008001d7d8      0x18c f:/developsoft/rt-threadstudio/repo/extract/toolchain_support_packages/risc-v/risc-v-gcc/10.1.0/bin/../lib/gcc/riscv64-unknown-elf/10.1.0/../../../../riscv64-unknown-elf/lib/rv32imac/ilp32\libc.a(lib_a-svfiprintf.o)
 .rodata        0x000000008001d964       0x3c f:/developsoft/rt-threadstudio/repo/extract/toolchain_support_packages/risc-v/risc-v-gcc/10.1.0/bin/../lib/gcc/riscv64-unknown-elf/10.1.0/rv32imac/ilp32\libgcc.a(divdf3.o)
 .rodata        0x000000008001d9a0       0x3c f:/developsoft/rt-threadstudio/repo/extract/toolchain_support_packages/risc-v/risc-v-gcc/10.1.0/bin/../lib/gcc/riscv64-unknown-elf/10.1.0/rv32imac/ilp32\libgcc.a(muldf3.o)
 .rodata        0x000000008001d9dc       0x3c f:/developsoft/rt-threadstudio/repo/extract/toolchain_support_packages/risc-v/risc-v-gcc/10.1.0/bin/../lib/gcc/riscv64-unknown-elf/10.1.0/rv32imac/ilp32\libgcc.a(multf3.o)
 .rodata        0x000000008001da18      0x100 f:/developsoft/rt-threadstudio/repo/extract/toolchain_support_packages/risc-v/risc-v-gcc/10.1.0/bin/../lib/gcc/riscv64-unknown-elf/10.1.0/rv32imac/ilp32\libgcc.a(_clz.o)
                0x000000008001da18                __clz_tab
 *(.rodata*)
 .rodata.__spm  0x000000008001db18       0x1a ./rt-thread/components/libc/compilers/common/time.o
 *fill*         0x000000008001db32        0x2 
 .rodata.days   0x000000008001db34       0x1d ./rt-thread/components/libc/compilers/common/time.o
 *fill*         0x000000008001db51        0x3 
 .rodata.months
                0x000000008001db54       0x31 ./rt-thread/components/libc/compilers/common/time.o
 *fill*         0x000000008001db85        0x3 
 .rodata.name   0x000000008001db88      0x1e4 ./rt-thread/components/finsh/cmd.o
                0x000000008001db88                __fsym_hello_name
                0x000000008001db90                __fsym_hello_desc
                0x000000008001dba0                __fsym_clear_name
                0x000000008001dba8                __fsym_clear_desc
                0x000000008001dbc4                __fsym_version_name
                0x000000008001dbcc                __fsym_version_desc
                0x000000008001dbf4                __fsym_list_thread_name
                0x000000008001dc00                __fsym_list_thread_desc
                0x000000008001dc0c                __fsym_list_sem_name
                0x000000008001dc18                __fsym_list_sem_desc
                0x000000008001dc34                __fsym_list_event_name
                0x000000008001dc40                __fsym_list_event_desc
                0x000000008001dc58                __fsym_list_mutex_name
                0x000000008001dc64                __fsym_list_mutex_desc
                0x000000008001dc7c                __fsym_list_mailbox_name
                0x000000008001dc8c                __fsym_list_mailbox_desc
                0x000000008001dca4                __fsym_list_msgqueue_name
                0x000000008001dcb4                __fsym_list_msgqueue_desc
                0x000000008001dcd4                __fsym_list_mempool_name
                0x000000008001dce4                __fsym_list_mempool_desc
                0x000000008001dd00                __fsym_list_timer_name
                0x000000008001dd0c                __fsym_list_timer_desc
                0x000000008001dd24                __fsym_list_device_name
                0x000000008001dd30                __fsym_list_device_desc
                0x000000008001dd48                __fsym_list_name
                0x000000008001dd50                __fsym_list_desc
 .rodata.device_type_str
                0x000000008001dd6c       0x64 ./rt-thread/components/finsh/cmd.o
 .rodata.name   0x000000008001ddd0       0x6d ./rt-thread/components/finsh/msh.o
                0x000000008001ddd0                __fsym_help_name
                0x000000008001ddd8                __fsym_help_desc
                0x000000008001ddf0                __fsym_ps_name
                0x000000008001ddf4                __fsym_ps_desc
                0x000000008001de10                __fsym_free_name
                0x000000008001de18                __fsym_free_desc
 *fill*         0x000000008001de3d        0x3 
 .rodata.name   0x000000008001de40       0x50 ./rt-thread/components/drivers/rtc/rtc.o
                0x000000008001de40                __fsym_date_name
                0x000000008001de48                __fsym_date_desc
 .rodata.s_adc_clk_mux_node
                0x000000008001de90       0x10 ./libraries/hpm_sdk/soc/HPM6750/hpm_clock_drv.o
 .rodata.s_wdgs
                0x000000008001dea0       0x10 ./libraries/hpm_sdk/soc/HPM6750/hpm_clock_drv.o
 .rodata.clock_get_frequency
                0x000000008001deb0       0x30 ./libraries/hpm_sdk/soc/HPM6750/hpm_clock_drv.o
 .rodata.get_frequency_for_source
                0x000000008001dee0       0x20 ./libraries/hpm_sdk/soc/HPM6750/hpm_clock_drv.o
 .rodata.clock_set_source_divider
                0x000000008001df00       0x30 ./libraries/hpm_sdk/soc/HPM6750/hpm_clock_drv.o
 .rodata.write_pmp_addr
                0x000000008001df30       0x40 ./libraries/hpm_sdk/drivers/src/hpm_pmp_drv.o
 .rodata.write_pma_addr
                0x000000008001df70       0x40 ./libraries/hpm_sdk/drivers/src/hpm_pmp_drv.o
 .rodata.uart_init
                0x000000008001dfb0       0x14 ./libraries/hpm_sdk/drivers/src/hpm_uart_drv.o
 .rodata.hpm_gpio_irq_map
                0x000000008001dfc4       0x48 ./libraries/drivers/drv_gpio.o
 .rodata.hpm_pin_mode
                0x000000008001e00c       0x14 ./libraries/drivers/drv_gpio.o
 .rodata.hpm_pin_ops
                0x000000008001e020       0x1c ./libraries/drivers/drv_gpio.o
 .rodata.uarts  0x000000008001e03c       0x10 ./libraries/drivers/drv_uart.o
 .rodata.hpm_uart_ops
                0x000000008001e04c       0x14 ./libraries/drivers/drv_uart.o
 .rodata.__func__.0
                0x000000008001e060        0xf ./board/board.o
 *fill*         0x000000008001e06f        0x1 
 .rodata.str1.4
                0x000000008001e070       0x3f f:/developsoft/rt-threadstudio/repo/extract/toolchain_support_packages/risc-v/risc-v-gcc/10.1.0/bin/../lib/gcc/riscv64-unknown-elf/10.1.0/../../../../riscv64-unknown-elf/lib/rv32imac/ilp32\libc.a(lib_a-assert.o)
                                         0x43 (size before relaxing)
 *fill*         0x000000008001e0af        0x1 
 .rodata.str1.4
                0x000000008001e0b0       0x42 f:/developsoft/rt-threadstudio/repo/extract/toolchain_support_packages/risc-v/risc-v-gcc/10.1.0/bin/../lib/gcc/riscv64-unknown-elf/10.1.0/../../../../riscv64-unknown-elf/lib/rv32imac/ilp32\libc.a(lib_a-svfprintf.o)
 .rodata.str1.4
                0x000000008001e0f2       0x2f f:/developsoft/rt-threadstudio/repo/extract/toolchain_support_packages/risc-v/risc-v-gcc/10.1.0/bin/../lib/gcc/riscv64-unknown-elf/10.1.0/../../../../riscv64-unknown-elf/lib/rv32imac/ilp32\libc.a(lib_a-vfiprintf.o)
 .rodata.str1.4
                0x000000008001e0f2       0x42 f:/developsoft/rt-threadstudio/repo/extract/toolchain_support_packages/risc-v/risc-v-gcc/10.1.0/bin/../lib/gcc/riscv64-unknown-elf/10.1.0/../../../../riscv64-unknown-elf/lib/rv32imac/ilp32\libc.a(lib_a-vfprintf.o)
 *fill*         0x000000008001e0f2        0x2 
 .rodata.str1.4
                0x000000008001e0f4       0x26 f:/developsoft/rt-threadstudio/repo/extract/toolchain_support_packages/risc-v/risc-v-gcc/10.1.0/bin/../lib/gcc/riscv64-unknown-elf/10.1.0/../../../../riscv64-unknown-elf/lib/rv32imac/ilp32\libc.a(lib_a-ldtoa.o)
 *fill*         0x000000008001e11a        0x2 
 .rodata.str1.4
                0x000000008001e11c        0xe f:/developsoft/rt-threadstudio/repo/extract/toolchain_support_packages/risc-v/risc-v-gcc/10.1.0/bin/../lib/gcc/riscv64-unknown-elf/10.1.0/../../../../riscv64-unknown-elf/lib/rv32imac/ilp32\libc.a(lib_a-locale.o)
                                         0x12 (size before relaxing)
 *fill*         0x000000008001e12a        0x2 
 .rodata.str1.4
                0x000000008001e12c       0x79 f:/developsoft/rt-threadstudio/repo/extract/toolchain_support_packages/risc-v/risc-v-gcc/10.1.0/bin/../lib/gcc/riscv64-unknown-elf/10.1.0/../../../../riscv64-unknown-elf/lib/rv32imac/ilp32\libc.a(lib_a-mprec.o)
 .rodata.str1.4
                0x000000008001e1a5       0x2f f:/developsoft/rt-threadstudio/repo/extract/toolchain_support_packages/risc-v/risc-v-gcc/10.1.0/bin/../lib/gcc/riscv64-unknown-elf/10.1.0/../../../../riscv64-unknown-elf/lib/rv32imac/ilp32\libc.a(lib_a-svfiprintf.o)
 *(.srodata)
 *fill*         0x000000008001e1a5        0x3 
 .srodata       0x000000008001e1a8        0x4 f:/developsoft/rt-threadstudio/repo/extract/toolchain_support_packages/risc-v/risc-v-gcc/10.1.0/bin/../lib/gcc/riscv64-unknown-elf/10.1.0/../../../../riscv64-unknown-elf/lib/rv32imac/ilp32\libc.a(lib_a-impure.o)
                0x000000008001e1a8                _global_impure_ptr
 *(.srodata*)
 *fill*         0x000000008001e1ac        0x4 
 .srodata.cst8  0x000000008001e1b0       0x10 f:/developsoft/rt-threadstudio/repo/extract/toolchain_support_packages/risc-v/risc-v-gcc/10.1.0/bin/../lib/gcc/riscv64-unknown-elf/10.1.0/../../../../riscv64-unknown-elf/lib/rv32imac/ilp32\libc.a(lib_a-mprec.o)
 .srodata.cst8  0x000000008001e1c0        0x8 f:/developsoft/rt-threadstudio/repo/extract/toolchain_support_packages/risc-v/risc-v-gcc/10.1.0/bin/../lib/gcc/riscv64-unknown-elf/10.1.0/../../../../riscv64-unknown-elf/lib/rv32imac/ilp32\libc.a(lib_a-s_frexp.o)
 *(.hash)
 *(.dyn*)
 *(.gnu*)
 *(.pl*)
 *(.eh_frame)
 .eh_frame      0x000000008001e1c8       0x28 f:/developsoft/rt-threadstudio/repo/extract/toolchain_support_packages/risc-v/risc-v-gcc/10.1.0/bin/../lib/gcc/riscv64-unknown-elf/10.1.0/rv32imac/ilp32\libgcc.a(_divdi3.o)
 .eh_frame      0x000000008001e1f0       0x28 f:/developsoft/rt-threadstudio/repo/extract/toolchain_support_packages/risc-v/risc-v-gcc/10.1.0/bin/../lib/gcc/riscv64-unknown-elf/10.1.0/rv32imac/ilp32\libgcc.a(_moddi3.o)
 .eh_frame      0x000000008001e218       0x28 f:/developsoft/rt-threadstudio/repo/extract/toolchain_support_packages/risc-v/risc-v-gcc/10.1.0/bin/../lib/gcc/riscv64-unknown-elf/10.1.0/rv32imac/ilp32\libgcc.a(_udivdi3.o)
 .eh_frame      0x000000008001e240       0x28 f:/developsoft/rt-threadstudio/repo/extract/toolchain_support_packages/risc-v/risc-v-gcc/10.1.0/bin/../lib/gcc/riscv64-unknown-elf/10.1.0/rv32imac/ilp32\libgcc.a(_umoddi3.o)
 *(.eh_frame*)
 *(.init)
 *(.fini)
                0x000000008001e268                . = ALIGN (0x8)
                0x000000008001e268                . = ALIGN (0x4)
                0x000000008001e268                __fsymtab_start = .
 *(FSymTab)
 FSymTab        0x000000008001e268       0x9c ./rt-thread/components/finsh/cmd.o
                0x000000008001e268                __fsym_hello
                0x000000008001e274                __fsym_clear
                0x000000008001e280                __fsym_version
                0x000000008001e28c                __fsym_list_thread
                0x000000008001e298                __fsym_list_sem
                0x000000008001e2a4                __fsym_list_event
                0x000000008001e2b0                __fsym_list_mutex
                0x000000008001e2bc                __fsym_list_mailbox
                0x000000008001e2c8                __fsym_list_msgqueue
                0x000000008001e2d4                __fsym_list_mempool
                0x000000008001e2e0                __fsym_list_timer
                0x000000008001e2ec                __fsym_list_device
                0x000000008001e2f8                __fsym_list
 FSymTab        0x000000008001e304       0x24 ./rt-thread/components/finsh/msh.o
                0x000000008001e304                __fsym_help
                0x000000008001e310                __fsym_ps
                0x000000008001e31c                __fsym_free
 FSymTab        0x000000008001e328        0xc ./rt-thread/components/drivers/rtc/rtc.o
                0x000000008001e328                __fsym_date
                0x000000008001e334                __fsymtab_end = .
                0x000000008001e334                . = ALIGN (0x4)
                0x000000008001e334                __vsymtab_start = .
 *(VSymTab)
                0x000000008001e334                __vsymtab_end = .
                0x000000008001e334                . = ALIGN (0x4)
                0x000000008001e334                . = ALIGN (0x4)
                0x000000008001e334                __rt_init_start = .
 *(SORT_BY_NAME(.rti_fn*))
 .rti_fn.0      0x000000008001e334        0x4 ./rt-thread/src/components.o
                0x000000008001e334                __rt_init_rti_start
 .rti_fn.0.end  0x000000008001e338        0x4 ./rt-thread/src/components.o
                0x000000008001e338                __rt_init_rti_board_start
 .rti_fn.1      0x000000008001e33c        0x4 ./libraries/drivers/drv_gpio.o
                0x000000008001e33c                __rt_init_rt_hw_pin_init
 .rti_fn.1      0x000000008001e340        0x4 ./libraries/drivers/drv_spi.o
                0x000000008001e340                __rt_init_rt_hw_spi_init
 .rti_fn.1      0x000000008001e344        0x4 ./libraries/drivers/drv_uart.o
                0x000000008001e344                __rt_init_rt_hw_uart_init
 .rti_fn.1.end  0x000000008001e348        0x4 ./rt-thread/src/components.o
                0x000000008001e348                __rt_init_rti_board_end
 .rti_fn.3      0x000000008001e34c        0x4 ./libraries/drivers/drv_rtc.o
                0x000000008001e34c                __rt_init_rt_hw_rtc_init
 .rti_fn.4      0x000000008001e350        0x4 ./rt-thread/components/libc/compilers/gcc/newlib/libc.o
                0x000000008001e350                __rt_init_libc_system_init
 .rti_fn.6      0x000000008001e354        0x4 ./rt-thread/components/finsh/shell.o
                0x000000008001e354                __rt_init_finsh_system_init
 .rti_fn.6.end  0x000000008001e358        0x4 ./rt-thread/src/components.o
                0x000000008001e358                __rt_init_rti_end
                0x000000008001e35c                __rt_init_end = .
                0x000000008001e35c                . = ALIGN (0x4)
                0x000000008001e35c                . = ALIGN (0x4)
                0x000000008001e35c                __rtmsymtab_start = .
 *(RTMSymTab)
                0x000000008001e35c                __rtmsymtab_end = .

.rel            0x000000008001e35c        0x0
 *(.rel*)
 .rela.start    0x000000008001e35c        0x0 ./startup/start.o
 .rela.vector_table
                0x000000008001e35c        0x0 ./startup/start.o
 .rela.text.c_startup
                0x000000008001e35c        0x0 ./startup/start.o
 .rela.text.reset_handler
                0x000000008001e35c        0x0 ./startup/start.o
 .rela.isr_vector
                0x000000008001e35c        0x0 ./startup/start.o
 .rela.text.rt_device_open
                0x000000008001e35c        0x0 ./startup/start.o
 .rela.text.rt_get_errno
                0x000000008001e35c        0x0 ./startup/start.o
 .rela.text.rt_set_errno
                0x000000008001e35c        0x0 ./startup/start.o
 .rela.text._rt_errno
                0x000000008001e35c        0x0 ./startup/start.o
 .rela.text.rt_show_version
                0x000000008001e35c        0x0 ./startup/start.o
 .rela.text.rt_snprintf
                0x000000008001e35c        0x0 ./startup/start.o
 .rela.text.rt_vsprintf
                0x000000008001e35c        0x0 ./startup/start.o
 .rela.text.rt_kprintf
                0x000000008001e35c        0x0 ./startup/start.o
 .rela.text.rt_system_heap_init
                0x000000008001e35c        0x0 ./startup/start.o
 .rela.text.rt_free
                0x000000008001e35c        0x0 ./startup/start.o
 .rela.text.list_mem
                0x000000008001e35c        0x0 ./startup/start.o
 .rela.text._rt_scheduler_stack_check
                0x000000008001e35c        0x0 ./startup/start.o
 .rela.text.rt_hw_cpu_shutdown
                0x000000008001e35c        0x0 ./startup/start.o
 .rela.text.get_timeval
                0x000000008001e35c        0x0 ./startup/start.o
 .rela.text.hello
                0x000000008001e35c        0x0 ./startup/start.o
 .rela.text.clear
                0x000000008001e35c        0x0 ./startup/start.o
 .rela.text.object_split
                0x000000008001e35c        0x0 ./startup/start.o
 .rela.text.list_thread
                0x000000008001e35c        0x0 ./startup/start.o
 .rela.text.show_wait_queue
                0x000000008001e35c        0x0 ./startup/start.o
 .rela.text.list_sem
                0x000000008001e35c        0x0 ./startup/start.o
 .rela.text.list_event
                0x000000008001e35c        0x0 ./startup/start.o
 .rela.text.list_mutex
                0x000000008001e35c        0x0 ./startup/start.o
 .rela.text.list_mailbox
                0x000000008001e35c        0x0 ./startup/start.o
 .rela.text.list_msgqueue
                0x000000008001e35c        0x0 ./startup/start.o
 .rela.text.list_mempool
                0x000000008001e35c        0x0 ./startup/start.o
 .rela.text.list_timer
                0x000000008001e35c        0x0 ./startup/start.o
 .rela.text.list_device
                0x000000008001e35c        0x0 ./startup/start.o
 .rela.text.list
                0x000000008001e35c        0x0 ./startup/start.o
 .rela.text.msh_help
                0x000000008001e35c        0x0 ./startup/start.o
 .rela.text.msh_split
                0x000000008001e35c        0x0 ./startup/start.o
 .rela.text.msh_exec
                0x000000008001e35c        0x0 ./startup/start.o
 .rela.text.msh_auto_complete
                0x000000008001e35c        0x0 ./startup/start.o
 .rela.text.finsh_set_device
                0x000000008001e35c        0x0 ./startup/start.o
 .rela.text.shell_auto_complete
                0x000000008001e35c        0x0 ./startup/start.o
 .rela.text.shell_handle_history
                0x000000008001e35c        0x0 ./startup/start.o
 .rela.text.finsh_thread_entry
                0x000000008001e35c        0x0 ./startup/start.o
 .rela.text.finsh_system_init
                0x000000008001e35c        0x0 ./startup/start.o
 .rela.text.set_date
                0x000000008001e35c        0x0 ./startup/start.o
 .rela.text.set_time
                0x000000008001e35c        0x0 ./startup/start.o
 .rela.text.date
                0x000000008001e35c        0x0 ./startup/start.o
 .rela.fw_info_table
                0x000000008001e35c        0x0 ./startup/start.o
 .rela.text.board_init_pmp
                0x000000008001e35c        0x0 ./startup/start.o
 .rela.text.rt_hw_board_init
                0x000000008001e35c        0x0 ./startup/start.o
                0x000000008001e35c                PROVIDE (__etext = .)
                [!provide]                        PROVIDE (_etext = .)
                0x000000008001e35c                PROVIDE (etext = .)

.data           0x0000000040000000      0x710 load address 0x000000008001e35c
                0x0000000040000000                . = ALIGN (0x8)
                0x0000000040000000                __data_start__ = .
                0x0000000040000800                __global_pointer$ = (. + 0x800)
 *(.data)
 .data          0x0000000040000000      0x428 f:/developsoft/rt-threadstudio/repo/extract/toolchain_support_packages/risc-v/risc-v-gcc/10.1.0/bin/../lib/gcc/riscv64-unknown-elf/10.1.0/../../../../riscv64-unknown-elf/lib/rv32imac/ilp32\libc.a(lib_a-impure.o)
 .data          0x0000000040000428      0x16c f:/developsoft/rt-threadstudio/repo/extract/toolchain_support_packages/risc-v/risc-v-gcc/10.1.0/bin/../lib/gcc/riscv64-unknown-elf/10.1.0/../../../../riscv64-unknown-elf/lib/rv32imac/ilp32\libc.a(lib_a-locale.o)
                0x0000000040000428                __global_locale
 *(.data*)
 .data._object_container
                0x0000000040000594       0x90 ./rt-thread/src/object.o
 .data.hpm_rtc  0x0000000040000624       0x44 ./libraries/drivers/drv_rtc.o
 .data.hpm_spis
                0x0000000040000668       0x90 ./libraries/drivers/drv_spi.o
 *(.sdata)
 .sdata         0x00000000400006f8        0x4 f:/developsoft/rt-threadstudio/repo/extract/toolchain_support_packages/risc-v/risc-v-gcc/10.1.0/bin/../lib/gcc/riscv64-unknown-elf/10.1.0/../../../../riscv64-unknown-elf/lib/rv32imac/ilp32\libc.a(lib_a-impure.o)
                0x00000000400006f8                _impure_ptr
 *(.sdata*)
 .sdata._rt_thread_defunct
                0x00000000400006fc        0x8 ./rt-thread/src/idle.o
 .sdata._soft_timer_status
                0x0000000040000704        0x1 ./rt-thread/src/timer.o
 .sdata._current_timezone
                0x0000000040000705        0x1 ./rt-thread/components/libc/compilers/common/time.o
 *fill*         0x0000000040000706        0x2 
 .sdata.hpm_spi_ops
                0x0000000040000708        0x8 ./libraries/drivers/drv_spi.o
 *(.tdata)
 *(.tdata*)
 *(.jcr)
 *(.dynamic)
 *(.got*)
 *(.got)
 *(.gcc_except_table)
 *(.gcc_except_table.*)
                0x0000000040000710                . = ALIGN (0x8)
                [!provide]                        PROVIDE (__preinit_array_start = .)
 *(.preinit_array)
                [!provide]                        PROVIDE (__preinit_array_end = .)
                0x0000000040000710                . = ALIGN (0x8)
                [!provide]                        PROVIDE (__init_array_start = .)
 *(SORT_BY_INIT_PRIORITY(.init_array.*))
 *(.init_array)
                [!provide]                        PROVIDE (__init_array_end = .)
                0x0000000040000710                . = ALIGN (0x8)
                [!provide]                        PROVIDE (__finit_array_start = .)
 *(SORT_BY_INIT_PRIORITY(.finit_array.*))
 *(.finit_array)
                [!provide]                        PROVIDE (__finit_array_end = .)
                0x0000000040000710                . = ALIGN (0x8)
 *crtbegin*.o(.ctors)
 *(EXCLUDE_FILE(*crtend*.o) .ctors)
 *(SORT_BY_NAME(.ctors.*))
 *(.ctors)
                0x0000000040000710                . = ALIGN (0x8)
 *crtbegin*.o(.dtors)
 *(EXCLUDE_FILE(*crtend*.o) .dtors)
 *(SORT_BY_NAME(.dtors.*))
 *(.dtors)
                0x0000000040000710                . = ALIGN (0x8)
                0x0000000040000710                __data_end__ = .
                [!provide]                        PROVIDE (__edata = .)
                [!provide]                        PROVIDE (_edata = .)
                [!provide]                        PROVIDE (edata = .)
                0x000000000001ba6c                __fw_size__ = (((__data_end__ - __data_start__) + etext) - __app_load_addr__)

.noncacheable   0x0000000040c00000        0x0 load address 0x0000000080025f3c
                0x0000000040c00000                . = ALIGN (0x8)
                0x0000000040c00000                __noncacheable_init_start__ = .
 *(.noncacheable.init)
                0x0000000040c00000                __noncacheable_init_end__ = .
 *(.noncacheable)
                0x0000000040c00000                __noncacheable_bss_start__ = .
 *(.noncacheable.bss)
                0x0000000040c00000                __noncacheable_bss_end__ = .
                0x0000000040c00000                . = ALIGN (0x8)

.bss            0x0000000001087cd8     0x1ed8 load address 0x0000000080025f3c
                0x0000000001087cd8                . = ALIGN (0x8)
                0x0000000001087cd8                __bss_start__ = .
 *(.bss)
 *(.bss*)
 .bss.idle      0x0000000001087cd8       0x80 ./rt-thread/src/idle.o
 .bss.rt_thread_stack
                0x0000000001087d58      0x100 ./rt-thread/src/idle.o
 .bss.idle_hook_list
                0x0000000001087e58       0x10 ./rt-thread/src/idle.o
 .bss.rt_log_buf.0
                0x0000000001087e68       0x80 ./rt-thread/src/kservice.o
 .bss.heap_sem  0x0000000001087ee8       0x20 ./rt-thread/src/mem.o
 .bss.rt_thread_priority_table
                0x0000000001087f08      0x100 ./rt-thread/src/scheduler.o
                0x0000000001087f08                rt_thread_priority_table
 .bss._timer_thread
                0x0000000001088008       0x80 ./rt-thread/src/timer.o
 .bss._timer_thread_stack
                0x0000000001088088      0x200 ./rt-thread/src/timer.o
 .bss.tmp.1     0x0000000001088288       0x24 ./rt-thread/components/libc/compilers/common/time.o
 .bss.buf.0     0x00000000010882ac       0x1a ./rt-thread/components/libc/compilers/common/time.o
 *fill*         0x00000000010882c6        0x2 
 .bss.finsh_prompt.0
                0x00000000010882c8       0x81 ./rt-thread/components/finsh/shell.o
 *fill*         0x0000000001088349        0x3 
 .bss._hw_pin   0x000000000108834c       0x48 ./rt-thread/components/drivers/misc/pin.o
 .bss.hpm_gpio_pin_hdr_tbl
                0x0000000001088394     0x1704 ./libraries/drivers/drv_gpio.o
 .bss.serial0   0x0000000001089a98       0x58 ./libraries/drivers/drv_uart.o
                0x0000000001089a98                serial0
 *(.tbss*)
 *(.sbss*)
 .sbss.rt_tick  0x0000000001089af0        0x4 ./rt-thread/src/clock.o
 .sbss.rt_interrupt_enter_hook
                0x0000000001089af4        0x4 ./rt-thread/src/irq.o
 .sbss.rt_interrupt_leave_hook
                0x0000000001089af8        0x4 ./rt-thread/src/irq.o
 .sbss.rt_interrupt_nest
                0x0000000001089afc        0x1 ./rt-thread/src/irq.o
                0x0000000001089afc                rt_interrupt_nest
 *fill*         0x0000000001089afd        0x3 
 .sbss.__rt_errno
                0x0000000001089b00        0x4 ./rt-thread/src/kservice.o
 .sbss._console_device
                0x0000000001089b04        0x4 ./rt-thread/src/kservice.o
 .sbss.rt_malloc_hook
                0x0000000001089b08        0x4 ./rt-thread/src/mem.o
 .sbss.rt_free_hook
                0x0000000001089b0c        0x4 ./rt-thread/src/mem.o
 .sbss.heap_ptr
                0x0000000001089b10        0x4 ./rt-thread/src/mem.o
 .sbss.heap_end
                0x0000000001089b14        0x4 ./rt-thread/src/mem.o
 .sbss.lfree    0x0000000001089b18        0x4 ./rt-thread/src/mem.o
 .sbss.mem_size_aligned
                0x0000000001089b1c        0x4 ./rt-thread/src/mem.o
 .sbss.used_mem
                0x0000000001089b20        0x4 ./rt-thread/src/mem.o
 .sbss.max_mem  0x0000000001089b24        0x4 ./rt-thread/src/mem.o
 .sbss.rt_mp_alloc_hook
                0x0000000001089b28        0x4 ./rt-thread/src/mempool.o
 .sbss.rt_mp_free_hook
                0x0000000001089b2c        0x4 ./rt-thread/src/mempool.o
 .sbss.rt_object_attach_hook
                0x0000000001089b30        0x4 ./rt-thread/src/object.o
 .sbss.rt_object_detach_hook
                0x0000000001089b34        0x4 ./rt-thread/src/object.o
 .sbss.rt_object_trytake_hook
                0x0000000001089b38        0x4 ./rt-thread/src/object.o
                0x0000000001089b38                rt_object_trytake_hook
 .sbss.rt_object_take_hook
                0x0000000001089b3c        0x4 ./rt-thread/src/object.o
                0x0000000001089b3c                rt_object_take_hook
 .sbss.rt_object_put_hook
                0x0000000001089b40        0x4 ./rt-thread/src/object.o
                0x0000000001089b40                rt_object_put_hook
 .sbss.rt_thread_ready_priority_group
                0x0000000001089b44        0x4 ./rt-thread/src/scheduler.o
                0x0000000001089b44                rt_thread_ready_priority_group
 .sbss.rt_scheduler_lock_nest
                0x0000000001089b48        0x2 ./rt-thread/src/scheduler.o
 *fill*         0x0000000001089b4a        0x2 
 .sbss.rt_current_thread
                0x0000000001089b4c        0x4 ./rt-thread/src/scheduler.o
                0x0000000001089b4c                rt_current_thread
 .sbss.rt_current_priority
                0x0000000001089b50        0x1 ./rt-thread/src/scheduler.o
                0x0000000001089b50                rt_current_priority
 *fill*         0x0000000001089b51        0x3 
 .sbss.rt_scheduler_hook
                0x0000000001089b54        0x4 ./rt-thread/src/scheduler.o
 .sbss.rt_scheduler_switch_hook
                0x0000000001089b58        0x4 ./rt-thread/src/scheduler.o
 .sbss.rt_thread_suspend_hook
                0x0000000001089b5c        0x4 ./rt-thread/src/thread.o
 .sbss.rt_thread_resume_hook
                0x0000000001089b60        0x4 ./rt-thread/src/thread.o
 .sbss.rt_thread_inited_hook
                0x0000000001089b64        0x4 ./rt-thread/src/thread.o
 .sbss._timer_list
                0x0000000001089b68        0x8 ./rt-thread/src/timer.o
 .sbss._soft_timer_list
                0x0000000001089b70        0x8 ./rt-thread/src/timer.o
 .sbss.rt_timer_enter_hook
                0x0000000001089b78        0x4 ./rt-thread/src/timer.o
 .sbss.rt_timer_exit_hook
                0x0000000001089b7c        0x4 ./rt-thread/src/timer.o
 .sbss.random_nr.0
                0x0000000001089b80        0x4 ./rt-thread/src/timer.o
 .sbss.rt_interrupt_from_thread
                0x0000000001089b84        0x4 ./rt-thread/libcpu/risc-v/common/cpuport.o
                0x0000000001089b84                rt_interrupt_from_thread
 .sbss.rt_interrupt_to_thread
                0x0000000001089b88        0x4 ./rt-thread/libcpu/risc-v/common/cpuport.o
                0x0000000001089b88                rt_interrupt_to_thread
 .sbss.rt_thread_switch_interrupt_flag
                0x0000000001089b8c        0x4 ./rt-thread/libcpu/risc-v/common/cpuport.o
                0x0000000001089b8c                rt_thread_switch_interrupt_flag
 .sbss.device.4
                0x0000000001089b90        0x4 ./rt-thread/components/libc/compilers/common/time.o
 .sbss._syscall_table_begin
                0x0000000001089b94        0x4 ./rt-thread/components/finsh/shell.o
                0x0000000001089b94                _syscall_table_begin
 .sbss._syscall_table_end
                0x0000000001089b98        0x4 ./rt-thread/components/finsh/shell.o
                0x0000000001089b98                _syscall_table_end
 .sbss.shell    0x0000000001089b9c        0x4 ./rt-thread/components/finsh/shell.o
                0x0000000001089b9c                shell
 .sbss.finsh_prompt_custom
                0x0000000001089ba0        0x4 ./rt-thread/components/finsh/shell.o
 .sbss.already_output.0
                0x0000000001089ba4        0x4 ./rt-thread/components/drivers/serial/serial.o
 .sbss.timer_cb
                0x0000000001089ba8        0x4 ./board/board.o
 .sbss.led_thread_arg.0
                0x0000000001089bac        0x4 ./applications/main.o
 *(.scommon)
 *(.scommon*)
 *(.tcommon*)
 *(.dynsbss*)
 *(COMMON)
                0x0000000001089bb0                . = ALIGN (0x8)
                0x0000000001089bb0                _end = .
                0x0000000001089bb0                __bss_end__ = .

.heap           0x0000000040000710   0x100000 load address 0x000000008001ea6c
                0x0000000040000710                . = ALIGN (0x8)
                0x0000000040000710                __heap_start__ = .
                0x0000000040100710                . = (. + HEAP_SIZE)
 *fill*         0x0000000040000710   0x100000 
                0x0000000040100710                __heap_end__ = .

.framebuffer    0x0000000040100710        0x0
                0x0000000040100710                . = ALIGN (0x8)
 *(.framebuffer)
                0x0000000040100710                . = ALIGN (0x8)

.stack          0x0000000001089bb0     0x4000 load address 0x0000000080027e14
                0x0000000001089bb0                . = ALIGN (0x8)
                0x0000000001089bb0                __stack_base__ = .
                0x000000000108dbb0                . = (. + STACK_SIZE)
 *fill*         0x0000000001089bb0     0x4000 
                0x000000000108dbb0                . = ALIGN (0x8)
                0x000000000108dbb0                PROVIDE (_stack = .)
                0x000000000108dbb0                PROVIDE (_stack_in_dlm = .)
                0x0000000040c00000                __noncacheable_start__ = ORIGIN (SDRAM_NONCACHEABLE)
                0x0000000041000000                __noncacheable_end__ = (ORIGIN (SDRAM_NONCACHEABLE) + LENGTH (SDRAM_NONCACHEABLE))
OUTPUT(rtthread.elf elf32-littleriscv)

.riscv.attributes
                0x0000000000000000       0x2b
 .riscv.attributes
                0x0000000000000000       0x29 ./startup/start.o
 .riscv.attributes
                0x0000000000000029       0x2b ./startup/startup.o
 .riscv.attributes
                0x0000000000000054       0x2b ./startup/trap.o
 .riscv.attributes
                0x000000000000007f       0x2b ./rt-thread/src/clock.o
 .riscv.attributes
                0x00000000000000aa       0x2b ./rt-thread/src/components.o
 .riscv.attributes
                0x00000000000000d5       0x2b ./rt-thread/src/device.o
 .riscv.attributes
                0x0000000000000100       0x2b ./rt-thread/src/idle.o
 .riscv.attributes
                0x000000000000012b       0x2b ./rt-thread/src/ipc.o
 .riscv.attributes
                0x0000000000000156       0x2b ./rt-thread/src/irq.o
 .riscv.attributes
                0x0000000000000181       0x2b ./rt-thread/src/kservice.o
 .riscv.attributes
                0x00000000000001ac       0x2b ./rt-thread/src/mem.o
 .riscv.attributes
                0x00000000000001d7       0x2b ./rt-thread/src/mempool.o
 .riscv.attributes
                0x0000000000000202       0x2b ./rt-thread/src/object.o
 .riscv.attributes
                0x000000000000022d       0x2b ./rt-thread/src/scheduler.o
 .riscv.attributes
                0x0000000000000258       0x2b ./rt-thread/src/thread.o
 .riscv.attributes
                0x0000000000000283       0x2b ./rt-thread/src/timer.o
 .riscv.attributes
                0x00000000000002ae       0x29 ./rt-thread/libcpu/risc-v/d45/trap_entry.o
 .riscv.attributes
                0x00000000000002d7       0x29 ./rt-thread/libcpu/risc-v/common/context_gcc.o
 .riscv.attributes
                0x0000000000000300       0x2b ./rt-thread/libcpu/risc-v/common/cpuport.o
 .riscv.attributes
                0x000000000000032b       0x2b ./rt-thread/components/libc/compilers/gcc/newlib/libc.o
 .riscv.attributes
                0x0000000000000356       0x2b ./rt-thread/components/libc/compilers/gcc/newlib/syscalls.o
 .riscv.attributes
                0x0000000000000381       0x2b ./rt-thread/components/libc/compilers/common/stdlib.o
 .riscv.attributes
                0x00000000000003ac       0x2b ./rt-thread/components/libc/compilers/common/time.o
 .riscv.attributes
                0x00000000000003d7       0x2b ./rt-thread/components/finsh/cmd.o
 .riscv.attributes
                0x0000000000000402       0x2b ./rt-thread/components/finsh/msh.o
 .riscv.attributes
                0x000000000000042d       0x2b ./rt-thread/components/finsh/shell.o
 .riscv.attributes
                0x0000000000000458       0x2b ./rt-thread/components/drivers/src/completion.o
 .riscv.attributes
                0x0000000000000483       0x2b ./rt-thread/components/drivers/spi/spi_core.o
 .riscv.attributes
                0x00000000000004ae       0x2b ./rt-thread/components/drivers/spi/spi_dev.o
 .riscv.attributes
                0x00000000000004d9       0x2b ./rt-thread/components/drivers/serial/serial.o
 .riscv.attributes
                0x0000000000000504       0x2b ./rt-thread/components/drivers/rtc/rtc.o
 .riscv.attributes
                0x000000000000052f       0x2b ./rt-thread/components/drivers/misc/pin.o
 .riscv.attributes
                0x000000000000055a       0x2b ./libraries/hpm_sdk/soc/HPM6750/boot/hpm_bootheader.o
 .riscv.attributes
                0x0000000000000585       0x2b ./libraries/hpm_sdk/soc/HPM6750/hpm_clock_drv.o
 .riscv.attributes
                0x00000000000005b0       0x2b ./libraries/hpm_sdk/soc/HPM6750/hpm_l1c_drv.o
 .riscv.attributes
                0x00000000000005db       0x2b ./libraries/hpm_sdk/soc/HPM6750/hpm_sysctl_drv.o
 .riscv.attributes
                0x0000000000000606       0x2b ./libraries/hpm_sdk/drivers/src/hpm_dram_drv.o
 .riscv.attributes
                0x0000000000000631       0x2b ./libraries/hpm_sdk/drivers/src/hpm_gpio_drv.o
 .riscv.attributes
                0x000000000000065c       0x2b ./libraries/hpm_sdk/drivers/src/hpm_pllctl_drv.o
 .riscv.attributes
                0x0000000000000687       0x2b ./libraries/hpm_sdk/drivers/src/hpm_pmp_drv.o
 .riscv.attributes
                0x00000000000006b2       0x2b ./libraries/hpm_sdk/drivers/src/hpm_rtc_drv.o
 .riscv.attributes
                0x00000000000006dd       0x2b ./libraries/hpm_sdk/drivers/src/hpm_spi_drv.o
 .riscv.attributes
                0x0000000000000708       0x2b ./libraries/hpm_sdk/drivers/src/hpm_uart_drv.o
 .riscv.attributes
                0x0000000000000733       0x2b ./libraries/drivers/drv_gpio.o
 .riscv.attributes
                0x000000000000075e       0x2b ./libraries/drivers/drv_rtc.o
 .riscv.attributes
                0x0000000000000789       0x2b ./libraries/drivers/drv_spi.o
 .riscv.attributes
                0x00000000000007b4       0x2b ./libraries/drivers/drv_uart.o
 .riscv.attributes
                0x00000000000007df       0x2b ./board/board.o
 .riscv.attributes
                0x000000000000080a       0x2b ./board/pinmux.o
 .riscv.attributes
                0x0000000000000835       0x2b ./board/rtt_board.o
 .riscv.attributes
                0x0000000000000860       0x2b ./applications/main.o
 .riscv.attributes
                0x000000000000088b       0x2b f:/developsoft/rt-threadstudio/repo/extract/toolchain_support_packages/risc-v/risc-v-gcc/10.1.0/bin/../lib/gcc/riscv64-unknown-elf/10.1.0/../../../../riscv64-unknown-elf/lib/rv32imac/ilp32\libc.a(lib_a-assert.o)
 .riscv.attributes
                0x00000000000008b6       0x2b f:/developsoft/rt-threadstudio/repo/extract/toolchain_support_packages/risc-v/risc-v-gcc/10.1.0/bin/../lib/gcc/riscv64-unknown-elf/10.1.0/../../../../riscv64-unknown-elf/lib/rv32imac/ilp32\libc.a(lib_a-atoi.o)
 .riscv.attributes
                0x00000000000008e1       0x2b f:/developsoft/rt-threadstudio/repo/extract/toolchain_support_packages/risc-v/risc-v-gcc/10.1.0/bin/../lib/gcc/riscv64-unknown-elf/10.1.0/../../../../riscv64-unknown-elf/lib/rv32imac/ilp32\libc.a(lib_a-fclose.o)
 .riscv.attributes
                0x000000000000090c       0x2b f:/developsoft/rt-threadstudio/repo/extract/toolchain_support_packages/risc-v/risc-v-gcc/10.1.0/bin/../lib/gcc/riscv64-unknown-elf/10.1.0/../../../../riscv64-unknown-elf/lib/rv32imac/ilp32\libc.a(lib_a-fflush.o)
 .riscv.attributes
                0x0000000000000937       0x2b f:/developsoft/rt-threadstudio/repo/extract/toolchain_support_packages/risc-v/risc-v-gcc/10.1.0/bin/../lib/gcc/riscv64-unknown-elf/10.1.0/../../../../riscv64-unknown-elf/lib/rv32imac/ilp32\libc.a(lib_a-findfp.o)
 .riscv.attributes
                0x0000000000000962       0x2b f:/developsoft/rt-threadstudio/repo/extract/toolchain_support_packages/risc-v/risc-v-gcc/10.1.0/bin/../lib/gcc/riscv64-unknown-elf/10.1.0/../../../../riscv64-unknown-elf/lib/rv32imac/ilp32\libc.a(lib_a-fiprintf.o)
 .riscv.attributes
                0x000000000000098d       0x2b f:/developsoft/rt-threadstudio/repo/extract/toolchain_support_packages/risc-v/risc-v-gcc/10.1.0/bin/../lib/gcc/riscv64-unknown-elf/10.1.0/../../../../riscv64-unknown-elf/lib/rv32imac/ilp32\libc.a(lib_a-fwalk.o)
 .riscv.attributes
                0x00000000000009b8       0x2b f:/developsoft/rt-threadstudio/repo/extract/toolchain_support_packages/risc-v/risc-v-gcc/10.1.0/bin/../lib/gcc/riscv64-unknown-elf/10.1.0/../../../../riscv64-unknown-elf/lib/rv32imac/ilp32\libc.a(lib_a-impure.o)
 .riscv.attributes
                0x00000000000009e3       0x2b f:/developsoft/rt-threadstudio/repo/extract/toolchain_support_packages/risc-v/risc-v-gcc/10.1.0/bin/../lib/gcc/riscv64-unknown-elf/10.1.0/../../../../riscv64-unknown-elf/lib/rv32imac/ilp32\libc.a(lib_a-makebuf.o)
 .riscv.attributes
                0x0000000000000a0e       0x2b f:/developsoft/rt-threadstudio/repo/extract/toolchain_support_packages/risc-v/risc-v-gcc/10.1.0/bin/../lib/gcc/riscv64-unknown-elf/10.1.0/../../../../riscv64-unknown-elf/lib/rv32imac/ilp32\libc.a(lib_a-memcmp.o)
 .riscv.attributes
                0x0000000000000a39       0x2b f:/developsoft/rt-threadstudio/repo/extract/toolchain_support_packages/risc-v/risc-v-gcc/10.1.0/bin/../lib/gcc/riscv64-unknown-elf/10.1.0/../../../../riscv64-unknown-elf/lib/rv32imac/ilp32\libc.a(lib_a-memcpy.o)
 .riscv.attributes
                0x0000000000000a64       0x29 f:/developsoft/rt-threadstudio/repo/extract/toolchain_support_packages/risc-v/risc-v-gcc/10.1.0/bin/../lib/gcc/riscv64-unknown-elf/10.1.0/../../../../riscv64-unknown-elf/lib/rv32imac/ilp32\libc.a(lib_a-memset.o)
 .riscv.attributes
                0x0000000000000a8d       0x2b f:/developsoft/rt-threadstudio/repo/extract/toolchain_support_packages/risc-v/risc-v-gcc/10.1.0/bin/../lib/gcc/riscv64-unknown-elf/10.1.0/../../../../riscv64-unknown-elf/lib/rv32imac/ilp32\libc.a(lib_a-printf.o)
 .riscv.attributes
                0x0000000000000ab8       0x2b f:/developsoft/rt-threadstudio/repo/extract/toolchain_support_packages/risc-v/risc-v-gcc/10.1.0/bin/../lib/gcc/riscv64-unknown-elf/10.1.0/../../../../riscv64-unknown-elf/lib/rv32imac/ilp32\libc.a(lib_a-stdio.o)
 .riscv.attributes
                0x0000000000000ae3       0x2b f:/developsoft/rt-threadstudio/repo/extract/toolchain_support_packages/risc-v/risc-v-gcc/10.1.0/bin/../lib/gcc/riscv64-unknown-elf/10.1.0/../../../../riscv64-unknown-elf/lib/rv32imac/ilp32\libc.a(lib_a-strcpy.o)
 .riscv.attributes
                0x0000000000000b0e       0x2b f:/developsoft/rt-threadstudio/repo/extract/toolchain_support_packages/risc-v/risc-v-gcc/10.1.0/bin/../lib/gcc/riscv64-unknown-elf/10.1.0/../../../../riscv64-unknown-elf/lib/rv32imac/ilp32\libc.a(lib_a-strlen.o)
 .riscv.attributes
                0x0000000000000b39       0x2b f:/developsoft/rt-threadstudio/repo/extract/toolchain_support_packages/risc-v/risc-v-gcc/10.1.0/bin/../lib/gcc/riscv64-unknown-elf/10.1.0/../../../../riscv64-unknown-elf/lib/rv32imac/ilp32\libc.a(lib_a-strncmp.o)
 .riscv.attributes
                0x0000000000000b64       0x2b f:/developsoft/rt-threadstudio/repo/extract/toolchain_support_packages/risc-v/risc-v-gcc/10.1.0/bin/../lib/gcc/riscv64-unknown-elf/10.1.0/../../../../riscv64-unknown-elf/lib/rv32imac/ilp32\libc.a(lib_a-strncpy.o)
 .riscv.attributes
                0x0000000000000b8f       0x2b f:/developsoft/rt-threadstudio/repo/extract/toolchain_support_packages/risc-v/risc-v-gcc/10.1.0/bin/../lib/gcc/riscv64-unknown-elf/10.1.0/../../../../riscv64-unknown-elf/lib/rv32imac/ilp32\libc.a(lib_a-strtol.o)
 .riscv.attributes
                0x0000000000000bba       0x2b f:/developsoft/rt-threadstudio/repo/extract/toolchain_support_packages/risc-v/risc-v-gcc/10.1.0/bin/../lib/gcc/riscv64-unknown-elf/10.1.0/../../../../riscv64-unknown-elf/lib/rv32imac/ilp32\libc.a(lib_a-svfprintf.o)
 .riscv.attributes
                0x0000000000000be5       0x2b f:/developsoft/rt-threadstudio/repo/extract/toolchain_support_packages/risc-v/risc-v-gcc/10.1.0/bin/../lib/gcc/riscv64-unknown-elf/10.1.0/../../../../riscv64-unknown-elf/lib/rv32imac/ilp32\libc.a(lib_a-vfiprintf.o)
 .riscv.attributes
                0x0000000000000c10       0x2b f:/developsoft/rt-threadstudio/repo/extract/toolchain_support_packages/risc-v/risc-v-gcc/10.1.0/bin/../lib/gcc/riscv64-unknown-elf/10.1.0/../../../../riscv64-unknown-elf/lib/rv32imac/ilp32\libc.a(lib_a-vfprintf.o)
 .riscv.attributes
                0x0000000000000c3b       0x2b f:/developsoft/rt-threadstudio/repo/extract/toolchain_support_packages/risc-v/risc-v-gcc/10.1.0/bin/../lib/gcc/riscv64-unknown-elf/10.1.0/../../../../riscv64-unknown-elf/lib/rv32imac/ilp32\libc.a(lib_a-wsetup.o)
 .riscv.attributes
                0x0000000000000c66       0x2b f:/developsoft/rt-threadstudio/repo/extract/toolchain_support_packages/risc-v/risc-v-gcc/10.1.0/bin/../lib/gcc/riscv64-unknown-elf/10.1.0/../../../../riscv64-unknown-elf/lib/rv32imac/ilp32\libc.a(lib_a-abort.o)
 .riscv.attributes
                0x0000000000000c91       0x2b f:/developsoft/rt-threadstudio/repo/extract/toolchain_support_packages/risc-v/risc-v-gcc/10.1.0/bin/../lib/gcc/riscv64-unknown-elf/10.1.0/../../../../riscv64-unknown-elf/lib/rv32imac/ilp32\libc.a(lib_a-ctype_.o)
 .riscv.attributes
                0x0000000000000cbc       0x2b f:/developsoft/rt-threadstudio/repo/extract/toolchain_support_packages/risc-v/risc-v-gcc/10.1.0/bin/../lib/gcc/riscv64-unknown-elf/10.1.0/../../../../riscv64-unknown-elf/lib/rv32imac/ilp32\libc.a(lib_a-fputwc.o)
 .riscv.attributes
                0x0000000000000ce7       0x2b f:/developsoft/rt-threadstudio/repo/extract/toolchain_support_packages/risc-v/risc-v-gcc/10.1.0/bin/../lib/gcc/riscv64-unknown-elf/10.1.0/../../../../riscv64-unknown-elf/lib/rv32imac/ilp32\libc.a(lib_a-fvwrite.o)
 .riscv.attributes
                0x0000000000000d12       0x2b f:/developsoft/rt-threadstudio/repo/extract/toolchain_support_packages/risc-v/risc-v-gcc/10.1.0/bin/../lib/gcc/riscv64-unknown-elf/10.1.0/../../../../riscv64-unknown-elf/lib/rv32imac/ilp32\libc.a(lib_a-ldtoa.o)
 .riscv.attributes
                0x0000000000000d3d       0x2b f:/developsoft/rt-threadstudio/repo/extract/toolchain_support_packages/risc-v/risc-v-gcc/10.1.0/bin/../lib/gcc/riscv64-unknown-elf/10.1.0/../../../../riscv64-unknown-elf/lib/rv32imac/ilp32\libc.a(lib_a-localeconv.o)
 .riscv.attributes
                0x0000000000000d68       0x2b f:/developsoft/rt-threadstudio/repo/extract/toolchain_support_packages/risc-v/risc-v-gcc/10.1.0/bin/../lib/gcc/riscv64-unknown-elf/10.1.0/../../../../riscv64-unknown-elf/lib/rv32imac/ilp32\libc.a(lib_a-locale.o)
 .riscv.attributes
                0x0000000000000d93       0x2b f:/developsoft/rt-threadstudio/repo/extract/toolchain_support_packages/risc-v/risc-v-gcc/10.1.0/bin/../lib/gcc/riscv64-unknown-elf/10.1.0/../../../../riscv64-unknown-elf/lib/rv32imac/ilp32\libc.a(lib_a-mbtowc_r.o)
 .riscv.attributes
                0x0000000000000dbe       0x2b f:/developsoft/rt-threadstudio/repo/extract/toolchain_support_packages/risc-v/risc-v-gcc/10.1.0/bin/../lib/gcc/riscv64-unknown-elf/10.1.0/../../../../riscv64-unknown-elf/lib/rv32imac/ilp32\libc.a(lib_a-memchr.o)
 .riscv.attributes
                0x0000000000000de9       0x2b f:/developsoft/rt-threadstudio/repo/extract/toolchain_support_packages/risc-v/risc-v-gcc/10.1.0/bin/../lib/gcc/riscv64-unknown-elf/10.1.0/../../../../riscv64-unknown-elf/lib/rv32imac/ilp32\libc.a(lib_a-memmove-stub.o)
 .riscv.attributes
                0x0000000000000e14       0x2b f:/developsoft/rt-threadstudio/repo/extract/toolchain_support_packages/risc-v/risc-v-gcc/10.1.0/bin/../lib/gcc/riscv64-unknown-elf/10.1.0/../../../../riscv64-unknown-elf/lib/rv32imac/ilp32\libc.a(lib_a-mprec.o)
 .riscv.attributes
                0x0000000000000e3f       0x2b f:/developsoft/rt-threadstudio/repo/extract/toolchain_support_packages/risc-v/risc-v-gcc/10.1.0/bin/../lib/gcc/riscv64-unknown-elf/10.1.0/../../../../riscv64-unknown-elf/lib/rv32imac/ilp32\libc.a(lib_a-s_frexp.o)
 .riscv.attributes
                0x0000000000000e6a       0x2b f:/developsoft/rt-threadstudio/repo/extract/toolchain_support_packages/risc-v/risc-v-gcc/10.1.0/bin/../lib/gcc/riscv64-unknown-elf/10.1.0/../../../../riscv64-unknown-elf/lib/rv32imac/ilp32\libc.a(lib_a-signal.o)
 .riscv.attributes
                0x0000000000000e95       0x2b f:/developsoft/rt-threadstudio/repo/extract/toolchain_support_packages/risc-v/risc-v-gcc/10.1.0/bin/../lib/gcc/riscv64-unknown-elf/10.1.0/../../../../riscv64-unknown-elf/lib/rv32imac/ilp32\libc.a(lib_a-sprintf.o)
 .riscv.attributes
                0x0000000000000ec0       0x29 f:/developsoft/rt-threadstudio/repo/extract/toolchain_support_packages/risc-v/risc-v-gcc/10.1.0/bin/../lib/gcc/riscv64-unknown-elf/10.1.0/../../../../riscv64-unknown-elf/lib/rv32imac/ilp32\libc.a(lib_a-strcmp.o)
 .riscv.attributes
                0x0000000000000ee9       0x2b f:/developsoft/rt-threadstudio/repo/extract/toolchain_support_packages/risc-v/risc-v-gcc/10.1.0/bin/../lib/gcc/riscv64-unknown-elf/10.1.0/../../../../riscv64-unknown-elf/lib/rv32imac/ilp32\libc.a(lib_a-svfiprintf.o)
 .riscv.attributes
                0x0000000000000f14       0x2b f:/developsoft/rt-threadstudio/repo/extract/toolchain_support_packages/risc-v/risc-v-gcc/10.1.0/bin/../lib/gcc/riscv64-unknown-elf/10.1.0/../../../../riscv64-unknown-elf/lib/rv32imac/ilp32\libc.a(lib_a-wbuf.o)
 .riscv.attributes
                0x0000000000000f3f       0x2b f:/developsoft/rt-threadstudio/repo/extract/toolchain_support_packages/risc-v/risc-v-gcc/10.1.0/bin/../lib/gcc/riscv64-unknown-elf/10.1.0/../../../../riscv64-unknown-elf/lib/rv32imac/ilp32\libc.a(lib_a-wcrtomb.o)
 .riscv.attributes
                0x0000000000000f6a       0x2b f:/developsoft/rt-threadstudio/repo/extract/toolchain_support_packages/risc-v/risc-v-gcc/10.1.0/bin/../lib/gcc/riscv64-unknown-elf/10.1.0/../../../../riscv64-unknown-elf/lib/rv32imac/ilp32\libc.a(lib_a-wctomb_r.o)
 .riscv.attributes
                0x0000000000000f95       0x2b f:/developsoft/rt-threadstudio/repo/extract/toolchain_support_packages/risc-v/risc-v-gcc/10.1.0/bin/../lib/gcc/riscv64-unknown-elf/10.1.0/rv32imac/ilp32\libgcc.a(_divdi3.o)
 .riscv.attributes
                0x0000000000000fc0       0x2b f:/developsoft/rt-threadstudio/repo/extract/toolchain_support_packages/risc-v/risc-v-gcc/10.1.0/bin/../lib/gcc/riscv64-unknown-elf/10.1.0/rv32imac/ilp32\libgcc.a(_moddi3.o)
 .riscv.attributes
                0x0000000000000feb       0x2b f:/developsoft/rt-threadstudio/repo/extract/toolchain_support_packages/risc-v/risc-v-gcc/10.1.0/bin/../lib/gcc/riscv64-unknown-elf/10.1.0/rv32imac/ilp32\libgcc.a(_udivdi3.o)
 .riscv.attributes
                0x0000000000001016       0x2b f:/developsoft/rt-threadstudio/repo/extract/toolchain_support_packages/risc-v/risc-v-gcc/10.1.0/bin/../lib/gcc/riscv64-unknown-elf/10.1.0/rv32imac/ilp32\libgcc.a(_umoddi3.o)
 .riscv.attributes
                0x0000000000001041       0x2b f:/developsoft/rt-threadstudio/repo/extract/toolchain_support_packages/risc-v/risc-v-gcc/10.1.0/bin/../lib/gcc/riscv64-unknown-elf/10.1.0/rv32imac/ilp32\libgcc.a(adddf3.o)
 .riscv.attributes
                0x000000000000106c       0x2b f:/developsoft/rt-threadstudio/repo/extract/toolchain_support_packages/risc-v/risc-v-gcc/10.1.0/bin/../lib/gcc/riscv64-unknown-elf/10.1.0/rv32imac/ilp32\libgcc.a(divdf3.o)
 .riscv.attributes
                0x0000000000001097       0x2b f:/developsoft/rt-threadstudio/repo/extract/toolchain_support_packages/risc-v/risc-v-gcc/10.1.0/bin/../lib/gcc/riscv64-unknown-elf/10.1.0/rv32imac/ilp32\libgcc.a(muldf3.o)
 .riscv.attributes
                0x00000000000010c2       0x2b f:/developsoft/rt-threadstudio/repo/extract/toolchain_support_packages/risc-v/risc-v-gcc/10.1.0/bin/../lib/gcc/riscv64-unknown-elf/10.1.0/rv32imac/ilp32\libgcc.a(fixunsdfsi.o)
 .riscv.attributes
                0x00000000000010ed       0x2b f:/developsoft/rt-threadstudio/repo/extract/toolchain_support_packages/risc-v/risc-v-gcc/10.1.0/bin/../lib/gcc/riscv64-unknown-elf/10.1.0/rv32imac/ilp32\libgcc.a(floatunsidf.o)
 .riscv.attributes
                0x0000000000001118       0x2b f:/developsoft/rt-threadstudio/repo/extract/toolchain_support_packages/risc-v/risc-v-gcc/10.1.0/bin/../lib/gcc/riscv64-unknown-elf/10.1.0/rv32imac/ilp32\libgcc.a(eqtf2.o)
 .riscv.attributes
                0x0000000000001143       0x2b f:/developsoft/rt-threadstudio/repo/extract/toolchain_support_packages/risc-v/risc-v-gcc/10.1.0/bin/../lib/gcc/riscv64-unknown-elf/10.1.0/rv32imac/ilp32\libgcc.a(getf2.o)
 .riscv.attributes
                0x000000000000116e       0x2b f:/developsoft/rt-threadstudio/repo/extract/toolchain_support_packages/risc-v/risc-v-gcc/10.1.0/bin/../lib/gcc/riscv64-unknown-elf/10.1.0/rv32imac/ilp32\libgcc.a(letf2.o)
 .riscv.attributes
                0x0000000000001199       0x2b f:/developsoft/rt-threadstudio/repo/extract/toolchain_support_packages/risc-v/risc-v-gcc/10.1.0/bin/../lib/gcc/riscv64-unknown-elf/10.1.0/rv32imac/ilp32\libgcc.a(multf3.o)
 .riscv.attributes
                0x00000000000011c4       0x2b f:/developsoft/rt-threadstudio/repo/extract/toolchain_support_packages/risc-v/risc-v-gcc/10.1.0/bin/../lib/gcc/riscv64-unknown-elf/10.1.0/rv32imac/ilp32\libgcc.a(subtf3.o)
 .riscv.attributes
                0x00000000000011ef       0x2b f:/developsoft/rt-threadstudio/repo/extract/toolchain_support_packages/risc-v/risc-v-gcc/10.1.0/bin/../lib/gcc/riscv64-unknown-elf/10.1.0/rv32imac/ilp32\libgcc.a(fixtfsi.o)
 .riscv.attributes
                0x000000000000121a       0x2b f:/developsoft/rt-threadstudio/repo/extract/toolchain_support_packages/risc-v/risc-v-gcc/10.1.0/bin/../lib/gcc/riscv64-unknown-elf/10.1.0/rv32imac/ilp32\libgcc.a(floatsitf.o)
 .riscv.attributes
                0x0000000000001245       0x2b f:/developsoft/rt-threadstudio/repo/extract/toolchain_support_packages/risc-v/risc-v-gcc/10.1.0/bin/../lib/gcc/riscv64-unknown-elf/10.1.0/rv32imac/ilp32\libgcc.a(extenddftf2.o)
 .riscv.attributes
                0x0000000000001270       0x2b f:/developsoft/rt-threadstudio/repo/extract/toolchain_support_packages/risc-v/risc-v-gcc/10.1.0/bin/../lib/gcc/riscv64-unknown-elf/10.1.0/rv32imac/ilp32\libgcc.a(trunctfdf2.o)
 .riscv.attributes
                0x000000000000129b       0x2b f:/developsoft/rt-threadstudio/repo/extract/toolchain_support_packages/risc-v/risc-v-gcc/10.1.0/bin/../lib/gcc/riscv64-unknown-elf/10.1.0/rv32imac/ilp32\libgcc.a(_clz.o)
 .riscv.attributes
                0x00000000000012c6       0x2b f:/developsoft/rt-threadstudio/repo/extract/toolchain_support_packages/risc-v/risc-v-gcc/10.1.0/bin/../lib/gcc/riscv64-unknown-elf/10.1.0/rv32imac/ilp32\libgcc.a(_clzsi2.o)

.comment        0x0000000000000000       0x12
 .comment       0x0000000000000000       0x12 ./startup/startup.o
                                         0x13 (size before relaxing)
 .comment       0x0000000000000012       0x13 ./startup/trap.o
 .comment       0x0000000000000012       0x13 ./rt-thread/src/clock.o
 .comment       0x0000000000000012       0x13 ./rt-thread/src/components.o
 .comment       0x0000000000000012       0x13 ./rt-thread/src/device.o
 .comment       0x0000000000000012       0x13 ./rt-thread/src/idle.o
 .comment       0x0000000000000012       0x13 ./rt-thread/src/ipc.o
 .comment       0x0000000000000012       0x13 ./rt-thread/src/irq.o
 .comment       0x0000000000000012       0x13 ./rt-thread/src/kservice.o
 .comment       0x0000000000000012       0x13 ./rt-thread/src/mem.o
 .comment       0x0000000000000012       0x13 ./rt-thread/src/mempool.o
 .comment       0x0000000000000012       0x13 ./rt-thread/src/object.o
 .comment       0x0000000000000012       0x13 ./rt-thread/src/scheduler.o
 .comment       0x0000000000000012       0x13 ./rt-thread/src/thread.o
 .comment       0x0000000000000012       0x13 ./rt-thread/src/timer.o
 .comment       0x0000000000000012       0x13 ./rt-thread/libcpu/risc-v/common/cpuport.o
 .comment       0x0000000000000012       0x13 ./rt-thread/components/libc/compilers/gcc/newlib/libc.o
 .comment       0x0000000000000012       0x13 ./rt-thread/components/libc/compilers/gcc/newlib/syscalls.o
 .comment       0x0000000000000012       0x13 ./rt-thread/components/libc/compilers/common/stdlib.o
 .comment       0x0000000000000012       0x13 ./rt-thread/components/libc/compilers/common/time.o
 .comment       0x0000000000000012       0x13 ./rt-thread/components/finsh/cmd.o
 .comment       0x0000000000000012       0x13 ./rt-thread/components/finsh/msh.o
 .comment       0x0000000000000012       0x13 ./rt-thread/components/finsh/shell.o
 .comment       0x0000000000000012       0x13 ./rt-thread/components/drivers/src/completion.o
